:020000040800F2
:10800000E8E701209981000801EA000835D5000859
:10801000BDE90008A5980008B56601080000000049
:10802000000000000000000000000000A10A01089C
:1080300095A800080000000089F80008CD19010883
:10804000B3810008B3810008B3810008B381000840
:10805000B3810008B3810008B3810008B381000830
:10806000B3810008B3810008B3810008B381000820
:10807000B3810008B3810008B3810008B381000810
:10808000B3810008B3810008E1920008219900083B
:10809000E9980008B3810008119900089DCD0008F7
:1080A000B3810008411B0108B3810008B3810008B7
:1080B000B3810008491F0108B381000899D5000861
:1080C00079D50008B3810008B3810008B3810008A6
:1080D000B3810008B3810008B3810008B3810008B0
:1080E00031CC0008B3810008B3810008B3810008D7
:1080F000B3810008B3810008B3810008B381000890
:10810000B381000899090108B3810008B381000810
:10811000B3810008B3810008B3810008B38100086F
:10812000B3810008B3810008B3810008B38100085F
:1081300095A50008B3810008B38100088D99000857
:1081400055990008B38100087D990008D9EA000814
:10815000B3810008B3810008B3810008B38100082F
:10816000B3810008B3810008B3810008B38100081F
:10817000B3810008B3810008B3810008B38100080F
:10818000B3810008DFF80CD000F0E6FD004800479E
:10819000C7A00108E8E701200648804706480047D5
:1081A000FEE7FEE7FEE7FEE7FEE7FEE7FEE7FEE7A7
:1081B000FEE7FEE79D1A0108858100082DE9F041E0
:1081C0000024061B254671F1000605DA012400276C
:1081D000D0EB070067EB0101161E73F1000605DA0C
:1081E0000027D2EB0702012567EB030300F008FC30
:1081F00086460E4617469C46AC4204D00025D0EB7E
:10820000050E65EB010624B10020D2EB000760EB00
:10821000030C704631463A466346BDE8F0810000E3
:1082200000487047ECBB010810B50446FFF7F8FFA3
:108230000068005D00F0010010BDA0F16101192986
:1082400000D82038704740EA01039B0703D009E0BB
:1082500008C9121F08C0042AFAD203E011F8013B32
:1082600000F8013B521EF9D27047D2B201E000F88B
:10827000012B491EFBD270470022F6E710B51346CA
:108280000A4604461946FFF7F0FF204610BD421E7D
:1082900012F8013F002BFBD111F8013B02F8013B22
:1082A000002BF9D17047CAB2401E10F8011F8A4254
:1082B00002D00029F9D100207047421C10F8011BA0
:1082C0000029FBD1801A704710B5002200E0521C33
:1082D000835C8C5CA34201D1002BF8D1D8B2E1B20F
:1082E000401A10BD034611F8012B00F8012B002A9B
:1082F000F9D11846704730B505460020034600E026
:108300005B1C934205D2EC5CC85C201A01D1002CA6
:10831000F6D130BD10B54843044611F0D9FE00280F
:1083200005D00021002C02D0641E0155FAE710BDD3
:108330002DE9F04791460F4680460446002614F882
:10834000015B2DB1FFF76CFF0068405DC007F6D1FF
:108350002B2D02D02D2D18D0641E4A4639462046BA
:1083600000F0B0FB27B13968A14201D1C7F8008005
:1083700071054FF002040BD54042002803DD0EF0DA
:10838000EBFA0460A007BDE8F08746F48066E4E7F6
:108390000028F8DA0EF0E0FA04606FF00040F2E72F
:1083A00070B506460EF0D8FA046805460A22002188
:1083B0003046FFF7BDFF2C6070BDF0B480EA0102CB
:1083C000D40F4200B2EB410F02D2024608461146DA
:1083D0004A0042D0C30DDDB2C1F3C752AD1A202D01
:1083E00035DAC1F3160141F4000204B15242C5F17D
:1083F000200602FA06F12A411044B3EBD05F23D0E5
:10840000C4B1012DA0EBC35009DCF0BC4FF0004219
:1084100002EAC352DBB200F5000000F0FABB4000F4
:1084200000F1807000EBC350A0F1807040EAD17081
:10843000490009E0490841EAC071A0EBC35000F5CA
:108440000000400800EBC350F0BC00F0D9BB614213
:10845000012202EB4101001BF6E7F0BC704781F0FE
:108460000041AAE780F00040A7E780EA010210B5CA
:1084700002F00043400022D04A001FD0010E01EB61
:108480001261C0F35600C2F3560240F4000042F4F9
:108490000002A0FB022000047F39140400D0401C1D
:1084A00050EA124001D44000491EC2B20C0604EB4F
:1084B000D010401C4008802A02D003E0002010BDEC
:1084C00020F00100002900DA0020184310BD30B46C
:1084D00080EA010202F0004530F0004221F0004045
:1084E00013D090B1C30DD40DC2F31601C0F3160022
:1084F000E41A41F4000140F400027D34914201D3BA
:10850000641C00E04900002C02DA30BC00207047F7
:108510004FF400000023914201D3891A034340081D
:108520004FEA4101F7D151B1914202D14FF00041E0
:1085300005E002D24FF0010101E06FF0010103EB11
:10854000C450284430BC00F05BBB2DE9FE4F804690
:1085500081EA0300C00F0C46009021F0004123F097
:108560000045B8EB0200A94105D24046214690469D
:108570001C460B46024623F00040104347D0270D0F
:10858000C7F30A00C3F30A510290401A0190402831
:108590006BDAC3F3130040F4801B0098924620B1BD
:1085A0000023D2EB030A63EB0B0B01985946C0F191
:1085B0004002504600F055FA06460D4650465946D0
:1085C000019A00F06DFA10EB08006141002487EA7F
:1085D000115284EAE7731A4340D0009A62B3019AB9
:1085E000012A4FEA075215DC001B61EB02014FF034
:1085F000004202EA0752CDE90042001C41F5801119
:1086000032462B4600F042FB03B0BDE8F08F4046F7
:108610002146F9E7001B61EB0201001C41F58013C4
:1086200000185B412018A2F5001747EB030140EA50
:10863000D570B6196D4111E06D084FEA360645EA6E
:10864000C0754FEA0752001B61EB0201001C41F5A7
:10865000801149084FEA30000019514132462B463B
:1086600003B0BDE8F04F00F002BB009801224000CB
:108670000023D0EB020263EBE073009821464FEA3F
:10868000E074B8EB000061EB0401E9E783F000431C
:108690005BE781F0004158E72DE9FE4F81EA0304D2
:1086A00004F0004421F0004100944FF0000B23F04F
:1086B000004350EA01045ED052EA03045BD0C3F3E6
:1086C0000A54C1F30A552C44A4F2F3340194A0FBDC
:1086D0000254C1F3130141F48011C3F3130343F4B3
:1086E000801301FB024400FB034E840A970A44EA0C
:1086F000815447EA8357A4FB076802958D0A05FB5E
:1087000007854FEA932C04FB0C542705029D4FEA82
:10871000065847EA1637B5EB08056EEB070C870ECF
:10872000920E47EA811742EA8312A7FB0201B6EBD9
:108730000B0164EB00042B0D43EA0C335E1844EB91
:108740001C50DA465146E7FB0201C5F313044FEA19
:108750000B3343EA14534FEA0432019C43EA060305
:10876000A4F10C040294009CCDE900B400F08EFA50
:1087700003B0BDE8F08F00200146F9E72DE9F04D88
:1087800081EA030404F0004B21F0004514464FF049
:10879000000A23F0004150EA050220D054EA010209
:1087A0001DD0C5F30A570246C5F31303C1F31300E6
:1087B000C1F30A5640F4801543F48013A7EB060872
:1087C000101BD64608F2FD3873EB050002D308F102
:1087D000010801E092185B41B8F1000F03DA0020B4
:1087E0000146BDE8F08D00204FF480110646844616
:1087F0000EE0171B73EB050705D3121B63EB050394
:1088000006434CEA010C49084FEA300092185B41DC
:1088100050EA0107EDD152EA030012D082EA0400C7
:1088200083EA0501084305D0101BAB4106D20122A3
:10883000002306E000224FF0004302E06FF0010247
:1088400053101AEB06004CEB085110EB0A0041EBF9
:108850000B01BDE8F04D00F00ABA70B521F00043FD
:1088600003430CD0C1F30A550024D5EB040564EB97
:108870000403D617AD1AB34102DB0020014670BDD8
:10888000201841EB025170BDC10F80EAE07008442E
:10889000CA079623002100F0BCB996230022114696
:1088A00000F0B7B90EB5C10F80EAE0700844CA07FE
:1088B000002140F233438DE80E000A460B4600F0DB
:1088C000E5F903B000BD0EB540F23341029100213D
:1088D000CDE900110A460B4600F0D8F903B000BDFF
:1088E00020F00040C10DC0F3160040F400007F29C5
:1088F00001DA00207047962903DCC1F19601C840D7
:10890000704796398840704770B5C1F30A5201F03C
:1089100000450024C1F3130140F2FF3341F48011FC
:108920009A4201DA002070BD40F233439A42A2F22B
:10893000334203DC524200F0A3F800E090402C43A5
:10894000F1D0404270BD00F0004230F000400AD04B
:10895000C10D01F56071C0F3160042EA0151C20871
:1089600040071143704700200146704730B5041E90
:1089700071F1000404DB4FF00044404264EB01015C
:10898000141E73F1000405DB1C464FF000435242F5
:1089900063EB0403994208BF904230BD01F00043ED
:1089A00030B421F0004150EA010206D00A0DA2F5D0
:1089B0006072C1F31301002A02DC30BC0020704752
:1089C000440F44EAC104C100E01830BC00EBC250BF
:1089D00000F016B930B50B460146002020220124D4
:1089E00009E021FA02F59D4205D303FA02F5491B7D
:1089F00004FA02F52844151EA2F10102F1DC30BD93
:108A00002DE9F05F0546002092469B4688460646C3
:108A1000814640241BE0284641464746224600F056
:108A20002FF853465A46C01A914110D311461846A2
:108A3000224600F016F82D1A67EB01084F46224631
:108A40000120002100F00DF817EB00094E41201E17
:108A5000A4F10104DFDC484631462A464346BDE81E
:108A6000F09F202A04DB203A00FA02F10020704730
:108A70009140C2F1200320FA03F31943904070475C
:108A8000202A04DB203A21FA02F00021704721FA63
:108A900002F3D040C2F120029140084319467047CA
:108AA000202A06DBCB17203A41FA02F043EAE073B2
:108AB00006E041FA02F3D040C2F12002914008439F
:108AC000194670472DE9F05F824600780027154669
:108AD0008B460AF10104B946302801D09DB113E05C
:108AE00014F8010B0127782803D0582801D045B18C
:108AF0000AE00DB1102D07D10027102514F8010B45
:108B000002E0082500E00A250026B0460EE005FB3D
:108B1000080005FB06F1012701EB10461FFA80F85B
:108B2000B6F5803F00D3B94614F8010B294600F092
:108B300025F90028EBDABBF1000F05D00FB1641E58
:108B400000E05446CBF80040B9F1000F06D00DF01C
:108B500003FF02210160C81EBDE8F09F48EA0640FD
:108B6000FAE700000FB4002300B589B00CA900910A
:108B70000B996FF00042CB601E4B06931E4B079380
:108B80000423CDE901321D4A089202466B460020BB
:108B900000F082F909B05DF814FB70B586B00646A6
:108BA0004FF0FF300091CDE90101002015460C4641
:108BB00004903246694604A8FFF7D4FF02460498A1
:108BC000211825B108B1084600E020462860049825
:108BD00000280DD0002A02DD0098884208D0081B2A
:108BE0000094CDE901043246694604A8FFF7BAFFB4
:108BF00006B070BDD1900008EF90000829820008EF
:108C00000029A8BF7047401C490008BF20F00100A0
:108C1000704710B4B0FA80FC00FA0CF050EA01047E
:108C200004BF10BC704749B1CCF1200421FA04F410
:108C300011FA0CF118BF012121430843A3EB0C01E9
:108C4000CB1D4FEA00614FEA102042BF002010BC4C
:108C5000704700EBC35010440029A4BF10BC7047FC
:108C6000401C490008BF20F0010010BC704710B53F
:108C7000141E73F1000408DA401C41F1000192183F
:108C80005B411A4301D120F0010010BD2DE9F04DE8
:108C900092469B4611B1B1FA81F202E0B0FA80F23D
:108CA00020329046FFF7DDFE04460F4640EA0A00F8
:108CB00041EA0B0153465A46084313D0114653EA82
:108CC000010019D0C8F140025046FFF7D9FE054611
:108CD0000E46504659464246FFF7C3FE084305D0AC
:108CE000012004E020463946BDE8F08D0020054310
:108CF00046EAE0762C4337430A986305E40AA0EB82
:108D000008000022FD0A44EA47540A3002D5002038
:108D10000146E9E7010510196941DDE90845001937
:108D20006941BDE8F04DA2E7C1F30A52C1F3130156
:108D300040F2FF3341F480119A4202DA00200146EA
:108D4000704740F233439A42A2F2334202DC52426D
:108D5000FFF796BEFFF785BE064C074D06E0E068BC
:108D600040F0010394E8070098471034AC42F6D372
:108D7000FFF70CFAB4BC0108D4BC01083A2800D2B1
:108D8000303820F02002412A01D3A2F13700884276
:108D900001D34FF0FF3070472DE9FF4F087881B0C5
:108DA0009946FF2805D0491C2D2804D00024002313
:108DB00008E000230BE00124F9E703EB830300EB59
:108DC0004303491C0878FF28F7D104B15B42002017
:108DD0000090147801462D2C01D02B2C04D1521C6C
:108DE0002D2C12D00024009400251678FF2E0ED0D2
:108DF0000A24A0FB04C801FB0481002700FB071123
:108E0000521C16EB0C006941EFE70124EBE7994493
:108E100050EA01020ED00024AA4D2646DFF8A882AF
:108E200000F0C7F982468B46B9F1000009DAC9F1B2
:108E300000071BE001980021C0E9001105B0BDE862
:108E4000F08F074612E0F80707D022462B4630463F
:108E50004146FFF721FC0646884622462B4610462F
:108E60001946FFF719FC04460D467F10002FEAD182
:108E7000B9F1000F324643465046594602DAFFF731
:108E80007DFC01E0FFF708FC009A0AB181F0004187
:108E9000019AC2E90001D1E72DE9FF4F1F468DB0CD
:108EA000D7E901464FF0FF382E2045464FF0000924
:108EB0000B90B9696D1C0E988847396A82468847BD
:108EC0000028F6D1BAF1FF3F0AD024F4D064002E76
:108ED00011DDBAF12B0F08D0BAF12D0F0BD102E042
:108EE000404611B0ABE744F48064B9696D1C0E983C
:108EF00088478246761E6946600501D52D2000E030
:108F00002B208DF8000001F1010B0DF1200809E084
:108F1000B9696D1C0E98884782460F9844F4007416
:108F2000761E0560002E02DDBAF1300FF0D00B99ED
:108F30008A453ED144F0800406E00F99681CA9F1EF
:108F4000010944F400740860B9696D1C761E0E981E
:108F5000884782463028F0D02BE00B998A4505D10E
:108F6000200603D444F08004761E18E050460DF02D
:108F7000E7FF08B30DF11301761E44F400748B452E
:108F800008D2AAF130000BF8010B200607D5A9F191
:108F9000010003E0200602D409F101008146A0058A
:108FA00002D50F99681C0860B9696D1C0E98884736
:108FB0008246002ED1DC53E0002E51DDBAF1650F60
:108FC00002D0BAF1450F4BD1A00549D5B9696D1C46
:108FD00024F44074761E0E9888478246002E0CDDDD
:108FE0002B2804D0BAF12D0F07D144F48074B9694D
:108FF0006D1C0E9888478246761EE00501D52D210E
:1090000000E02B2108F8011BCDF82C8021E00DF1A8
:109010002901761E44F4007488450CD2AAF1300070
:1090200010F0FF0088F8000002D10B99884509D99B
:1090300008F1010806E0E00501D5244801E042F20C
:109040000F708146B9696D1C0E98884782460F984B
:109050000560002E04DD50460DF072FF0028D6D1C9
:10906000F9690E988847FF208BF8000088F8000007
:109070000020069007904B466A4608A906A8FFF70D
:109080008BFEA00502D46FF001002AE714F0240F34
:109090000AD0E00714D1DDE906123868031D3B60F1
:1090A0000068C0E900120BE0DDE90601FFF776FC7D
:1090B0000146E00704D13868021D3A60006801608B
:1090C00028460EE7000024400000F03FF1D8FFFFE3
:1090D000426842B1016811F8013B23B1521EC0E958
:1090E0000012184670470121C160881E704742680F
:1090F0005AB1C368016843B983688B4205D0491EE1
:10910000521CC0E90012002070474FF0FF3070473A
:109110002DE9F04D00231A461B1A8A4103DB00207B
:109120000146BDE8F08DC1F30A52C1F3130141F4C9
:1091300080154FF0000BD10702D100186D41521E6F
:109140000027044640F2FF11384601EB620A3E4612
:109150008046024600204FF48011FFF791FCC219AF
:109160007141BB1846EB0100B4EB030C75EB000C2E
:1091700004D3E41A65EB000517460E46241908F1DE
:1091800001006D4180463428E3DDF91946EB060005
:10919000091BA84103D24FF0FF32134601E0002221
:1091A00013461BEB070046EB0A51BDE8F04DFFF7F5
:1091B0005EBD0EB540F2334202920022CDE900229C
:1091C0001346FFF763FD03B000BD70B58C1810F8AF
:1091D000015B15F0070301D110F8013B2A1106D1FC
:1091E00010F8012B03E010F8016B01F8016B5B1E16
:1091F000F9D12B0705D40023521E0DD401F8013BF1
:10920000FAE710F8013BCB1A921C03E013F8015B5C
:1092100001F8015B521EF9D5A142D8D3002070BDE0
:109220004268024B1A400A4342607047FFFD3FFF0D
:10923000426822F01F020A43426070474162826224
:1092400070476FEA1121016070470029816802D0E0
:1092500041F0010101E021F001018160704700004F
:10926000084B10B5D3F8042307490A40D0E900148D
:109270002143D0E90240044321431143C3F80413BE
:1092800010BD000000200140E030FCFF0021016023
:1092900041608160C16070470029816802D041F45B
:1092A000807101E021F4807181607047002981683C
:1092B00002D041F4007101E021F400718160704737
:1092C00030B50246002053680C0A01258D40116814
:1092D0002B40214202D0002B00D0012030BD0000E5
:1092E0002DE9F05FDFF890914FF4837841464846CE
:1092F000FFF7E6FFDFF884A1DFF884B1614F624D2C
:10930000624C42F21076002836D041464846FFF7BC
:1093100098FF0021504608F03EFE0021584608F014
:109320003AFE206890F83810490720D5808EC00496
:109330001DD438680EF01CFC814628684FF4805319
:1093400090FBF6F106FB11012068426B50A00DF076
:10935000FFFB286890FBF6F106FB11012068B0F9CD
:109360003C2053A00DF0F4FB48460EF001FC2068B1
:10937000416B41F480514163DFF8489141464846D2
:10938000FFF79EFF002836D041464846FFF759FFB9
:109390000021504608F0FFFD0021584608F0FBFD73
:1093A000206890F83810490720D5808EC0041DD45D
:1093B00038680EF0DDFB814628684FF4805390FB3F
:1093C000F6F106FB11012068426B31A00DF0C0FBE5
:1093D000286890FBF6F106FB11012068B0F93C20EB
:1093E00033A00DF0B5FB48460EF0C2FB2068416B80
:1093F00041F480514163DFF8D09041464846FFF781
:109400005FFF002836D041464846FFF71AFF00218B
:10941000504608F0C0FD0021584608F0BCFD206809
:1094200090F83810490720D5808EC0041DD43868C4
:109430000EF09EFB074628684FF4805390FBF6F130
:1094400006FB11012068426B11A00DF081FB28681A
:1094500090FBF6F106FB11012068B0F93C2014A046
:109460000DF076FB38460EF083FB2068416B41F42B
:1094700080514163BDE8F09F0020014000000140A1
:1094800000040140DC0200201C03002050000020EA
:109490003A25303464206572726F7220253034585A
:1094A0002C253034582C207365740D0A3E000000C2
:1094B0003A25303464207374617473202530345835
:1094C0000D0A3E00002101400022014001238B4093
:1094D00041680AB1194300E09943416070470000B8
:1094E00030B542680F4B0C791A400B6842EA0422EF
:1094F0001343436082680C4B4D791A40D1E9034312
:1095000023438C6844EA4504234313438360C26ABF
:10951000097D22F47002491EC9B242EA0151C162BA
:1095200030BD0000FFFEFFFCFDF7FFC070B5072453
:1095300009290AD9C568A1F10A0606EB4606B44016
:10954000A543B3401D43C56007E0056901EB410633
:10955000B440A543B3401D4305611F23072A09D228
:10956000446B521E02EB820293409C4391400C4399
:10957000446370BD0D2A09D2046BD21F02EB820234
:1095800093409C4391400C43046370BDC46A0D3A00
:1095900002EB820293409C4391400C43C46270BD35
:1095A000816841F080418160704700210160017154
:1095B00041718160C1600161012101757047000046
:1095C000F0B50E4D002400BF04EB440655F836609C
:1095D0001EB1641C142CF7D3F0BD04EB440605EB5C
:1095E000C60400272761064F3F681F44A76045F85F
:1095F0003600E36062616160F0BD00009800002009
:109600001C03002070B501217F2006F0CFFD5C21F6
:109610000120FEF77FFE444C002164222065C180BA
:10962000018101854281C2830123438040F6B83223
:10963000028482804FF47A75058003868184C18418
:1096400041840C2343820382C282828202220283EB
:109650004283C38183833C22A0F84820A0F85410A1
:10966000A0F85610A0F8581004F006FD4FF4612041
:1096700004F09AFF2D4D286004F09CF904F064FD7D
:109680004CF25031582004F021FC29490860002098
:1096900004F038FB2749086008F0A0F90021206D8C
:1096A00007F0AAFF206D07F005FB4FF496700DF050
:1096B000DDF804F0D1FB28680EF05AFA08F0B0F992
:1096C0007C2006F00DFE01281CD07D2006F008FE4F
:1096D000012820D07E2006F003FE01281DD07B202B
:1096E00006F0FEFD01281AD07A2006F0F9FD00BF31
:1096F00006F0A4FD10A011F029FDBDE87040002087
:109700000EF036BA0F4810490068B0FBF1F10FA017
:109710000DF01EFAECE714A002E018A000E01CA077
:109720000DF016FAE4E7000000000020D40200204B
:10973000CC020020BC020020406366672E696E697F
:109740000D000000E405002040420F000D202E2EE9
:109750002E205357522072657365742C2025644D5A
:10976000487A0D0A3E0000000D202E2E2E2049576B
:1097700044472072657365740D0A3E000D202E2E3D
:109780002E20575744472072657365740D0A3E00BA
:109790000D202E2E2E20706F776572206F6E207236
:1097A000657365740D0A3E0038B50F4D002400BF87
:1097B00004EB440055F8301089B105EBC000C268D5
:1097C000002A07DB026900924369426807A00DF096
:1097D000BFF904E04369426809A00DF0B9F9641CBF
:1097E000142CE5D338BD0000980000200D0A253068
:1097F00038582C253038582C25732C25640000004F
:109800000D0A253038582C253038582C25732C2D2E
:109810002D2D000070B5154801684A1C0260142AFD
:1098200001D300220260114A01EB4100121D52F8DF
:109830003010002919D002EBC004E668002E14DBBA
:109840000B4DA0682A6890420FDC4FF0FF30E060BB
:109850002868206160680068884720692968081ABC
:10986000C4E9036028683044A06070BD9400002003
:109870001C03002070B50022094C154602EB420380
:1098800054F83360864206D104EBC30676688E42F4
:1098900001D144F83350521C142AEFD370BD00009C
:1098A00098000020074800680EF062F9064800683A
:1098B00042F2107190FBF1F201FB120103A00DF0D6
:1098C00047F9FEE7D40200201C0300203A2530347B
:1098D00064204275734661756C745F48616E646C98
:1098E00065720D0A3E00000000B585B06A46002191
:1098F000054800F05DF905481422694600680068D3
:109900000DF0EDF905B000BD00640040BC02002080
:109910000248016841F0040101607047046400409E
:109920000A4800B5006885B01422406869460DF009
:10993000C0F90100064804D0694600F091F905B06D
:1099400000BD0022012100F0B7F8F8E7BC020020BA
:109950000064004000B585B06A460021054800F06B
:1099600027F9054814226946006800680DF0B7F928
:1099700005B000BD00680040BC020020024801683C
:1099800041F0040101607047046800400A4800B5D6
:10999000006885B01422406869460DF08AF901001C
:1099A000064804D0694600F05BF905B000BD00220E
:1099B000012100F081F8F8E7BC02002000680040B7
:1099C000094910B588424FF0010101D14C0601E070
:1099D0004FF08064204606F00DFC2046BDE81040A4
:1099E000002106F007BC000000640040F0B5827A58
:1099F000012191402E4A136843F0010313602C4B60
:109A00001C331C688C431C60294D067B294C0C358B
:109A1000A6B92E688E432E604688C78846EA074658
:109A2000877A04EBC707C7F840660688878846EA46
:109A30000746877A04EBC707C7F84466067B012E02
:109A400012D12E680E432E60867A056804EBC60696
:109A50004FEA3545C6F84056867A456804EBC60499
:109A60004FEA3545C4F84456114CC57A241D002DE3
:109A7000256806D00D4325600D4C0589143415B1B9
:109A800004E08D43F7E725688D4325600589012DA6
:109A900002D125680D432560407B012802D118685A
:109AA00008431860106820F001001060F0BD00004D
:109AB0000066004000600040002A426901D00A436D
:109AC00000E08A434261704710B50368002223F02A
:109AD00002030360036843F0010303604FF6FF7362
:109AE00000E0521C4468E40701D19A42F9D142686F
:109AF000D2073ED08A79012A02683CD022F0800247
:109B00000260CA79012A026838D022F0400202605D
:109B10000A7A012A026834D022F0200202604A7ACE
:109B2000012A026830D022F0100202608A7A012AEB
:109B300002682CD022F008020260CA7A012A026868
:109B400028D022F0040202608A78CC78920742EA98
:109B500004620C7942EA04424C79098842EA0452D0
:109B6000491E0A43C261016821F001010160002120
:109B700014E0002010BD42F08002C1E742F0400234
:109B8000C5E742F02002C9E742F01002CDE742F0FB
:109B90000802D1E742F00402D5E7491C4268D20727
:109BA00001D09942F9D14068C007E2D1012010BD2F
:109BB00010B500EB0113D3F8B04114F00404147293
:109BC000D3F8B04134D0E408C2F80440D3F8B0412F
:109BD00004F002045472D3F8B44104F00F049472F8
:109BE000D3F8B441240AD474D3F8B841D472D3F86A
:109BF000B841240A1473D3F8B841240C5473D3F831
:109C0000B841240E9473D3F8BC41D473D3F8BC414B
:109C1000240A1474D3F8BC41240C5474D3F8BC3116
:109C20001B0E937439B1016941F02001016110BD2F
:109C3000640D1460CAE7C16841F02001C16010BD25
:109C400000218171C171017241728172C172817092
:109C5000C17003210171022141710121018070470E
:109C600030B50246002093685B0108D4906800017B
:109C700001D5012003E09068C00037D5022002EB37
:109C80000012D2F8803103F00103C2F880310B7A60
:109C900073B3D2F880414D681C434B7A43EAC50345
:109CA0001C43C2F880418B7A03F00F038B72D2F809
:109CB000843123F00F03C2F88431D2F884318C7AD6
:109CC0002343C2F88431CB7ACC6843EA0423C2F838
:109CD0008831CB7B096943EA0121C2F88C11D2F8A3
:109CE000801141F00101C2F8801130BD042030BD67
:109CF000D2F880314C7A23430C8843EA4453C2F8AB
:109D00008031D0E72DE9F0412648DFF89C80274ECE
:109D1000A2B00168C8F800103068816B41F40011EE
:109D2000816323A00CF0CAFD0D2000907623B022A1
:109D300027A101A80CF0D2FD01A800F0ADFD01AFF4
:109D40000025184810F06CF90446401C0BD0052C77
:109D500009D007EB4500224621A1C01C0CF0BEFD36
:109D60006D1C082DEDDB002D02DD01A800F094FD37
:109D7000FFF750FD052CE3D1B0221BA101A80CF088
:109D8000ADFD01A800F088FD3068816B21F4001161
:109D90008163002116A0C8F800100CF08FFD22B0DE
:109DA000BDE8F08118030020DC02002050000020F4
:109DB0000D0A2072656D6F746520636F6E736F6C32
:109DC00065206F70656E2E2E2E200D0A3E0000005D
:109DD0003E253032582530325825303258000000A8
:109DE00025303258000000003E2530325800000077
:109DF0000D0A202E2E2E2E72656D6F746520636FF6
:109E00006E736F6C6520636C6F7365640D0A3E0042
:109E100010B50022044B03E050F822401C60521C95
:109E20008A42F9D3186810BD003002400149012070
:109E300088607047003002400FB4142270B588B0BB
:109E400038496846FEF7FFF9374C0C9808B10DAD5C
:109E50003EE036480068206408B070BC5DF814FB32
:109E600001CD059011F8012B05A80C91582A18D0A6
:109E700006DC2E2A0BD0452A11D0502A28D10CE01E
:109E8000632A12D0692A14D0772A21D10FE0142234
:109E900068460599FEF7D7F91AE0402003E0432011
:109EA00001E09DF81400009012E0002102E0012181
:109EB00000E003210DF10B029DF80A6010F8013B50
:109EC000B3549DF80A305B1C8DF80A30491EF3D25A
:109ED0000C9908780028C3D1206CD8B10DF048FE49
:109EE000206413A000990CF033FE00256E4606E0B6
:109EF00070192E21C27A11A00CF02AFE6D1C9DF85B
:109F00000A00A842F4DC0FA00CF022FE206C0DF039
:109F10002FFE20640C4814226946006840680CF04B
:109F2000DEFE99E7DCB401080000002018030020E1
:109F3000253032582E3C3C2E000000002563253091
:109F4000325800000D0A3E00BC020020044A0123E2
:109F50008340106809B1184300E0984310607047CF
:109F60000074004010B501214C07204606F042F96C
:109F70002046BDE81040002106F03CB90549002804
:109F8000086802D040F0030001E020F00300086000
:109F90007047000004740040044908B501EB9000CC
:109FA0002C300090006880B208BD000000740040B2
:109FB00030B5084C236840F6FE7282409343D1E9E5
:109FC00000252A43D1E902510D432A4382401A4316
:109FD000226030BD00740040082805D042EA0141EB
:109FE000034A10440162704742EA0121F8E7000089
:109FF000007400400021016041608160C1607047D1
:10A0000010B50A460C0601F07F0303EB830100EB59
:10A01000C10102D501F58E7101E001F55D71D20932
:10A020000B704A700BF0E0F8002010BD0A4610B526
:10A03000090602F07F0306D503EB830100EBC101A3
:10A0400001F58E7105E002EB820100EBC10101F523
:10A050005D7100248C700B70D2094A700BF0ABF864
:10A06000002010BD10B50A0604D501F07F010BF0E9
:10A07000E9F901E00BF0CAF9002010BD70B50C46FB
:10A080000E0601F07F0505EB850100EBC10102D54D
:10A0900001F58E7101E001F55D71E4090D704C7000
:10A0A0008A60CB7000D0CD80022B01D100220A71D2
:10A0B0000BF058F8002070BD10B501F07F0404EBE0
:10A0C000840100EBC101C1F88833C1F8802300236B
:10A0D000C1F88C3381F8753381F87443C37801F586
:10A0E0005D71012B00D10A6114F0FF0F03D00BF05A
:10A0F000ADF8002010BD0AF0C7FFFAE700690022A2
:10A1000061F30A1201681143016070470A4610B5F5
:10A11000090602F07F0306D503EB830100EBC101C2
:10A1200001F58E7105E002EB820100EBC10101F542
:10A130005D7101248C700B70D2094A700BF06EF8BF
:10A14000002010BD70B511F07F0404EB840100EB1A
:10A15000C1014FF0010581F81D5181F81C41C1F882
:10A160002821C1F82C2101F58E714FF00002C1E9C0
:10A17000053203D00BF06AF8002070BD0AF084FFAE
:10A18000FAE700002DE9F041064600250BF0DEFA63
:10A19000074655E0F80751D03069EAB20369416BD0
:10A1A000D14006EB820201F00101926943EAC1113C
:10A1B00094680C40E1071AD00124426B04FA05F1BF
:10A1C0008A43426306EB8500806984601F48E9B2D8
:10A1D0000068426830469047F078012807D135B9C9
:10A1E00096F81101042802D130460AF0A9FF200791
:10A1F00004D506EB8500082480698460E00604D558
:10A2000006EB8500102480698460600604D506EBA7
:10A210008500402480698460A00704D506EB850092
:10A22000022480698460200608D52946304600F063
:10A2300067F906EB85018020896988607F086D1CBD
:10A24000002FA7D10120BDE8F08100000404002008
:10A250002DE9F041064600240BF07EFA0746DFF8B0
:10A26000988043E0F8073FD0E1B230460BF07AFA2D
:10A270000546C00725D006EB84000125416D8D60A1
:10A28000F17801290CD1406D016904EB840006EBE3
:10A29000C000C1F31201D0F87C23511AC0F88C130E
:10A2A000D8F80000E1B2026830469047F078012803
:10A2B00007D134B996F81101052802D130460AF0C9
:10A2C0003FFFA80704D506EB84000225406D85609A
:10A2D000280709D5D8F8000081683046884706EB82
:10A2E00084010820496D88607F08641C002FB9D163
:10A2F0000120BDE8F08100000404002070B506468E
:10A30000C068816921F010018161F068056A05F07B
:10A310000F0000EB800006EBC004C5F3434004F5DA
:10A320005D74072821D2DFE800F0202004202020DF
:10A33000150047F6F070054217D0C5F30A152A46F6
:10A340003046E1680BF01FFAE0682844E060A0693D
:10A35000284409E0082206F2CC5130460BF013FAEB
:10A36000A069C5F30A110844A061F068816941F051
:10A3700010018161012070BD38B5044600208DF8C0
:10A38000000094F812018DF800001548006841693A
:10A390002046884720698068E2684FF40061516177
:10A3A000A17AD1B1C00718D094F81501012814D1B1
:10A3B0009DF80000032810D1D4F80C01016841F089
:10A3C00001010160D4F80C01016841F00301016052
:10A3D0000448016841F006010160012038BD000019
:10A3E0000404002010ED00E070B50446006900256B
:10A3F0000126416821F001014160294620460BF009
:10A4000021F80020FF2106E004EB800293699960A7
:10A41000526D9160401C62788242F5D821694FF0FC
:10A42000FF3088612846216966F30F0066F31F40FC
:10A43000C861216945F00B004861216945F00B00B6
:10A4400008612069016821F4FE61016020460AF07C
:10A4500077FEE1684FF48050486103480068016965
:10A4600020468847012070BD0404002070B50446D2
:10A470000BF0AEF90122002384F8122184F8143184
:10A480001946402511E000BF01EB810004EBC0003C
:10A4900080F81D2180F81C11A0F8221180F81F31CE
:10A4A000C0E94953491CC0F8303160788842EBD884
:10A4B000002110E001EB810004EBC00282F875334B
:10A4C00082F87413A2F87A1382F87733C2E9DF5363
:10A4D000491CC2F8883360788842EBD820460AF0DD
:10A4E00091FD20460AF036FC002120460BF0D0F901
:10A4F00020460AF06FFC2046BDE870400AF061BFBC
:10A500002DE9F0470E46054601EB860005EBC00439
:10A51000D4E94C01421AD4F8240104F58E74904217
:10A5200000D20246D21C970805EB860923E000BF43
:10A53000A0EB0108A168414500D2884608F103005C
:10A5400087081FFA88F3F2B22846E1680CF09EF8FB
:10A55000E16801EB0800E060A16901EB0800A0617F
:10A560006169884207D321780120884029694A6BB4
:10A5700082434A630BE0D9F81800806980B2B84280
:10A5800005D9D4E90501814201D20028D0D10120AA
:10A59000BDE8F087002008F015B80000074A904297
:10A5A00001D2074801E005481038064A8B0001EA4D
:10A5B000020101D5C160704781607047106402409C
:10A5C000006002407D0F7D0F074A904201D207488C
:10A5D00001E005481038064A8B0001EA020101D566
:10A5E000C1607047816070471064024000600240A3
:10A5F0007D0F7D0F0029016802D041F0010101E0CB
:10A6000021F00101016070472DE9F04190B005464D
:10A61000684600F02EF90121880505F0C7FDDFF836
:10A620008480404600F042F81F4F4FF00066CDE9AD
:10A630000067686800246946006802904020CDE900
:10A640000304C002CDE90940C011CDE905400894DA
:10A6500007940D9440460E9400F0DAF8012140462C
:10A66000FFF7C8FFDFF83C80A8F17808404600F00B
:10A670001DF8CDE90067286869460068CDE9020445
:10A68000F01404900990404600F0C2F801214046C1
:10A69000FFF7B0FF0122C021381F08F075F810B095
:10A6A000BDE8F081B8640240041001402DE9F04398
:10A6B000016821F0010101600021016041608160B9
:10A6C000C1600161212141613C493C4A3D2510396D
:10A6D000904202D18D60BDE8F083384A4FF4746631
:10A6E0001832904201D18E60F5E7344A4FF4741766
:10A6F0003032904201D18F60EDE7304A4FF0746CF8
:10A700004832904202D1C1F808C0E4E72B4B2C4AF2
:10A710006033984201D1CA60DDE7284C294B783478
:10A72000A04201D1CB60D6E7DFF89080264C08F13B
:10A730009008404501D1CC60CDE7DFF880804FF034
:10A740003D5908F1A808404502D1C1F80C90C2E774
:10A750001E49DFF878800839404501D10D60BAE71D
:10A760001A4D1835A84201D10E60B4E7174D3035A7
:10A77000A84201D10F60AEE7144D4835A84202D17E
:10A78000C1F800C0A7E7114D10496035091FA84264
:10A7900001D10A609FE70D4A7832904201D10B60E7
:10A7A00099E70A4A9032904201D10C6093E7074A38
:10A7B000A83290428FD1C1F800908CE7106002401F
:10A7C0003D000020400F002000003D2010640240AA
:10A7D000014600200968C90700D001207047406881
:10A7E00080B270470B0607D5436912B143F080036E
:10A7F00001E023F080034361802908D0002A026829
:10A8000001F01E0101D00A4300E08A430260704754
:10A8100030B50368124ACC6813400A682243D1E974
:10A8200005452C432243CC6922430C6A22434C6ADF
:10A8300022438C6A22434C6B22438C6B22431A4383
:10A840000260426922F00703D1E90B2422431A4334
:10A8500042610A6942604A6882608968C16030BDAD
:10A860003F801CF00AB101617047C16070474160D0
:10A8700070470021016041608160C16001614161F8
:10A880008161C161016241628162C16201634163B0
:10A8900081637047704700002DE9F04F93B00500C9
:10A8A0001FD028780027DFF8E8B3FA4CFA4E4FF0B3
:10A8B000FF384FF0663A562856D02EDC3F2801F07C
:10A8C000108219DCDFF8D483F54E2E2876D00CDC0C
:10A8D000212874D0232873D02B2872D02D2871D131
:10A8E000FEE3F0A00CF034F9FBE33A286BD03C28EF
:10A8F0006AD03E28F3D150E14C286ED006DC4028C7
:10A900006CD0422843D04428E9D1B4E050287DD00F
:10A9100053287CD05528E2D1F4E37028F7D014DC1A
:10A92000642875D008DC572859D0582871D0612880
:10A9300070D06228D3D168E36528D5D02527642656
:10A94000662868D06928CAD1DEE371384FF6FF79EE
:10A95000082837D2DFE810F09C034A01CB04360008
:10A96000BC0708007C014F070121080305F01EFC0D
:10A97000FFF75CFACC48CD49081A8108CA48FFF7AE
:10A9800047FA0F220090CAA30221CCA0BDE3681CA5
:10A990002C2205A910F056FB0490002812D00128A3
:10A9A00013DD102200210698FDF7C2FC0446102298
:10A9B00000210598FDF7BCFC047095E785E0A6E34F
:10A9C000B4E1A5E3DEE0A4E3B1E0102200210598A4
:10A9D000FDF7AEFC0178BEA025E027E09AE3681CF5
:10A9E0002C2205A910F02EFB04900028D6D00128B7
:10A9F00012DD102200210698FDF79AFC0446102271
:10AA000000210598FDF794FC04806DE7FFE12CE040
:10AA1000CDE280E380E380E3102200210598FDF77A
:10AA200087FC0188ACA00CF093F85DE7681C2C2231
:10AA300005A910F007FB04900028AFD001280CDD19
:10AA4000102200210698FDF773FC04461022002115
:10AA50000598FDF76DFC046046E71022002105987B
:10AA6000FDF766FC01689EA0DDE7284610F05AFA63
:10AA700013B0BDE8F08F681C2C2205A910F0E2FA93
:10AA8000049002287EDB032803D107980078692808
:10AA90000DD04446414606980FF0D3F90490214664
:10AAA00005980FF0CEF9049910F006FA1CE7444619
:10AAB000414606980FF0C5F90490214605980FF01D
:10AAC000C0F904990FF0B4FA0EE7142286490EA8D3
:10AAD000FDF7B9FB00240EAF6D1C09E02819022117
:10AAE0000FF0AFF904EBD47107EB6101A41CC8723D
:10AAF0002846FDF7E2FBA042F0D804EBD4704008F2
:10AB00008DF842000022022144464046FEF7D4FF61
:10AB1000306814220EA900680CF0E1F8012202212D
:10AB20002046FEF7C9FF0020FFF786F9DCE6142176
:10AB30000EA8FDF7A1FB6D1C022128460FF081F93C
:10AB400000240EAFAD1C0E9009E0281902210FF071
:10AB500078F904EBD47107EB6101A41CC872284694
:10AB6000FDF7ABFBA042F0D804EBD47040088DF8A1
:10AB700042000022022144464046FEF79DFF306815
:10AB8000006800E083E014220EA90CF0A8F801226E
:10AB900002212046FEF790FFA6E614210EA8FDF73D
:10ABA0006BFB6D1C022128460FF04BF900240EAF01
:10ABB000AD1C0E9009E0281902210FF042F904EBB8
:10ABC000D47107EB6101A41CC8722846FDF775FB20
:10ABD000A042F0D804EBD47040088DF842003068F1
:10ABE00014220EA940680CF07AF87DE6681C2C222D
:10ABF00005A910F027FA0490002848D0012803DDA9
:10AC00000698FDF7CDFB00E001200D904146059828
:10AC10000FF017F90490FF2805DD09EA0021C0F3C1
:10AC200007200143049104A90D9A306810F06CF8D4
:10AC300060B32EA00BF08CFF0D980122C1008A405A
:10AC40000499521E0A40410029A00BF081FF4BE6F7
:10AC5000681C2C2205A910F0F5F90490022816D1E1
:10AC60004446414605980FF0ECF80490FF2843DD78
:10AC700009EA0021C0F30720014304912146069808
:10AC80000FF0DFF8049941EA00403CE04BE009E2B4
:10AC9000DEA3EA6050000020CC02002000680040E3
:10ACA000BC0200200D0A3E000080000800000408DD
:10ACB0004A616E2032392032303139002025642E2D
:10ACC000253032642025732C203C253038583E0036
:10ACD0002C253032580000002C253034580000005C
:10ACE0002C2530385800000010B501082C00000059
:10ACF00025302A5800000000214606980FF0A1F8E0
:10AD0000049941EA002004900598FDF7D6FA44081A
:10AD10000698FDF7D2FA04EB500204A9306810F04F
:10AD200037FB002893D10421FCA07CE6681C2C2270
:10AD300005A910F087F9FE4C4FF48061049010B122
:10AD400002280AD0AEE104EB8002578024F820707C
:10AD5000401C04908842F6DBC6E50120CDF81000C7
:10AD600034F8202022B1401C04908842F8DBBBE577
:10AD70000598FDF715FB0A25401D90FBF5F000EB4B
:10AD800080004000002809DD0598FDF709FB401D03
:10AD900090FBF5F000EB8000400000E000200499FB
:10ADA00024F821000698FDF7FBFA002803DD069839
:10ADB000FDF7F6FA00E0002005B2049804EB8001EC
:10ADC0004D8034F92000FDF76DFD06460F462846FC
:10ADD000FDF768FD0022D74B0FF00CFA32463B46D8
:10ADE000FDF75AFC0022D44BFDF7C8FC0022D34BE0
:10ADF000FDF7ABFB06460D462068FDF753FD3246D6
:10AE00002B46FDF7A2FBFDF77FFD20606CE56D1C76
:10AE10002C2205A928460FF0D6F90490F0BB26682D
:10AE2000B6F92800FDF73EFD5246C54BFDF734FC50
:10AE30006FF00B02FDF711FD6FF00102FDF70DFD44
:10AE40005A46C04BFDF79AFC0022BC4BFDF77DFB38
:10AE5000FDF75AFDB6F90E1048434FF4167190FBFA
:10AE6000F1F2B6F90A10B8A00BF072FE2068B0F942
:10AE7000546016B9B0F8561081B1B0F95600FDF71C
:10AE800003FDDFF8EC924946FDF721FBFDF75BFD82
:10AE9000074688463046FDF7F7FC00E00BE04946E0
:10AEA000FDF715FBFDF74FFDCDE9007802460B4697
:10AEB000B0A00BF04DFE049800284ADD0598FDF780
:10AEC0006FFA216848810498012842DD06980CF049
:10AED0006FFE0022B24BFDF749FD2CD82068B0F977
:10AEE0002800FDF7DFFC5246954BFDF7D5FB6FF0D0
:10AEF0000B02FDF7B2FC6FF00102FDF7AEFC5A4603
:10AF0000904BFDF73BFC00228C4BFDF71EFBFDF741
:10AF1000FBFCFDF7B9FCFDF716FD06460F4606984B
:10AF20000CF046FE00229F4BFDF7B6FB32463B4637
:10AF3000FDF724FC06E006980CF03AFE0022994B3F
:10AF4000FDF7AAFBFDF7E0FC2168C88104980328FF
:10AF50000AD015F8010C50280AD001202168087386
:10AF60000498042806D08FE00798FDF719FAF5E752
:10AF70000720F3E707980CF01BFE8B4D00222B46B1
:10AF8000FDF78AFBFDF7C0FC2168A1F85400089882
:10AF90000CF00EFE00222B46FDF77EFBFDF7B4FC05
:10AFA0002168A1F85600084603F084FF6CE0681C95
:10AFB0002C2205A90FF007F90490002814D063DDB6
:10AFC0000598FDF7EDF92168C883049801285BDD39
:10AFD00006980CF0EDFD0022724BFDF75DFBFDF7CE
:10AFE00093FC216888834FE02468B4F91C00FDF7C6
:10AFF0004BFC6E49FDF76BFAFDF7A5FCB4F91E405A
:10B0000002460B4621466AA038E0681C2C2205A99E
:10B010000FF0D9F80490002828D074DD0598FDF7CA
:10B02000BFF90028F9DD0598FDF7BAF921684880D5
:10B030000498012825DD0698FDF7B2F9216888807B
:10B04000049802281DDD0798FDF7AAF921680880F9
:10B050000498032815DD0898FDF7A2F921680886F1
:10B06000480100F1085080F81C7A0DE02068B0F922
:10B070000030B0F90420B0F9021057A00BF068FDC1
:10B0800032E4216801200886206805F013FE2BE4D5
:10B09000681C2C2205A90FF096F85A4D049010B1A7
:10B0A000052833D0E1E358A00BF052FD0026C5E09F
:10B0B0002068B0F92800FDF7F5FB5246204BFDF75C
:10B0C000EBFA6FF00B02FDF7C8FB6FF00102FDF722
:10B0D000C4FB5A461B4BFDF751FB0022174B01E006
:10B0E000F5E3B7E0FDF731FAFDF70EFCB7F9021012
:10B0F00048434FF4167100F5967090FBF1F2B7F9E2
:10B10000061091E0F3E3D2E133E316E1A3E0EFE3CD
:10B11000EFE3EFE3EFE385E396E196E3202E2E2EB7
:10B12000493243206572726F7228253032582900E7
:10B130006406002000000840006A18410000E03F5B
:10B1400066660A40F09A6E3F0D3E7028756C736516
:10B15000292020542C552020202020202020202071
:10B16000202E2E2E20256475732C25645600000099
:10B17000000020410D0A3E71287377636829202062
:10B1800064656C61792C77696474682020202E2EA8
:10B190002E20252E316675732C252E316675730091
:10B1A0000000F03F00C08240000024400000164430
:10B1B0000D3E6428656C6179292020542C5057205D
:10B1C0002020202020202020202E2E2E20256475B7
:10B1D000732C252E326600000D3E62287572737442
:10B1E0002920204E2C6C656E2C706572202020204A
:10B1F000202E2E2E2025642C256475732C25646D3D
:10B2000073000000140600200D3E71287368617001
:10B21000652920772C552C74642C746F2C747265FE
:10B2200066202E2E2E000000CDE90018B7F904305C
:10B2300035F91910FEA00BF08BFC761C06EB860985
:10B2400005EB4907B7F908005FEA000802D0082EAD
:10B25000FFF62EAF8CE20026A84600E0761C06EB37
:10B26000860708EB4705288930B10998FDF798F85B
:10B27000B5F908108842F1D10598FDF791F806EB71
:10B28000860228F812000698FDF78AF84FF4167126
:10B2900000FB01F62068B0F92800FDF703FB5246D9
:10B2A000E84BFDF7F9F96FF00B02FDF7D6FA6FF0F6
:10B2B0000102FDF7D2FA5A46E34BFDF75FFA00228E
:10B2C000E24BFDF742F9FDF71FFB96FBF0F008EBB0
:10B2D000470148800798FDF763F8A8800898FDF7B4
:10B2E0005FF8E8800998FDF75BF8288140E2681C68
:10B2F0002C2205A90EF067FF4FF47A7505287DD240
:10B30000DFE800F0031E273E660020683C214FF472
:10B310007A75B0F9162092FBF1F4B0F9142092FB83
:10B32000F1F3B0F91220B0F910006A4392FBF1F288
:10B33000684390FBF1F1C6A000940BF009FC17E202
:10B340000598FDF72DF800F00301206803F0D6FB07
:10B350000EE20598FDF724F8C0EB0010800090FB8A
:10B36000F5F0216808820698FDF71AF8C0EB001086
:10B37000800090FBF5F12068418206F0C9F8F7E102
:10B380000598FDF70DF8C0EB0010800090FBF5F07C
:10B39000216808820698FDF703F8C0EB00108000D2
:10B3A00090FBF5F0216848820798FCF7F9FF0A281E
:10B3B0007DDB0798FCF7F4FF642878DC0798FCF73E
:10B3C000EFFFC0EB001081002068C182818239E06C
:10B3D0000598FCF7E5FFC0EB0010800090FBF5F04E
:10B3E000216808820698FCF7DBFFC0EB00108000A4
:10B3F00090FBF5F021684882079800E0ACE0FCF78C
:10B40000CFFF0A28D4DB0798FCF7CAFF6428D4DCF6
:10B410000898FCF7C5FF0A28CADB0898FCF7C0FFAC
:10B420006428CADC0798FCF7BBFF2168C0EB00105A
:10B43000800088820898FCF7B3FFC0EB0010810001
:10B440002068C1820021EAE1681C2C2205A90EF0C7
:10B45000BAFE8C4D10B102287ED157E18A4F388850
:10B460008000FDF730FA4FF06632764BFDF714F9A5
:10B470006FF00B02FDF7F1F96FF00102FDF7EDF946
:10B48000DFF8C4A15A465346FDF778F9DFF8BC91BE
:10B4900000224B46FDF759F8FDF736FADFF8EC814C
:10B4A0000646B8F800008000FDF70DFA00E099E2CA
:10B4B0004FF06632634BFDF7EFF86FF00B02FDF7CC
:10B4C000CCF96FF00102FDF7C8F95A465346FDF773
:10B4D00055F900224B46FDF738F8FDF715FA0146FD
:10B4E000788840F24C425043000B0090B8F80200BC
:10B4F00033465043020B66A00BF02AFB70480068ED
:10B500008000FDF7CFF94FF066324E4BFDF7C4F8DF
:10B510006FF00B02FDF7A1F96FF00102FDF79DF945
:10B520005A465346FDF72AF900224B46FDF70DF81F
:10B53000FDF7EAF90646634800688000FDF7B2F9B6
:10B540004FF066323F4BFDF7A7F86FF00B02FDF7A7
:10B5500084F96FF0010200E087E1FDF77EF95A46B9
:10B560005346FDF70BF900224B46FCF7EEFFFDF7C3
:10B57000CBF90146544840F24C4240F24C4300683B
:10B580005043524A12685A43D31702EB1352121314
:10B590000092C21700EB1250021333464CA00BF07E
:10B5A000D7FAD5F82802FDF78EF94FF06632254B11
:10B5B000FDF772F86FF00B02FDF74FF96FF0010223
:10B5C000FDF74BF95A465346FDF7D8F800224B4693
:10B5D000FCF7BBFFFDF798F98600D5F82402FDF7CC
:10B5E00072F94FF06632174BFDF756F86FF00B0209
:10B5F000FDF733F96FF00102FDF72FF95A46534674
:10B60000FDF7BCF800224B46FCF79FFFFDF77CF9E5
:10B610002168830040F24C42B1F92400B1F92210B4
:10B6200050435143CA1701EB12510A13C11767E087
:10B630000D0A25642C25642C25642C25642C256496
:10B640000000000066660A40F09A6E3F0000E03F8E
:10B650000D3E7328696D6D657229206E202F2F2095
:10B6600074312C74322C66312C66322E2E25646E89
:10B67000732C25646E732C256475732C2564757387
:10B6800000000000002001409C02002098020020E1
:10B6900020200D3E61286463292020202055312C74
:10B6A00049312C55322C49322020202E2E2E202597
:10B6B00064562C2564412C2564562C2564410000D9
:10B6C000100000200C0000200400002008000020D2
:10B6D0000A0D3E61286463292020202069646C657E
:10B6E000202020202020202020202E2E2E202564E7
:10B6F000562C2564412C2564562C256441000000FD
:10B7000000EB11500113FEA0009616E60598FCF719
:10B7100047FE000340F24C4690FBF6F02168888417
:10B720000698FCF73DFE000390FBF6F1206800222E
:10B730004184818C2846FDF781FD2068FC4E002263
:10B74000818C3046FDF77AFD4FF4837421462846FC
:10B75000FDF777FD21463046FDF773FD01222146B6
:10B760002846FDF7B3FE012221463046FDF7AEFE26
:10B77000A9E2681C2C2205A90EF025FD10B10228B3
:10B7800073D11EE01020FEF707FC00EBC00101EBB7
:10B79000001040F2FF7505EB800040F6FF76B0FB2D
:10B7A000F6F40020FEF7F8FB00EBC00101EB0010FF
:10B7B00005EB8000B0FBF6F123462522DDA00097C3
:10B7C000BBE50598FCF7ECFDC0EB0030323090FB98
:10B7D000F6F084B20698FCF7E3FDC0EB003032309F
:10B7E00090FBF6F081B222460020FEF7F5FB012027
:10B7F000FEF7C4FB67E2681CFCF7D2FD012804D009
:10B80000022805D0042830D104E02068078304E032
:10B81000012000E00220216808830021206805F053
:10B82000EBFE50E2681CFCF7BBFD012804D00228A7
:10B8300005D0042819D104E02068478343E20120A1
:10B8400000E00220216848833DE2681C2C2205A903
:10B850000EF0B9FCC14DDFF80883DFF80893DFF87C
:10B8600008A3049028B1042819D0012013B0BDE822
:10B87000F08F2868D9F8003090FBF6F2D8F8000075
:10B8800090FBF6F12068B0F94200CDE90073CDE9F4
:10B890000270B6A0DAF800300BF05AF913E20598FE
:10B8A000FCF77EFD64214843C8F800000698FCF7C9
:10B8B00077FD6421484328600798FCF771FDCAF8BA
:10B8C00000000898FCF76CFDC9F80000FBE100E2FD
:10B8D00000273E46681C2C2205A90EF074FC58B1C6
:10B8E00001287DD002287CD003287BD18EE08BE11B
:10B8F000C7E1F2E1F9E1E8E12468B4F946003E3439
:10B90000C11700EB5171A54800EBE100FCF7CAFF3D
:10B910004FF06632A24BFCF7BFFE6FF00B02FCF754
:10B920009CFF4FF055329F4BFCF728FF4FF06632DB
:10B930009B4BFCF70AFEFDF731F8FDF704F80746CC
:10B94000B4F906008846C11700EB5170C010FCF72F
:10B95000A9FF4FF06632924BFCF79EFE6FF00B0290
:10B96000FCF77BFF4FF033328F4BFCF707FFFDF7FF
:10B9700015F8FCF7E8FF05460E46B4F90200FCF79F
:10B9800091FF4FF06632864BFCF786FE6FF00B029C
:10B99000FCF763FF6FF00102FCF75FFFDFF810B206
:10B9A000824A5B46FCF7EAFEDFF808A20022534613
:10B9B000FCF7CBFDFCF7A8FF8146B4F90000FCF7CB
:10B9C00071FF4FF06632764BFCF766FE6FF00B02AC
:10B9D000FCF743FF6FF00102FCF73FFF734A02E000
:10B9E0001CE017E02FE05B46FCF7C8FE0022534640
:10B9F000FCF7ABFDFCF788FF01468DE8E00109EBA1
:10BA0000D97042106CA00BF0A3F85CE10798FCF72A
:10BA1000C7FC07460698FCF7C3FC06460598FCF7EA
:10BA2000BFFC05461FB90A2095FBF0F047191EB967
:10BA3000032095FBF0F02E1AB5F5487F03D8AE42EF
:10BA400001DAAF4201DC022010E72846FCF72AFFAA
:10BA50000C22FCF702FF0222FCF7FFFEDFF850B1D8
:10BA6000524A5B46FCF718FEDFF8349152464B46CB
:10BA7000FCF784FEDFF83C8100224346FCF765FDBD
:10BA8000FCF742FF2168002208854FF48371574874
:10BA9000FDF71CFD3046FCF705FF0C22FCF7DDFE30
:10BAA0000222FCF7DAFE414A5B46FCF7F5FD5246FE
:10BAB0004B46FCF763FE00224346FCF746FDFCF7CD
:10BAC00023FF04463846FCF7EDFE0C22FCF7C5FECA
:10BAD0000222FCF7C2FE354A5B46FCF7DDFD52460A
:10BAE0004B46FCF74BFE00224346FCF72EFDFCF7CD
:10BAF0000BFF0146E01704EB9070C0F38F0277E074
:10BB00000A0D3E6128646329202020204973696D55
:10BB10006D2C492C55682C556C202E2E2E2025641A
:10BB2000412C2564412C2564562C256456000000C8
:10BB3000002101400D3E692844414329202020690D
:10BB4000312C69322020202020202020202E2E2E53
:10BB500020256425632C25642563000074000020E3
:10BB6000700000206C000020680000200D3E662858
:10BB7000616E2920202020546C2C54682C6D696E35
:10BB80002C6D61782C542E2E2025642C25642C25B8
:10BB90006425632C256425632C25640000F0FFFFD9
:10BBA00066660A405555D53F3333C33FDEA3EA608E
:10BBB000F09A6E3F0000E03F0D3E752862616E6BAB
:10BBC00029202055632C55632F322C32302C2D35F3
:10BBD000202E2E2E202564562C2564562C252E3101
:10BBE00066562C252E3166560000000000220140CA
:10BBF000C81701EB9070C0F38F013E48FDF71EFBA4
:10BC0000284605F035F831E688200D9002220DA96E
:10BC100030680FF079F888B30D9800B20AF05DFF34
:10BC2000FCF791FE02460B4633A00AF091FF8B20F1
:10BC30000D9002220DA930680FF066F8F0B10D9852
:10BC400000B20AF04AFFFCF77EFE02460B462EA029
:10BC50000AF07EFF97200D9002220DA930680FF0A8
:10BC600053F858B10D9800B20AF037FFFCF76BFE9D
:10BC700002460B4627A00AF06BFF24E0FFE70420F2
:10BC8000F4E50021084602F039FF024620681F2132
:10BC900049F64043B0F90A00CDE900014CF2011128
:10BCA0001FA0FEF7C9F8204964200AF0C5FD1F2235
:10BCB0001A211CA0FEF7C0F820680121400100F104
:10BCC000085080F880190020D0E5681C0BF086FF32
:10BCD000CCE5681C00F06EFAC8E5681C00F0EEFCCC
:10BCE000C4E5681C00F004FEC0E5681C00F01EF806
:10BCF000BCE50000002201400D3E56696E3D252E38
:10BD000031662C2000000000566F75743D252E31E1
:10BD1000662C2000506F75743D252E3166000000A2
:10BD20007777777758000000159800082DE9F041E3
:10BD3000ADF5D26D0DF2846189AC4FF4807650C1BF
:10BD4000002876D00178002972D020220DF5C96133
:10BD50000FF078F90446DDF84806FCF7AEFA8046A5
:10BD60000246F2A0DDF84816FCF7C5FAF04F0028AD
:10BD700070D04246EFA0DDF84816FCF7BCFA002868
:10BD80007BD04246ECA0DDF84816FCF7B4FAEC4D47
:10BD900000286ED04246EBA0DDF84816FCF7ABFA5F
:10BDA000002867D04246E9A0DDF84816FCF7A3FA60
:10BDB00000287DD04246E7A0DDF84816FCF79BFA44
:10BDC000002876D04246E5A0DDF84816FCF793FA45
:10BDD00000286FD04246E3A0DDF84816FCF78BFA46
:10BDE000002868D04246E1A0DDF84816FCF783FA47
:10BDF000002874D04246DFA0DDF84816FCF77BFA35
:10BE000000286DD04246DDA0DDF84816FCF773FA35
:10BE1000002877D04246DAA0DDF84816FCF76BFA26
:10BE2000002870D002200DF5D26DBDE8F08100E051
:10BE30007AE1D4A00AF08CFEFF2189A80CF07CFEE8
:10BE400020B989A9BE480DF094FB20B1CEA00AF01C
:10BE50007FFE69E111E089A8FCF72FFA204489A947
:10BE600010F8010C2F2806D0C8A000BF0AF070FE01
:10BE70005AE12CE048E0C6A0F8E7DDF84806FCF7F8
:10BE80008FFAC0B20CF036FE002827D1DDF8480644
:10BE9000FCF786FAAA49C0B224310DF0B7FA00289F
:10BEA0001CD1FF2189A80CF047FE002816D103E021
:10BEB00034E04DE053E05BE089A9A1480DF059FB67
:10BEC00000280BD1AFF29B10396848612CE1022C9D
:10BED00004D100219A480DF035FC78B1AAE0A7E022
:10BEE000B0E000BF0DF26C629549DDF84C060DF034
:10BEF000B3FE18B10DF025FD00287BD1286900287C
:10BF0000F0D111E1D7E008E1022C35D00DF24C6000
:10BF100003C80DF043FC00282ED105E1022C98D176
:10BF200001226846DDF84C160DF084FA002861D134
:10BF300094A00AF00DFE05E00CF0EFFD014695A07F
:10BF40000AF006FEDDE9020188426846F4D16CE0A1
:10BF5000022C79D1DDF84C060CF011FF05E0022C23
:10BF600072D1DDF84C060CF09BFD002842D1DBE0DD
:10BF7000022C02D0032C19D05CE03A21DDF84C06EB
:10BF8000FCF791F9411C01290DD008782F2800D128
:10BF9000491CC9A8FCF7A6F9C9A9DDF84C06FCF7AD
:10BFA00093F930B109E0DDF84C16F2E7DDF85016F0
:10BFB000EFE779A1C9A8FCF76AF9C9A8FCF77DF9F0
:10BFC000C9A9084410F8010C3A2804D1C9A8DDF821
:10BFD0004C16FCF75CF901226846DDF84C160DF0B2
:10BFE00029FA38B90A22C9A90DF224400DF022FA23
:10BFF000E0BB09E06CE068460DF0F4FD0DF2244171
:10C000000DF09CFE401C03D0DDE902018842F2D114
:10C01000DDE90201884248D068460CF075FD0DF25A
:10C02000244000BF0CF070FD52E00CF06DFD7BE091
:10C03000022C02D00120F6E606E0DDF84C0601F005
:10C0400071F8F0E6032C01DA0320ECE601226846E1
:10C05000DDF84C160DF0EEF9D0BB12220DF22440A3
:10C06000DDF850160DF0E6F9C9ACB8B16846D9E76D
:10C07000CDF88C4609E010220DF28C61FCF758F9DE
:10C08000C0B20DF224410DF0A6FAC9A8FCF715F9CB
:10C090000119DDF88C06891E8142ECD86A463146CA
:10C0A000C9A80DF0BBFD0028E2D168460CF02CFDBC
:10C0B0000DF22440B9E7022C0CD12148DDF84C16D2
:10C0C0000DF057FA20B900211D480DF03BFB08B1D7
:10C0D0000520A8E64FF6FF760DF275640DF26C614F
:10C0E00017480DF02FFB2869F0B1288CB04202D020
:10C0F000DDF8841600E0214629A00AF029FD9DF80C
:10C100007406C00603D528A00AF022FDE6E727A0A2
:10C11000DDF86C160AF01CFDE0E739682448486138
:10C120000020FEF7B9FB7EE600207CE63000000030
:10C13000180300203100000064656C657465000020
:10C140006416002072656E616D650000747970651B
:10C15000000000006D6B6469720000006364697226
:10C1600000000000636F70790000000066696C6574
:10C1700000000000666F726D6174000064697200F7
:10C180003E0000000D0A00003F3A2F0025732F00EB
:10C1900025730000256300005F436F707900000085
:10C1A0000D0A252D313673002F0000002564000094
:10C1B00099A800082DE9F04F0178ADF2944DFB4DA0
:10C1C000DFF8EC93FB4C42F2107A4FF0FF3802AFED
:10C1D00064296FD010DC4FF47A6646296BD006DCF8
:10C1E0003F2969D0442968D0452967D199E1502970
:10C1F0007BD06329F9D133E0712974D008DC4FF08A
:10C200000005692929D06C296ED06D29EDD172E124
:10C21000722933D07529E8D1202239460EF012FF59
:10C220000228E2D102F046FAE349C8200AF004FBF2
:10C230000398007866280AD0682802D0732805D1B0
:10C2400008E0DF49DD48086002F034FA31E202F02C
:10C250000DFA2EE202F01CFA2BE2DA48056028E221
:10C26000202239460EF0EEFE0228EFD10398007826
:10C270006E3801F047FDD44908601AE2206845F2A3
:10C28000A816818F41F08001818790F83810490706
:10C290001BD5406B304218D028680BF069FCD9F8E8
:10C2A0000010054691FBFAF220680AFB1211334692
:10C2B000426B04E0F1E131E0EBE06CE1FAE0C3A0B5
:10C2C0000AF046FC28460BF053FC2068416BB14352
:10C2D00041630121C54805F05EFE0121C44805F017
:10C2E0005AFEE6E101E086E07BE0002000F03AFC47
:10C2F000044601462522BFA00AF02AFC0A2C05DDCF
:10C3000030460AF0B3FA404600F02CFCC0A00AF018
:10C310001FFC4FF496700AF0A9FACAE120223946B0
:10C320000EF090FE022804DA03200DF2944DBDE8D1
:10C33000F08F03984FF48055007866281DD075283B
:10C3400001D00220F1E7B4A00AF002FC9A490520CE
:10C350000AF072FAB6480DF045FC411CF6D0792877
:10C360008BD10AA901200DF051F801212A46084677
:10C370000CF0BEFD002101202EE0AEA00AF0E8FB8B
:10C3800030460AF073FA8C4905200AF055FAA8489D
:10C390000DF028FC411CF6D07928A2D1ABA00AF000
:10C3A000D7FB00245FF0300606EBC40000F010FF5E
:10C3B000082814D0A8A000BF0AF0CAFB641C062CF1
:10C3C000F2DB97A900200DF021F82A460121002078
:10C3D0000CF08EFD002108460DF018F869E19FA0D1
:10C3E000EAE72C223946401C0EF02CFE014602A83A
:10C3F00001F0DCFD5DE12C223946401C0EF022FEEE
:10C40000F0B3974C3BE0414602980DF01AFDD4F88A
:10C410000012884231D1002592A00AF099FB002633
:10C42000A919605CC043C1B28FA00AF091FB761CD1
:10C43000102EF5DB0026A919605CC043C1B221397A
:10C440005E2904D2C1B271A00AF082FB02E083A08F
:10C450000AF07EFB761C102EEDDB1035B5F5007F63
:10C46000DADB83480AF074FBFDF7D4F970480DF06D
:10C47000B9FB411CF8D01B2807D004F5017400E07B
:10C4800004E0D4F80002401CBDD112E104F09EFB90
:10C490000FE12C223946401C0EF0D4FD012802D0B9
:10C4A00002281FD006E002983C210078312803D0F2
:10C4B00032280BD0012038E72068B0F90400C0EB27
:10C4C0000010800090FBF1F16A4808E02068B0F9A4
:10C4D0000400C0EB0010800090FBF1F1664804F00E
:10C4E000F9FAE6E00398FBF75BFF04460298FBF7D6
:10C4F00057FF2146F3E72C223946401C0EF0A2FDDF
:10C5000006460BE057F82600FBF74AFF216880003B
:10C5100000EB411000F1085080F8005A761EF1D26D
:10C52000C7E02C223946401C0EF08CFD06462FE059
:10C53000206890F83800400720D557F8260041467B
:10C540000DF07FFC2168496B084217D028680BF07A
:10C550000FFB834657F8260041460DF072FCD9F8D0
:10C560000010034691FBFAF220680AFB1211426B9D
:10C5700016A00AF0EDFA58460BF0FAFA57F8260022
:10C5800041460DF05EFC01462068426B8A434263DF
:10C59000761ECDD28DE026492C22401C09682960E8
:10C5A00039460EF04FFD0546012673E0DC020020FF
:10C5B0001C0300205000002015980008913B010842
:10C5C0007C030020CC020020BC0200203A2530343D
:10C5D00064206572726F7220253034582C253034F7
:10C5E000582C20636C6561720D0A3E00000001400A
:10C5F000000401400D0A3E5061636B696E67207351
:10C600006563746F72732E2E2E20256425630000DF
:10C6100020446F6E650000000D466F726D617420DE
:10C62000757362202E2E2E5B792F6E5D0000000048
:10C63000180300200D466F726D617420666C617383
:10C6400068202E2E2E5B792F6E5D000020657261B2
:10C6500073696E67200000003F0000002E0000009C
:10C66000000004080D0A00002530325820000000A8
:10C670000CBC0108EC190020EC960020002257F8B1
:10C6800025001146FBF754FE216806FA00F2886B7C
:10C69000904388636D1EF1D20BE0202239460EF0E4
:10C6A000D1FC022805D10398FBF77AFE02490AF073
:10C6B000C3F8002039E60000159800082DE9F04F76
:10C6C000017889B0764D01246E4669297DD007DC5A
:10C6D000744F44297AD0452946D0652904D11EE0FB
:10C6E0006D2905D0772930D0012009B0BDE8F08F41
:10C6F0002C223146401C0EF0A5FC07460CE000BF82
:10C7000056F82700FBF74CFE2968800000EB41102B
:10C7100000F1085080F8004A7F1EF1D2BDE02C22C3
:10C720003146401C0EF08EFC07460BE056F8270001
:10C73000FBF736FE2968800000EB411000F108503D
:10C7400080F880497F1EF1D2A7E02C223146401CA0
:10C750000EF078FC18B10098FBF722FE01E04FF4D0
:10C7600096700AF083F898E02C223146401C0EF0B7
:10C7700069FC04464FF0FF3853E000BF56F8240030
:10C7800041460DF05EFB45F2A811084207D000219A
:10C79000454805F000FC0021444805F0FCFB2868F2
:10C7A00090F83800400733D556F8240041460DF084
:10C7B00048FB2968496B08422AD138680BF0D8F940
:10C7C000834656F82400414601E044E02CE00DF099
:10C7D00038FBDFF8DC900346D9F8001042F2107AFB
:10C7E00091FBFAF228680AFB1211426B31A00AF0A1
:10C7F000AFF9D9F80010286891FBFAF20AFB121180
:10C80000B0F93C2033A00AF0A3F958460BF0B0F978
:10C8100056F8240041460DF014FB29684A6B10437A
:10C820004863641EAAD238E02F492C22401C0968B4
:10C83000396031460EF006FC074609E056F827003D
:10C84000FBF7AEFD04FA00F12868826B11438163A7
:10C850007F1EF3D221E02C223146401C0EF0F2FB69
:10C86000224D20B1012806D0022816D109E04CF251
:10C87000503158200EE0022100980DF0E2FA00211C
:10C8800008E00198FBF78CFD0446022100980DF0AA
:10C89000D8FA214601F01AFB2860002025E70000A5
:10C8A00050000020DC020020000001400004014094
:10C8B0001C0300203A25303464206572726F7220A8
:10C8C000253034582C253034582C207365740D0ACB
:10C8D0003E0000003A253034642073746174732084
:10C8E000253034580D0A3E0018030020CC020020E9
:10C8F0002DE9F05F86490278DFF810B208686D2AEA
:10C9000059D006DC232A3AD0612A35D0652A04D1D1
:10C9100059E0732A51D0742A02D00120BDE8F09F5B
:10C9200000242546D84616E008EB46072146BB887A
:10C930007A8878A00AF00CF938F81600BB88401CF9
:10C9400000EB8000400004EB50047A88214671A07F
:10C950000AF0FEF86D1C05EB450638F816100029A4
:10C96000E2D108EB4600611D30F8023C30F8042C9F
:10C970006BA00AF0EDF8C7E0FCF716FFC4E06C4CC2
:10C9800066A021680AF0E4F8A08801250028F2D00A
:10C990005FEA852604EB850034F92510B0F9022002
:10C9A00064A00AF0D5F86D1C34F825000028E2D008
:10C9B000B542EFDBA8E0016D01E0B0F93C1060A0EA
:10C9C0000AF0C6F8A0E00022C28192E004F072F9F9
:10C9D000002425462E466EE0401CFBF774FF0BEB4F
:10C9E000470A80468946BAF80200FBF76CFF00222E
:10C9F000554BFBF751FE0022544BFBF7BFFE0022C4
:10CA0000534B0DF0F7FB0022524BFBF7B7FE002211
:10CA1000514BFBF741FE42464B46FBF73DFE4FF0C4
:10CA2000FF32FBF71AFF00224C4BFBF78EFD8046CE
:10CA300089463046FBF736FF42464B46FBF785FDFD
:10CA4000FBF762FF06463BF81700401CFBF73BFF75
:10CA500007468846BAF80400FBF735FF00223A4B38
:10CA6000FBF71AFE0022394BFBF788FE0022384BF9
:10CA70000DF0C0FB0022374BFBF780FE0022364B47
:10CA8000FBF70AFE3A464346FBF706FE4FF0FF323D
:10CA9000FBF7E3FE0022314BFBF757FD07468846C4
:10CAA0002846FBF7FFFE3A464346FBF74EFDFBF7F1
:10CAB0002BFF0546641C04EB44073BF817000028D5
:10CAC0008AD109F0C7FE4FF47A7095FBF0F396FB1C
:10CAD000F0F20F4C06212068B0F90E00C0EBC00048
:10CAE00090FBF1F10BA00AF033F82068C189491CD2
:10CAF000C18107490868B0F90E20B2F5167FFFF62C
:10CB000065AF17A00AF024F8002007E7EC13012016
:10CB1000500000200D0A25642C25642C256400009B
:10CB20000D0A25642C25642C25640D0A3E000000A6
:10CB3000640600200D0A2325642C256400000000F3
:10CB4000202530385800000000001C40000018402C
:10CB50000000084000007940000024400000E03F51
:10CB60000D0A3E002DE9F04700252F4CADF5007D64
:10CB70008046AA4630274FF400366D1C09F06AFE45
:10CB800004F501708146D4F8001201E000F501704F
:10CB9000D0F80022914202D0521CF7D126E0501C5E
:10CBA00024D00AF1010A204620494C460844B042EC
:10CBB00003DAD4F80002401CDFD1B8F1000F02D034
:10CBC000384600F005FBD4F8000206F50036401C9C
:10CBD00007F10807D1D1B8F1000F1ED0384600F098
:10CBE000F7FA00200DF5007DBDE8F08700206946CA
:10CBF00054F82020D24341F82020401C8028F7DB45
:10CC000009F028FEB8F1000FCDD0012369460020BD
:10CC1000D4F8002203F004FFC5E764210AFB01F009
:10CC200090FBF5F0DEE70000000004080402FCF7CA
:10CC30002DE9F0474FF48044204600F01DF92146CD
:10CC40003B4800F0D9FB3F4C0028DFF8E880206823
:10CC5000394DDFF8E890DFF8E8A0818F42F21076D6
:10CC600038D021F0800181870021484605F093F9F2
:10CC70000021504605F08FF9206890F838104907D8
:10CC800021D590F8340000061DD4D8F800000AF031
:10CC90006FFF07462868802390FBF6F106FB110121
:10CCA0002068426B28A009F053FF286890FBF6F13A
:10CCB00006FB11012068B0F93C202BA009F048FFC9
:10CCC00038460AF055FF2068416B41F0800141630E
:10CCD000BDE8F08741F08001818790F8381045F277
:10CCE000A817490715D5406B384212D0D8F8000074
:10CCF0000AF03EFF804628683B4690FBF6F106FBB3
:10CD000011012068426B1DA009F022FF40460AF085
:10CD10002FFF2068416BB94341630121484605F06C
:10CD20003AF95046BDE8F047012105F034B900005A
:10CD3000000C0240DC0200201C0300200000014027
:10CD400000040140500000203A2530346420657210
:10CD5000726F7220253034582C253034582C2073B3
:10CD600065740D0A3E0000003A2530346420737467
:10CD700061747320253034580D0A3E003A25303452
:10CD800064206572726F7220253034582C2530343F
:10CD9000582C20636C6561720D0A3E002DE9F0414C
:10CDA0004FF4807000F068F84FF480411F4800F0A5
:10CDB00023FB002837D100211D4805F0ECF80021A5
:10CDC0001C4805F0E8F81C4C206890F8381049071A
:10CDD00024D590F83400800620D4184800680AF062
:10CDE000C7FE174D0746286842F2107690FBF6F111
:10CDF00006FB110120682023426B12A009F0A8FE57
:10CE0000286890FBF6F106FB11012068B0F93C2080
:10CE100014A009F09DFE38460AF0AAFE2068416B76
:10CE200041F020014163BDE8F0810000000C0240A8
:10CE3000000001400004014050000020DC020020FE
:10CE40001C0300203A25303464206572726F722012
:10CE5000253034582C253034582C207365740D0A35
:10CE60003E0000003A2530346420737461747320EE
:10CE7000253034580D0A3E00014908607047000013
:10CE8000143C014030B51A498379026853B30B68EA
:10CE900093430B600A1D13680468A343136002796F
:10CEA0000A441368046823431360114A0832136864
:10CEB0000468A3431360131D1C680568AC431C6021
:10CEC0004479102C05D021440A68006802430A60A6
:10CED00030BD11680468214311601968006801437E
:10CEE000196030BD0079084401689143016030BD8C
:10CEF000003C01402DE9FC5F05007B484FF0000B32
:10CF00007AD081680191D0E9183241680091824657
:10CF1000B5F92060D0E91610C6EB06164FF04A09A5
:10CF200000244FF03C0E4FEA860C25E06F4E06EBD6
:10CF30008407B7F80280C8450BDD36F924704646F1
:10CF4000DDF80080A6EB080636B27743791840EB8F
:10CF5000E770674E06EB8407B7F80280C84509DD25
:10CF600036F92470019EA8EB060636B27743FB180B
:10CF700042EBE77204F101049CFBFEF6A642D5DC0D
:10CF80005446C4E91610C4E91832DAF84420531C98
:10CF9000CAF84430B5F92A309A427CD1B5F93C2020
:10CFA00044F2B339D3074FF47A764FF064082BD0AC
:10CFB00092075AD4B5F94820A2FB017CD31703FB92
:10CFC00001C102FB00114A4600233846FBF7F6F880
:10CFD0003C220023FBF7F2F8074602460023072114
:10CFE00044A0FCF729FF97FBF6F006FB107191FBBC
:10CFF000F8F297FBF6F100E06CE040A00BF098F936
:10D0000095F83C00C0072CD195F83C00800757D517
:10D01000B5F94810D4E91823A1FB020CCF1707FB80
:10D0200002C201FB03214A460023FBF7C7F83C225A
:10D030000023FBF7C3F807460246002307212DA073
:10D04000FCF7FAFE97FBF6F006FB107191FBF8F285
:10D0500097FBF6F12CA00BF06BF995F83C00C0079C
:10D060002ED095F83C0080072AD5D4E91621D4E9C2
:10D070001830D318B5F948204141A3FB020701FB42
:10D080000271D51703FB05114A460023FBF796F8FA
:10D090003C22002300E024E0FBF790F8054602461E
:10D0A0000023072113A0FCF7C7FE95FBF6F006FB53
:10D0B000105191FBF8F295FBF6F116A00BF038F940
:10D0C0000021C4F844B0C4E91811C4E91611481E7F
:10D0D000BDE8FC9F0021C0F844B0C0E91811C0E9C8
:10D0E00016110020F4E7000000000020EC190020D9
:10D0F000EC960020636963500000000045313D2537
:10D10000642E25644A00000045323D25642E2564C6
:10D110004A00000045312B45323D25642E25644AE6
:10D120000000000070B5204C0646204D206848B134
:10D1300046B33178042929D032461DA109F0B0FB4D
:10D14000002070BD4FF409710120FBF7E3F8206067
:10D1500028B1132231460CF06DF910B106E006201B
:10D1600070BD2068C1680BF073FD20B120680CF021
:10D170000BFE052070BD10A1206809F091FBAFF2F5
:10D180005B000EE00DA009F0E3FCD9E70CF08DFB8D
:10D1900020680BF0B9FC20680CF0F6FD0020206040
:10D1A000074829684861CBE78C000020180300205D
:10D1B00025730D0A000000000D0000000D0A00009C
:10D1C0002DBD000801490860704700000C3C02407A
:10D1D00010B5044600F08EF8F320FFF7F3FF00BF10
:10D1E00009F038FB0221204600F004F80128F7D0AE
:10D1F00010BD000070B50646002529B1012927D0D1
:10D20000022928D04FF4407500F086F808281ED176
:10D21000124C206820F44070206020682843206071
:10D22000206820F0F8002060206846F002010843E2
:10D230002060206840F48030206000F06DF82168A4
:10D2400021F002012160216821F0F801216070BD08
:10D250004FF48075D8E74FF40075D5E7103C0240D5
:10D260000B4908200A68D20301D5012070470A68DB
:10D27000D20601D5052070470A6812F0EF0F01D0E1
:10D280000620704709688907FBD507207047000012
:10D290000C3C024070B50C46054600F02BF8F3201C
:10D2A000FFF790FF09F0D6FA2146284600F004F86F
:10D2B0000128F7D070BD000070B50D46064600F09D
:10D2C0002BF8082813D10A4C206820F44070206005
:10D2D000206840F400702060206840F00100206069
:10D2E000356000F019F8216821F00101216070BD5E
:10D2F000103C024005480068002805DA034804494C
:10D300000C3801600349016070470000103C024086
:10D3100023016745AB89EFCD08B508208DF80000E3
:10D32000FFF79EFF8DF800009DF800000128F7D060
:10D330009DF8000008BDF0B50023012403270D6807
:10D3400004FA03F21540954242D1D0F800C05E00C5
:10D3500007FA06F52CEA050CC0F800C091F804C0E5
:10D36000D0F800E00CFA06FC4CEA0E0CC0F800C045
:10D3700091F804C0BCF1010F02D0BCF1020F1FD123
:10D38000D0F808C02CEA050CC0F808C091F805C018
:10D39000D0F808E00CFA06FC4CEA0E0CC0F808C005
:10D3A000D0F804C02CEA020CC0F804C0426891F81E
:10D3B00006C00CFA03FC1FFA8CFC42EA0C02426025
:10D3C000C268AA43C260CA79C568B2402A43C26033
:10D3D0005B1C102BB3D3F0BD4B07DB0E9A40C90882
:10D3E00010B500EB8100016A0F249C40A14301624B
:10D3F000016A1143016210BD0246002012690A420F
:10D4000000D0012070470246002052690A4200D035
:10D410000120704741837047018370474FF6FF71C9
:10D4200001600021017141718171C17170474069D2
:10D43000806880B27047D0F8CC000068C0F34140EB
:10D440007047084490F87F08704700EB8100D0F8DF
:10D450003408704710B5044600221046C4F8F4277B
:10D4600004EB8203C3F8F807C3F83408A31883F861
:10D470007008521CD2B20F2AF2D30820A4F89608E2
:10D48000204608F0A5F9204607F0BCFD204607F02D
:10D4900061FC0121204608F0FBF9204607F032FD2F
:10D4A000204607F08EFF002010BDD0F8F40770472B
:10D4B00010B508F078F9002010BD0022431883F859
:10D4C0007F2800EB4113C3F8A42808F097B80000A8
:10D4D000F0B416490A78012A09D0CA680025802AC2
:10D4E00000D1CD60D1E902329A4202D10D70F0BC78
:10D4F000704702D9C2F1800301E0A3EB02031C468E
:10D500000B61402B96B205D940234032403CC1E923
:10D51000032403E02244C1E90325A3B201220A70D7
:10D5200003498A19F0BC8121FCF70CBEC404002019
:10D53000CC440120074800680AF01AFB064800683E
:10D5400042F2107190FBF1F201FB120103A009F00D
:10D55000FFFAFEE7D40200201C0300203A253034F5
:10D560006420486172644661756C745F48616E64E2
:10D570006C65720D0A3E000010B51421054800F0DC
:10D5800057F9000A04D0034814300188C9B2018059
:10D5900010BD0000005400402DE9F041414D2846E7
:10D5A00000F0DAF8404A0026811A404C4FF4C06778
:10D5B000904234D02FDC6FF4403140183FD0012826
:10D5C00062D03F2825D1284600F037F90246D4E939
:10D5D00002010B18401C1A73A060C988491E8142C1
:10D5E00007D10021284600F06DF80121284600F0FF
:10D5F000A9F8E068A168C08888420AD100223946AB
:10D60000284600F0B0F80121284600F05BF8E068F9
:10D61000C680BDE8F081022922D00429F9D1E16851
:10D62000A0688A8882421DD18E80C8884FF001018F
:10D63000002828461FD0BDE8F04100F079B8E06826
:10D640008188007800294FEA40604FEA106101D0DC
:10D65000002200E00122284600F0F2F8A660D8E798
:10D66000D4E902010144401C097AA0602846BDE8C3
:10D67000F04100F0EDB800F065F839462846BDE805
:10D68000F041002200F06FB8E068C0880128C0D1E6
:10D690000021284600F016F82846BDE8F041012197
:10D6A00000F050B80054004080000700C002002085
:10D6B0000029018802D041F0100101E021F01001A1
:10D6C000018070470029018802D041F4806101E0A7
:10D6D00021F48061018070470029018802D041F067
:10D6E000010101E021F00101018070470D4910B5F1
:10D6F000884202D101214C050AE00B49884202D13F
:10D7000001218C0504E0094988420AD10121CC0598
:10D71000204602F06FFD2046BDE81040002102F0D7
:10D7200069BD10BD0054004000580040005C00403E
:10D730000029018802D041F4807101E021F4807158
:10D74000018070470029018802D041F4007101E096
:10D7500021F4007101807047818A008B41EA004109
:10D7600021F07F407047002A828801D00A4300E000
:10D770008A438280704700007FB5044680880D464A
:10D7800020F03F06684602F061FD27490298B0FB91
:10D79000F1F189B20E43A680228822F00102228094
:10D7A000224B2A689A421BD85200B0FBF2F080B29A
:10D7B000042800D20420491C2184A083208840F042
:10D7C0000100208021884FF6F5300140A8886A8941
:10D7D000104308432080A8892989084320817FBD00
:10D7E000EB88A3F53F46FF3E0BD002EBC20303EBF1
:10D7F0000212B0FBF2F080B240F48040020506D085
:10D8000007E002EB4202B0FBF2F080B2F6E740F034
:10D8100001004FF4967251434FF47A72B1FBF2F16A
:10D8200040F40040C7E7000040420F00A08601001E
:10D8300008B508440090008808BD008AC0B270474F
:10D8400012B141F0010101E001F0FE0101827047D7
:10D85000018270470029018802D041F4004101E0B3
:10D86000C1F30E01018070470029018803D021F027
:10D8700080010180704741F08001FAE741F2883170
:10D880000160002181804BF6FF72C28001814181DD
:10D890004FF480418181704702494CF6CC400860CA
:10D8A0007047000000300040034A01460020D26863
:10D8B0000A4200D0012070470030004002494AF679
:10D8C000AA2008607047000000300040014948600D
:10D8D0007047000000300040014988607047000038
:10D8E00000300040014908607047000000300040EF
:10D8F00070B52B4C2B4A208802F1100109F030F84A
:10D90000284A0546608802F1100109F029F885428D
:10D9100001DD208800E06088224A02F1100109F050
:10D920001FF804462048006841F28831884233DD00
:10D930001E48C82281688C4201DA00680CE0C36886
:10D940009C4201DD406807E041C8651A361A7543FC
:10D95000591A95FBF1F1084440F6B831484390FB61
:10D96000F2F5052D05DBB5F5BB6F03DB40F2D755AE
:10D9700000E005250E4E304604F0CCFBA8423046B0
:10D9800003D204F0C7FB401C02E004F0C3FB401EBE
:10D990000146304604F076FD642094FBF0F070BD43
:10D9A000BC190020F0B401081C030020680000200E
:10D9B000000400401FB501214FF4E06002F026FC96
:10D9C0006846FBF763FC00200090019002900390F2
:10D9D0006846FBF745FC00F005F800F07BF800F026
:10D9E000F3F81FBD70B5012198B0880502F0DEFB89
:10D9F00033480024CDE90040324802A9022581E8DD
:10DA000031006802CDE90540400007908000089091
:10DA10004011099040020A900420CDE90B042A4EDF
:10DA20000D94694630460E94FCF7F2FE0121304613
:10DA3000FCF7E0FD15A8FFF7F1FC03208DF8580076
:10DA400015908DF85B4015A92048FFF774FC0FA8CE
:10DA5000FBF7ABFD01208DF840008DF84100000779
:10DA600011904FF06060CDE912040F94144C8DF8C2
:10DA700050504C3C0FA92046FBF732FD00230122F9
:10DA800009212046FBF752FD0023022208212046EF
:10DA9000FBF74CFD08212046FBF7CAFB0C4920464A
:10DAA000FBF7BEFB01212046FBF700FC01212046CD
:10DAB000FBF7CBFB01212046FBF7EEFB18B070BD56
:10DAC0004C20014098020020706402400004024093
:10DAD0000002800070B5012198B0880502F066FB55
