:020000040800F2
:10000000C0CA0020750400087D0400087F040008B1
:100010008104000883040008850400080000000033
:10002000000000000000000000000000870400083D
:1000300089040008000000008B040008C94D000876
:100040008F0400088F0400088F0400088F04000844
:100050008F0400088F0400088F0400088F04000834
:100060008F0400088F0400088F0400088F04000824
:100070008F0400088F0400088F0400088F04000814
:100080008F0400088F0400088F040008E121000895
:10009000B92100088F040008CD2100088F04000852
:1000A0008F0400088F0400088F0400088F040008E4
:1000B0004D4F00088F0400088F0400088F040008CB
:1000C0008F0400088F0400088F0400088F040008C4
:1000D0008F040008B15400088F0400088F04000842
:1000E0008F0400088F0400088F0400088F040008A4
:1000F0008F0400088F0400088F0400088F04000894
:100100008F0400088F0400088F0400088F04000883
:100110008F0400088F0400088F0400088F04000873
:100120008F0400088F0400088F0400088F04000863
:100130008F0400088F0400088F0400081D220008A7
:10014000F52100088F040008092200087D430008FB
:100150008F0400088F0400088F0400088F04000833
:100160008F0400088F0400088F0400088F04000823
:100170008F0400088F0400088F0400088F04000813
:100180008F040008DFF810D001F0D4FB01F018FF55
:100190000048004789290108C0CA00202DE9FF4F07
:1001A00095B00C464168009181680E91179D0068DA
:1001B00012901898800813900E98006807900E9877
:1001C00050F8041F089150F8041F099150F8041FBB
:1001D0000C9150F8041F001DCDE90D100098D0E9D6
:1001E000006BD0E90289DDF84CA0BAF1000F00F0F5
:1001F000AC8000BF54F8040B069049460D9800F0FF
:1002000089FD039041460C9800F084FD0A90594600
:10021000099800F07FFD07463146089800F07AFD06
:100220008146DDE9061000F075FD494600F01AFD33
:10023000394600F017FD0A9900F014FD039900F00B
:1002400011FD45F8040B074654F804BB41460D98D0
:1002500000F060FD804639460C9800F05BFD0A9086
:100260003146099800F056FD06460699089800F0B8
:1002700051FD81465946079800F04CFD494600F073
:10028000F1FC314600F0EEFC0A9900F0EBFC41462F
:1002900000F0E8FC45F8040B804654F8046B39463E
:1002A0000D9800F037FD039041460C9800F032FDA8
:1002B0000A900699099800F02DFD074659460898BE
:1002C00000F028FD81463146079800F023FD49469D
:1002D00000F0C8FC394600F0C5FC0A9900F0C2FCE9
:1002E000039900F0BFFC45F8040B814654F8047BE9
:1002F00041460D9800F00EFD0A9049460C9800F01A
:1003000009FD01905946099800F004FD80463146E8
:10031000089800F0FFFC83463946079800F0FAFC85
:10032000594600F09FFC414600F09CFC019900F00A
:1003300099FC0A9900F096FCB346804645F8040BF8
:100340003E46BAF1010A7FF455AF189800F0030752
:10035000B7F1004F2FD300BF54F804AB49460D98B6
:1003600000F0D8FC0A9041460C9800F0D3FC0390B2
:100370005946099800F0CEFC81463146089800F0B5
:10038000C9FC83465146079800F0C4FC594600F06A
:1003900069FC494600F066FC039900F063FC0A9989
:1003A00000F060FCB346C14645F8040B5646804653
:1003B0007F1ED1D130E0002F2EDD00BF54F804ABFA
:1003C00049460D9800F0A6FC0A9041460C9800F0B2
:1003D000A1FC05905946099800F09CFC81463146E5
:1003E000089800F097FC83465146079800F092FC6D
:1003F000594600F037FC494600F034FC059900F0FE
:1004000031FC0A9900F02EFCB346C14645F8040BB6
:10041000564680467F1ED1D100980660009840F86D
:1004200004BF40F8048F40F8049F001D009012980C
:10043000179C401E254612907FF4BEAE19B0BDE851
:10044000F08F70B58260016004461D4609011846B0
:1004500000F0C0F8656070BD70B504460498218056
:1004600008448000011F1D461846A26000F0B2F843
:10047000656070BD0648804706480047FEE7FEE716
:10048000FEE7FEE7FEE7FEE7FEE7FEE7FEE7FEE744
:10049000A94E00088501000870B500F0D4FE44693B
:1004A000054614B9002000F07AFEE06904F1200648
:1004B000401CE061304600F09BFE002801D0266819
:1004C00003E0286800F10100286002D04FF000022C
:1004D00000E022684FF000013046AFF30080304664
:1004E000092000BF304600F06FFE70B50546466A31
:1004F00000F0A9FE0446284600F07AFE20B1294605
:10050000606900F0C5FE07E0A5F12000C169491E41
:10051000C1612168491E21604169491C416101692D
:1005200011B96169016160612846AFF3008030460E
:1005300070BD70B500F087FE446905460CB900F047
:1005400072FE6069401E606117D104F120063046DA
:1005500000F04EFE21696961E56928B104F1780077
:10056000266800F04FFE01E000202061002D04D13C
:100570003046BDE8704000F069BB70BD0048704770
:10058000D843010810B50446FFF7F8FF0068005D86
:1005900000F0010010BDA0F16101192900D8203838
:1005A000704740EA01039B0703D009E008C9121F06
:1005B00008C0042AFAD203E011F8013B00F8013B1D
:1005C000521EF9D27047D2B201E000F8012B491E49
:1005D000FBD270470022F6E710B513460A460446E0
:1005E0001946FFF7F0FF204610BD421E12F8013FEA
:1005F000002BFBD111F8013B02F8013B002BF9D194
:100600007047CAB2401E10F8011F8A4202D000296A
:10061000F9D100207047421C10F8011B0029FBD1C2
:10062000801A704710B5002200E0521C835C8C5C7D
:10063000A34201D1002BF8D1D8B2E1B2401A10BDCB
:10064000034611F8012B00F8012B002AF9D11846B6
:10065000704730B505460020034600E05B1C93421E
:1006600005D2EC5CC85C201A01D1002CF6D130BD5B
:1006700010B54843044612F08DF9002805D000213A
:10068000002C02D0641E0155FAE710BD0FB400B56E
:100690008DB010A909900B9000914FF0FF300A9097
:1006A00000200C9005480690054807906A4609A866
:1006B0000F9900F0BBFE0DB05DF814FB4914000863
:1006C000671400082DE9FF5F1D464FF0FF3BD5E999
:1006D000014691465F464FF00008A9697F1C0198CA
:1006E0008847296A824688470028F6D1BAF1FF3F39
:1006F0000CD024F4C064002E19DD600614D5BAF1C4
:100700002B0F09D0BAF12D0F0ED103E0584604B0DB
:10071000BDE8F09F44F48064A9697F1C0198884774
:10072000761E8246002E02DDBAF1300F03D0B9F1F9
:10073000000F26D032E0A969761E44F400747F1CB5
:10074000019888478246002E05DDBAF1780F06D061
:10075000BAF1580F03D0B9F1000F10D01EE0B9F173
:10076000000F02D0B9F1100F18D1A969761E24F438
:1007700000747F1C019888478246102002E0082000
:1007800000E00A20814609E008FB0908A969761EF5
:1007900044F400747F1C019888478246002E05DDD2
:1007A0004946504600F02DFE0028EDDAE96901982F
:1007B0008847A00502D46FF00100A8E7E00725D123
:1007C000600613D5600502D5C8F1000000E0404680
:1007D00029680A1D2A600968220501D5087015E0FC
:1007E000220701D5088011E008600FE02868011D8C
:1007F00029600068210502D580F8008006E0210705
:1008000002D5A0F8008001E0C0F8008038467EE7FD
:100810002DE9FF4F087881B09946FF2805D0491C83
:100820002D2804D00024002308E000230BE001243D
:10083000F9E703EB830300EB4303491C0878FF2827
:10084000F7D104B15B4200200090147801462D2CB2
:1008500001D02B2C04D1521C2D2C12D0002400943A
:1008600000251678FF2E0ED00A24A0FB04C801FB39
:100870000481002700FB0711521C16EB0C00694194
:10088000EFE70124EBE7994450EA01020ED000247F
:10089000AA4D2646DFF8A88200F0DEFE82468B468F
:1008A000B9F1000009DAC9F100071BE00198002145
:1008B000C0E9001105B0BDE8F08F074612E0F80767
:1008C00007D022462B463046414600F0FCFA064649
:1008D000884622462B461046194600F0F4FA044694
:1008E0000D467F10002FEAD1B9F1000F3246434682
:1008F0005046594602DA00F058FB01E000F0E3FAF6
:10090000009A0AB181F00041019AC2E90001D1E7E1
:100910002DE9FF4F1F468DB0D7E901464FF0FF3854
:100920002E2045464FF000090B90B9696D1C0E98BA
:100930008847396A824688470028F6D1BAF1FF3FD6
:100940000AD024F4D064002E11DDBAF12B0F08D0A8
:10095000BAF12D0F0BD102E0404611B0ABE744F4E1
:100960008064B9696D1C0E9888478246761E694678
:10097000600501D52D2000E02B208DF8000001F14D
:10098000010B0DF1200809E0B9696D1C0E9888472C
:1009900082460F9844F40074761E0560002E02DD36
:1009A000BAF1300FF0D00B998A453ED144F0800463
:1009B00006E00F99681CA9F1010944F4007408606D
:1009C000B9696D1C761E0E98884782463028F0D093
:1009D0002BE00B998A4505D1200603D444F080040E
:1009E000761E18E050460EF03BFF08B30DF11301E0
:1009F000761E44F400748B4508D2AAF130000BF83F
:100A0000010B200607D5A9F1010003E0200602D45E
:100A100009F101008146A00502D50F99681C086004
:100A2000B9696D1C0E9888478246002ED1DC53E0D0
:100A3000002E51DDBAF1650F02D0BAF1450F4BD14E
:100A4000A00549D5B9696D1C24F44074761E0E9832
:100A500088478246002E0CDD2B2804D0BAF12D0FDA
:100A600007D144F48074B9696D1C0E98884782469A
:100A7000761EE00501D52D2100E02B2108F8011B91
:100A8000CDF82C8021E00DF12901761E44F400748C
:100A900088450CD2AAF1300010F0FF0088F8000061
:100AA00002D10B99884509D908F1010806E0E00553
:100AB00001D5244801E042F20F708146B9696D1CEE
:100AC0000E98884782460F980560002E04DD504638
:100AD0000EF0C6FE0028D6D1F9690E988847FF208F
:100AE0008BF8000088F800000020069007904B4625
:100AF0006A4608A906A8FFF78BFEA00502D46FF08E
:100B000001002AE714F0240F0AD0E00714D1DDE930
:100B100006123868031D3B600068C0E900120BE054
:100B2000DDE9060100F0D4FD0146E00704D1386894
:100B3000021D3A600068016028460EE7000024406C
:100B40000000F03FF1D8FFFF2DE9F04791460F4636
:100B500080460446002614F8015B2DB1FFF70EFD18
:100B60000068405DC007F6D12B2D02D02D2D18D086
:100B7000641E4A463946204600F086FC27B1396893
:100B8000A14201D1C7F8008071054FF002040BD5D6
:100B90004042002803DD0EF0EBF80460A007BDE83A
:100BA000F08746F48066E4E70028F8DA0EF0E0F813
:100BB00004606FF00040F2E72DE9F05F93460F46C6
:100BC0008046044600260EF0D3F8D0F80090824606
:100BD00014F8015B2DB1FFF7D1FC0068405DC00740
:100BE000F6D12B2D02D02D2D1AD0641E0021CAF86B
:100BF00000105A463946204600F046FC014627B10F
:100C00003868A04201D1C7F80080DAF80000022855
:100C100009D0CAF80090700505D54842BDE8F09F9C
:100C200046F48066E2E70846F8E770B506460EF03F
:100C30009FF8046805460A2200213046FFF784FF2A
:100C40002C6070BD092070470920704770477047BD
:100C500009207047024801464860001D70470000A7
:100C600090030020F0B480EA0102D40F4200B2EBFE
:100C7000410F02D20246084611464A0042D0C30D37
:100C8000DDB2C1F3C752AD1A202D35DAC1F316011A
:100C900041F4000204B15242C5F1200602FA06F105
:100CA0002A411044B3EBD05F23D0C4B1012DA0EB97
:100CB000C35009DCF0BC4FF0004202EAC352DBB281
:100CC00000F5000000F03DBC400000F1807000EB3A
:100CD000C350A0F1807040EAD170490009E0490892
:100CE00041EAC071A0EBC35000F50000400800EBE2
:100CF000C350F0BC00F01CBC6142012202EB410178
:100D0000001BF6E7F0BC704781F00041AAE780F0D5
:100D10000040A7E780EA010210B502F0004340005E
:100D200022D04A001FD0010E01EB1261C0F3560021
:100D3000C2F3560240F4000042F40002A0FB02207D
:100D400000047F39140400D0401C50EA124001D442
:100D50004000491EC2B20C0604EBD010401C4008F3
:100D6000802A02D003E0002010BD20F001000029FD
:100D700000DA0020184310BD2DE9FE4F804681EABD
:100D80000300C00F0C46009021F0004123F0004505
:100D9000B8EB0200A94105D24046214690461C46C8
:100DA0000B46024623F00040104347D0270DC7F3FF
:100DB0000A00C3F30A510290401A019040286BDAEE
:100DC000C3F3130040F4801B0098924620B1002327
:100DD000D2EB030A63EB0B0B01985946C0F14002BA
:100DE000504600F0BDFA06460D4650465946019A57
:100DF00000F0D5FA10EB08006141002487EA115297
:100E000084EAE7731A4340D0009A62B3019A012A38
:100E10004FEA075215DC001B61EB02014FF0004264
:100E200002EA0752CDE90042001C41F5801132462A
:100E30002B4600F0C3FB03B0BDE8F08F40462146CF
:100E4000F9E7001B61EB0201001C41F5801300185B
:100E50005B412018A2F5001747EB030140EAD5706B
:100E6000B6196D4111E06D084FEA360645EAC075C6
:100E70004FEA0752001B61EB0201001C41F5801193
:100E800049084FEA30000019514132462B4603B061
:100E9000BDE8F04F00F083BB009801224000002322
:100EA000D0EB020263EBE073009821464FEAE07456
:100EB000B8EB000061EB0401E9E783F000435BE776
:100EC00081F0004158E72DE9FE4F81EA030404F068
:100ED000004421F0004100944FF0000B23F0004348
:100EE00050EA01045ED052EA03045BD0C3F30A5413
:100EF000C1F30A552C44A4F2F3340194A0FB02542C
:100F0000C1F3130141F48011C3F3130343F48013BD
:100F100001FB024400FB034E840A970A44EA815411
:100F200047EA8357A4FB076802958D0A05FB0785EE
:100F30004FEA932C04FB0C542705029D4FEA0658F8
:100F400047EA1637B5EB08056EEB070C870E920ED5
:100F500047EA811742EA8312A7FB0201B6EB0B01B5
:100F600064EB00042B0D43EA0C335E1844EB1C5079
:100F7000DA465146E7FB0201C5F313044FEA0B338F
:100F800043EA14534FEA0432019C43EA0603A4F1F6
:100F90000C040294009CCDE900B400F00FFB03B0F8
:100FA000BDE8F08F00200146F9E72DE9F04D81EA18
:100FB000030404F0004B21F0004514464FF0000AF2
:100FC00023F0004150EA050220D054EA01021DD06E
:100FD000C5F30A570246C5F31303C1F31300C1F367
:100FE0000A5640F4801543F48013A7EB0608101B43
:100FF000D64608F2FD3873EB050002D308F101086C
:1010000001E092185B41B8F1000F03DA00200146BD
:10101000BDE8F08D00204FF48011064684460EE0B6
:10102000171B73EB050705D3121B63EB0503064380
:101030004CEA010C49084FEA300092185B4150EA33
:101040000107EDD152EA030012D082EA040083EADC
:101050000501084305D0101BAB4106D20122002335
:1010600006E000224FF0004302E06FF0010253104F
:101070001AEB06004CEB085110EB0A0041EB0B0198
:10108000BDE8F04D00F08BBAC10F80EAE070084473
:10109000CA079623002100F054BA0EB5C10F80EAAA
:1010A000E0700844CA07002140F233438DE80E0087
:1010B0000A460B4600F082FA03B000BD0EB540F2BE
:1010C000334102910021CDE900110A460B4600F0A0
:1010D00075FA03B000BD00F0004220F00040C10DE1
:1010E000C0F3160040F400007F2901DA00207047A9
:1010F000962903DCC1F19601C84001E09639884089
:10110000002AF4D04042704770B5C1F30A5201F092
:1011100000450024C1F3130140F2FF3341F4801174
:101120009A4201DA002070BD40F233439A42A2F2A3
:10113000334203DC524200F022F900E090402C439D
:10114000F1D0404270BDC1F30A5210B5C1F3130192
:1011500040F2FF3341F480119A4201DA002010BDC1
:1011600040F233439A42A2F2334203DC524200F08F
:1011700006F910BD904010BD00F0004230F0004074
:101180000AD0C10D01F56071C0F3160042EA0151A9
:10119000C20840071143704700200146704770B5F0
:1011A000054600F050F804461DB1284600F020F82E
:1011B00008B1A06801E055F8140C206101202073EB
:1011C000BDE8704000F02FB8040001D0FFF78DF9A2
:1011D0002046FFF7E4FF000002680B689A4205D141
:1011E00040684968884201D101207047002070475B
:1011F00010B50349FFF7F0FF80F0010010BD0000BB
:101200003844010810B5044600F01DF8783CC06968
:10121000214600F08DFA002804D12046BDE8104098
:1012200011F0BAB910BD10B500F00DF8016919B18F
:1012300000220261884701E080688047AFF30080A8
:1012400010B5AFF3008070B5FFF704FD04680546E4
:10125000A4B9202011F09EFB040011D00949002000
:101260002C60C4E900010849A1602073206160611D
:101270000649A06109B100F047FAE061204670BD5F
:10128000AFF30080000000004112000800000000E1
:1012900070B504000D4609D004F12000FFF79CFF53
:1012A00020B12068A84201D1204670BD002000F086
:1012B00049FAD5E90023A0F15801C1E90023002231
:1012C00040F85C2C40F8642C40F8682C40F8785DBD
:1012D00070BD30B50B46014600202022012409E0F4
:1012E00021FA02F59D4205D303FA02F5491B04FADF
:1012F00002F52844151EA2F10102F1DC30BD2DE9F2
:10130000F05F0546002092469B4688460646814689
:1013100040241BE0284641464746224600F02FF86D
:1013200053465A46C01A914110D3114618462246D8
:1013300000F016F82D1A67EB01084F4622460120EF
:10134000002100F00DF817EB00094E41201EA4F11A
:101350000104DFDC484631462A464346BDE8F09F9B
:10136000202A04DB203A00FA02F100207047914065
:10137000C2F1200320FA03F3194390407047202A5A
:1013800004DB203A21FA02F00021704721FA02F32F
:10139000D040C2F120029140084319467047202AEC
:1013A00006DBCB17203A41FA02F043EAE07306E08D
:1013B00041FA02F3D040C2F120029140084319469D
:1013C000704710B5431A934209D28318881803E076
:1013D00010F8011D03F8011D521EF9D210BD40EA9C
:1013E00001039B0703D009E008C9121F08C0042AA3
:1013F000FAD203E011F8013B00F8013B521EF9D28A
:1014000010BD3A2800D2303820F02002412A01D302
:10141000A2F13700884201D34FF0FF30704700003F
:10142000026811441378016018467047D16004497E
:1014300051610449116200211161114600F0B8BAEE
:101440002114000885050008426842B1016811F8BE
:10145000013B23B1521EC0E900121846704701211A
:10146000C160881E704742685AB1C368016843B9B9
:1014700083688B4205D0491E521CC0E9001200202F
:1014800070474FF0FF3070472DE9F05F82460078DB
:10149000002715468B460AF10104B946302801D0D1
:1014A0009DB113E014F8010B0127782803D05828C8
:1014B00001D045B10AE00DB1102D07D1002710254C
:1014C00014F8010B02E0082500E00A250026B046CA
:1014D0000EE005FB080005FB06F1012701EB1046B5
:1014E0001FFA80F8B6F5803F00D3B94614F8010B17
:1014F0002946FFF786FF0028EBDABBF1000F05D085
:101500000FB1641E00E05446CBF80040B9F1000F63
:1015100006D00DF02DFC02210160C81EBDE8F09F31
:1015200048EA0640FAE7000000487047BC03002084
:101530000029A8BF7047401C490008BF20F00100E7
:10154000704710B4B0FA80FC00FA0CF050EA0104C5
:1015500004BF10BC704749B1CCF1200421FA04F457
:1015600011FA0CF118BF012121430843A3EB0C0130
:10157000CB1D4FEA00614FEA102042BF002010BC93
:10158000704700EBC35010440029A4BF10BC704743
:10159000401C490008BF20F0010010BC704710B586
:1015A000141E73F1000408DA401C41F10001921886
:1015B0005B411A4301D120F0010010BD2DE9F04D2F
:1015C00092469B4611B1B1FA81F202E0B0FA80F284
:1015D00020329046FFF7C4FE04460F4640EA0A0058
:1015E00041EA0B0153465A46084313D0114653EAC9
:1015F000010019D0C8F140025046FFF7C0FE054671
:101600000E46504659464246FFF7AAFE084305D00B
:10161000012004E020463946BDE8F08D0020054356
:1016200046EAE0762C4337430A986305E40AA0EBC8
:1016300008000022FD0A44EA47540A3002D500207F
:101640000146E9E7010510196941DDE9084500197E
:101650006941BDE8F04DA2E70EB540F23342029277
:101660000022CDE900221346FFF7A8FF03B000BD1A
:10167000C1F30A52C1F3130140F2FF3341F4801168
:101680009A4202DA00200146704740F233439A4200
:10169000A2F2334202DC5242FFF771BEFFF760BE96
:1016A00030B5041E71F1000404DB4FF000444042E9
:1016B00064EB0101141E73F1000405DB1C464FF0BE
:1016C0000043524263EB0403994208BF904230BD8D
:1016D00001F0004330B421F0004150EA010206D08D
:1016E0000A0DA2F56072C1F31301002A02DC30BCBE
:1016F00000207047440F44EAC104C100E01830BC28
:1017000000EBC250FFF714BF10B5882011F042F96A
:10171000002801D00021017010BD802902D808B135
:10172000017809B100207047012100F8081B7047BB
:1017300018B100F10802914201D000207047002149
:101740000170704770B50446FFF77DFD783405469B
:101750002646204611F01EF9040007D13146E869FB
:10176000FFF7DBFF040001D1FFF719FD0AA104F127
:101770002000D1E90021C0E900210021A162E1623D
:1017800061612161A161E161A868E0606868A060B1
:1017900004F1780070BD000041524D00432B2B0036
:1017A0000000000073B50C46FFF74DFD54F80C1C0B
:1017B000203C31B1E169491EE1610168491E0160C7
:1017C0007CBD616804F1780509B128468847284640
:1017D000BDE87C40FFF716BDFEF787FE2846FFF701
:1017E00011FDFEF759FE70B50D46A0F158044C49A5
:1017F000A160012140F85C1C40E91E52FFF723FD67
:1018000001682A46491C016000212046AFF3008090
:101810002046092000BF2046FFF7D6FC2DE9FF4DEA
:101820009A4693460E468046FFF7E2FC002875D1A3
:10183000A8F12000012708F1580805680024CDF818
:101840000880314628460CF02BFC10B1CAF8008005
:1018500062E028460DF023FA019030460DF01FFAA1
:101860000090304901980CF01BFC20B92D490098DC
:101870000CF016FC20B1DDE900100CF021FC08BBD7
:10188000284901980CF00CFCC0B1307A297A00F09C
:10189000030001F00301641C31EA00023ED130EA8A
:1018A000010100D077B1C00700D100270298ED6890
:1018B000F6680028C5D000680290C2E7012C02D06B
:1018C0006CB109D02AE0184930460CF0E9FB18B198
:1018D000BBF1000F22D1B9E7BBF1000F1ED11349B4
:1018E00001980CF0DDFB20B9114901980CF0D8FBF0
:1018F000A0B100200090019033462A4603A902A817
:101900000DF0B0FA002804D00399CAF800101CB1F9
:10191000022004B0BDE8F08D0120FAE70020F8E7CE
:10192000A517000880470108984801088C4701085E
:1019300098470108064C074D06E0E06840F00103B7
:1019400094E8070098471034AC42F6D3FEF71EFC2B
:101950003C5001085C5001080246C9B200E0401C3E
:101960000378002BFBD102E003788B4203D0401EAA
:101970009042F9D2002070470FB400B58DB010A985
:1019800009900B9000914FF0FF300A9000200C90CE
:1019900005480690054807906A4609A80F99FFF781
:1019A00045FD0DB05DF814FB4914000867140008EC
:1019B0002DE9F34F8BB04FF0000801F10C000C46FD
:1019C0004FF0010B46460DF1080A019062690121B2
:1019D0000198904705002DD0252D2CD0216A8847ED
:1019E000C0B16269012101989047216A88470028A7
:1019F000F7D1411E62690198904700E0761CA16909
:101A00000B988847216A88470028F7D1E1690B982D
:101A10008847DBE7A1690B9888470746A84201D1B0
:101A2000761CD3E7E1690B9888477F1C02D1B8F197
:101A3000000F6FD046E1002762693D4639460198A4
:101A400090472A2804D16269012101989047012515
:101A5000DFF884926269012101989047A0F130017A
:101A60000A290AD24F45E5DC07EB870100EB410765
:101A7000303FDFD445F01005ECE7E90601D46FF004
:101A800000476C280AD04C2814D0682815D06A2842
:101A90000DD074281CD07A281AD01DE0626901216B
:101AA000019890476C2802D045F0040514E045F0F9
:101AB00002050DE045F020050AE062690121019868
:101AC0009047682802D045F0080505E045F4006518
:101AD0006269012101989047C4E9015765283DD00A
:101AE00019DC58287AD00CDC452837D004DC2528AE
:101AF00026D0412831D131E046282FD047282CD19B
:101B00002CE05B2877D0612828D063287CD064281B
:101B100023D15AE0D0E06F2848D008DC66281DD0D9
:101B200067281BD0692821D06E2816D127E070289D
:101B300045D0732868D0752847D078280DD14DE05E
:101B4000A1690B988847054625283FF469AFE169EC
:101B50000B9888476D1C3FF46AAFB3E023466A4692
:101B60006FF001000B99FEF7D3FE9EE045F04000B8
:101B70006060A80723464FF0000236D43EE0E80735
:101B80007FF447AF2068011D21600068290501D559
:101B900006701BE7290701D5068017E7A90703D5BB
:101BA000F117C0E9006111E706600FE745F040005A
:101BB0006060A80723464FF0080216D41EE040F6E6
:101BC0000E0125EA0100606016E045F0400060600B
:101BD000A80723464FF00A0207D40FE045F0400063
:101BE0006060A80708D5234610226FF001000B990A
:101BF00000F0C5F859E007E0234610226FF001001D
:101C00000B99FEF75FFD50E04FF000094F464B4641
:101C1000632802D05B2806D040E0E80601D401200A
:101C2000A06001273AE062690121019890475E288F
:101C300005D14FF001096269494601989047216931
:101C400039B900210A46534643F82120491C082986
:101C5000FADBB0B3216969B9C11700EBD162531146
:101C60000AEB830122F01F02821A01200B689040C8
:101C700003430B6062690121019890475D28E8D118
:101C8000B9F1000F09D00020514651F82020D2436D
:101C900041F82020401C0828F7DB02AB22460097C1
:101CA0006FF001000B9900F015F900280CDA401CC8
:101CB00008D1BBF1000F05D04FF0FF300DB0BDE8EB
:101CC000F08FFFE74046F9E7E90701D108F1010885
:101CD00006444FF0000B79E6CCCCCC0C70B521F06B
:101CE000004303430CD0C1F30A550024D5EB04058F
:101CF00064EB0403D617AD1AB34102DB00200146A2
:101D000070BD201841EB025170BD000038B5684627
:101D10000CF0EEF90420FFF715FD69460CF0E0F930
:101D2000044668460CF0ECF9024A03492046FFF7E6
:101D30005AFD000001E10008E047010810B5441A0F
:101D40000346944209D28418114403E011F8013D7E
:101D500004F8013D521EF9D210BD40EA0104A40767
:101D600003D009E010C9121F10C3042AFAD203E0FD
:101D700011F8014B03F8014B521EF9D210BD2DE9A9
:101D8000FF4F1C4681B00021D4E9016791464FF016
:101D9000FF358A468846A1696D1C02988847216AEA
:101DA000834688470028F6D1BBF1FF3F0CD026F4CC
:101DB000C066002F1ADD700615D5BBF12B0F0AD0B7
:101DC000BBF12D0F0FD104E04FF0FF3005B0BDE89F
:101DD000F08F46F48066A1696D1C029888477F1ECB
:101DE0008346002F02DDBBF1300F03D0B9F1000FA5
:101DF0002AD025E0A1696D1C46F400767F1E02986A
:101E000088478346002F05DDBBF1780F06D0BBF174
:101E1000580F03D0B9F1000F10D011E0B9F1000F45
:101E200002D0B9F1100F0BD1A1696D1C26F4007618
:101E30007F1E029888478346102000E008208146D4
:101E40004FEAE970009017E00A20F8E74346AAFB42
:101E5000092803FB0980DDF800C07F1E0AFB0C0186
:101E600012EB0B0A41EBEB78A16946F4007605F121
:101E70000105029888478346002F06DD49465846EB
:101E8000FFF7BFFA5FEA000BE0D5E16902988847E7
:101E9000B00502D46FF0010098E7F00718D1700682
:101EA00010D57005514605D50023D1EB030163EB36
:101EB000080200E042462068031D23600068C0E974
:101EC000001205E02068011D21600068C0E900A83B
:101ED00028467BE72DE9FF5FD2E901A74FF0000814
:101EE000916999461446DDF838B04646019888470E
:101EF000054659EA0B0005D009E0A169761C019856
:101F000088470546216A284688470028F5D1681C7D
:101F100003D05FEACA7005D015E04FF0FF3004B07F
:101F2000BDE8F09F2068011D2160D0F800800AE024
:101F30005FEACA7001D108F8015BA169761C7F1EB7
:101F4000019888470546002F1ADD681C18D0B9F1A2
:101F5000000F0DD0E81705EBD060421120F01F00F4
:101F600059F822102A1A012090400142E0D107E0DE
:101F7000BBF1000FDCD1216A284688470028D7D062
:101F8000E16901988847BBF1000F07D1002E05DDFC
:101F90005FEACA7002D1002188F80010A068B84238
:101FA00003DDBBF1000F03D017B16FF00100B6E7FE
:101FB0003046B4E700487047F00300207047000047
:101FC00070B5054C054D03E0206820448047241D72
:101FD000AC42F9D170BD00005C50010868500108A6
:101FE00070B58C1810F8015B15F0070301D110F8DB
:101FF000013B2A1106D110F8012B03E010F8016B08
:1020000001F8016B5B1EF9D12B0705D40023521E8A
:102010000DD401F8013BFAE710F8013BCB1A921CF2
:1020200003E013F8015B01F8015B521EF9D5A142F0
:10203000D8D3002070BD38B504466846AFF30080A1
:102040000146204611F0C2FC38BD0029816802D04B
:1020500041F0010101E021F00101816070470000C1
:10206000084B10B5D3F8042307490A40D0E90014FF
:102070002143D0E90240044321431143C3F8041330
:1020800010BD000000200140E030FCFF0021016095
:1020900041608160C16070470029816802D041F4CD
:1020A000807101E021F480718160704700298168AE
:1020B00002D041F4007101E021F4007181607047A9
:1020C00010B501210C02204602F026FA2046BDE898
:1020D0001040002102F020BA30B542680F4B0C7955
:1020E0001A400B6842EA04221343436082680C4B97
:1020F0004D791A40D1E9034323438C6844EA4504EF
:10210000234313438360C26A097D22F47002491E8F
:10211000C9B242EA0151C16230BD0000FFFEFFFCBE
:10212000FDF7FFC070B5072409290AD9C568A1F1D8
:102130000A0606EB4606B440A543B3401D43C560FE
:1021400007E0056901EB4106B440A543B3401D43D8
:1021500005611F23072A09D2446B521E02EB82023B
:1021600093409C4391400C43446370BD0D2A09D2B7
:10217000046BD21F02EB820293409C4391400C43BC
:10218000046370BDC46A0D3A02EB820293409C4323
:1021900091400C43C46270BD816841F08041816010
:1021A000704700210160017141718160C16001616E
:1021B000012101757047000010B500210248006838
:1021C00009F0ACF910BD00001800002003480068B9
:1021D00040F00400014908607047000004640040BA
:1021E00010B500210248006809F0C2F910BD0000D6
:1021F0001800002010B500210248006809F08EF98F
:1022000010BD0000180000200348006840F00400E2
:1022100001490860704700000468004010B50021C3
:102220000248006809F0A4F910BD00001800002061
:10223000094910B588424FF0010101D14C0601E077
:102240004FF08064204602F04FF92046BDE8104070
:10225000002102F049B9000000640040F0B5827A24
:10226000012191402E4A136843F0010313602C4B67
:102270001C331C688C431C60294D067B294C0C3593
:10228000A6B92E688E432E604688C78846EA074660
:10229000877A04EBC707C7F840660688878846EA4E
:1022A0000746877A04EBC707C7F84466067B012E0A
:1022B00012D12E680E432E60867A056804EBC6069E
:1022C0004FEA3545C6F84056867A456804EBC604A1
:1022D0004FEA3545C4F84456114CC57A241D002DEB
:1022E000256806D00D4325600D4C0589143415B1C1
:1022F00004E08D43F7E725688D4325600589012DAE
:1023000002D125680D432560407B012802D1186861
:1023100008431860106820F001001060F0BD000054
:102320000066004000600040002A426901D00A4374
:1023300000E08A434261704710B50368002223F031
:1023400002030360036843F0010303604FF6FF7369
:1023500000E0521C4468E40701D19A42F9D1426876
:10236000D2073ED08A79012A02683CD022F080024E
:102370000260CA79012A026838D022F04002026065
:102380000A7A012A026834D022F0200202604A7AD6
:10239000012A026830D022F0100202608A7A012AF3
:1023A00002682CD022F008020260CA7A012A026870
:1023B00028D022F0040202608A78CC78920742EAA0
:1023C00004620C7942EA04424C79098842EA0452D8
:1023D000491E0A43C261016821F001010160002128
:1023E00014E0002010BD42F08002C1E742F040023C
:1023F000C5E742F02002C9E742F01002CDE742F003
:102400000802D1E742F00402D5E7491C4268D2072E
:1024100001D09942F9D14068C007E2D1012010BD36
:1024200010B500EB0113D3F8B04114F0040414729A
:10243000D3F8B04134D0E408C2F80440D3F8B04136
:1024400004F002045472D3F8B44104F00F049472FF
:10245000D3F8B441240AD474D3F8B841D472D3F871
:10246000B841240A1473D3F8B841240C5473D3F838
:10247000B841240E9473D3F8BC41D473D3F8BC4153
:10248000240A1474D3F8BC41240C5474D3F8BC311E
:102490001B0E937439B1016941F02001016110BD37
:1024A000640D1460CAE7C16841F02001C16010BD2D
:1024B00000218171C171017241728172C17281709A
:1024C000C170032101710221417101210180704716
:1024D00030B50246002093685B0108D49068000183
:1024E00001D5012003E09068C00037D5022002EB3F
:1024F0000012D2F8803103F00103C2F880310B7A68
:1025000073B3D2F880414D681C434B7A43EAC5034C
:102510001C43C2F880418B7A03F00F038B72D2F810
:10252000843123F00F03C2F88431D2F884318C7ADD
:102530002343C2F88431CB7ACC6843EA0423C2F83F
:102540008831CB7B096943EA0121C2F88C11D2F8AA
:10255000801141F00101C2F8801130BD042030BD6E
:10256000D2F880314C7A23430C8843EA4453C2F8B2
:102570008031D0E710B50022044B03E050F8224030
:102580001C60521C8A42F9D3186810BD003002400A
:10259000014901208860704700300240044A01234D
:1025A0008340106809B1184300E0984310607047F9
:1025B00000740040044A93148340106809B1184322
:1025C00000E09843106070470074004010B501218E
:1025D0004C07204601F088FF2046BDE8104000214E
:1025E00001F082BF30B5084C236840F6FE7282408D
:1025F0009343D1E900252A43D1E902510D432A43EF
:1026000082401A43226030BD00740040034A08B57E
:10261000104408300090016008BD000000740040C4
:102620000309054A012098400029116801D001439F
:1026300000E0814311607047047400400021016094
:1026400041608160C160704710B50A460C0601F018
:102650007F0303EB830100EBC10102D501F58E710D
:1026600001E001F55D71D2090B704A7005F0F2FBD3
:10267000002010BD0A4610B5090602F07F0306D5FA
:1026800003EB830100EBC10101F58E7105E002EB64
:10269000820100EBC10101F55D7100248C700B70AB
:1026A000D2094A7005F0BDFB002010BD10B50A0626
:1026B00004D501F07F0105F0FBFC01E005F0DCFC36
:1026C000002010BD70B50C460E0601F07F0505EB2D
:1026D000850100EBC10102D501F58E7101E001F524
:1026E0005D71E4090D704C708A60CB7000D0CD80B4
:1026F000022B01D100220A7105F06AFB002070BD97
:1027000010B501F07F0404EB840100EBC101C1F8B6
:102710008833C1F880230023C1F88C3381F87533E6
:1027200081F87443C37801F55D71012B00D10A6112
:1027300014F0FF0F03D005F0BFFB002010BD05F023
:10274000D9FAFAE70069002261F30A12016811431D
:10275000016070470A4610B5090602F07F0306D5EE
:1027600003EB830100EBC10101F58E7105E002EB83
:10277000820100EBC10101F55D7101248C700B70C9
:10278000D2094A7005F080FB002010BD70B511F031
:102790007F0404EB840100EBC1014FF0010581F8D7
:1027A0001D5181F81C41C1F82821C1F82C2101F5E7
:1027B0008E714FF00002C1E9053203D005F07CFBB9
:1027C000002070BD05F096FAFAE700002DE9F0410F
:1027D0000646002505F0F0FD074655E0F80751D004
:1027E0003069EAB20369416BD14006EB820201F025
:1027F0000101926943EAC11194680C40E1071AD0C3
:102800000124426B04FA05F18A43426306EB85001A
:10281000806984601F48E9B200684268304690478A
:10282000F078012807D135B996F81101042802D1B2
:10283000304605F0BBFA200704D506EB85000824D6
:1028400080698460E00604D506EB85001024806969
:102850008460600604D506EB8500402480698460AE
:10286000A00704D506EB8500022480698460200659
:1028700008D52946304600F067F906EB850180202F
:10288000896988607F086D1C002FA7D10120BDE8F1
:10289000F0810000A80100202DE9F0410646002447
:1028A00005F090FD0746DFF8988043E0F8073FD039
:1028B000E1B2304605F08CFD0546C00725D006EB99
:1028C00084000125416D8D60F17801290CD1406DA6
:1028D000016904EB840006EBC000C1F31201D0F8DB
:1028E0007C23511AC0F88C13D8F80000E1B20268BA
:1028F00030469047F078012807D134B996F8110195
:10290000052802D1304605F051FAA80704D506EB98
:1029100084000225406D8560280709D5D8F800009D
:1029200081683046884706EB84010820496D88603D
:102930007F08641C002FB9D10120BDE8F0810000A0
:10294000A801002070B50646C068816921F0100119
:102950008161F068056A05F00F0000EB800006EB6E
:10296000C004C5F3434004F55D74072821D2DFE8B5
:1029700000F0202004202020150047F6F0700542CA
:1029800017D0C5F30A152A463046E16805F031FD37
:10299000E0682844E060A069284409E0082206F2C3
:1029A000CC51304605F025FDA069C5F30A11084455
:1029B000A061F068816941F010018161012070BD62
:1029C00038B5044600208DF8000094F812018DF807
:1029D00000001548006841692046884720698068E2
:1029E000E2684FF400615161A17AD1B1C00718D0FB
:1029F00094F81501012814D19DF80000032810D186
:102A0000D4F80C01016841F001010160D4F80C0117
:102A1000016841F0030101600448016841F00601CA
:102A20000160012038BD0000A801002010ED00E089
:102A300070B50446006900250126416821F00101B6
:102A400041602946204605F033FB0020FF2106E0C7
:102A500004EB800293699960526D9160401C62782A
:102A60008242F5D821694FF0FF30886128462169FC
:102A700066F30F0066F31F40C861216945F00B0043
:102A80004861216945F00B0008612069016821F463
:102A9000FE610160204605F089F9E1684FF480503D
:102AA000486103480068016920468847012070BDDD
:102AB000A801002070B5044605F0C0FC01220023E7
:102AC00084F8122184F814311946402511E000BF22
:102AD00001EB810004EBC00080F81D2180F81C117F
:102AE000A0F8221180F81F31C0E94953491CC0F8F1
:102AF000303160788842EBD8002110E001EB810092
:102B000004EBC00282F8753382F87413A2F87A13CA
:102B100082F87733C2E9DF53491CC2F88833607802
:102B20008842EBD8204605F0A3F8204604F048FF81
:102B30000021204605F0E2FC204604F081FF2046FB
:102B4000BDE8704005F073BA2DE9F0470E46054622
:102B500001EB860005EBC004D4E94C01421AD4F81D
:102B6000240104F58E74904200D20246D21C9708CC
:102B700005EB860923E000BFA0EB0108A1684145F1
:102B800000D2884608F1030087081FFA88F3F2B2E2
:102B90002846E16806F0B0FBE16801EB0800E06060
:102BA000A16901EB0800A0616169884207D321781F
:102BB0000120884029694A6B82434A630BE0D9F8B7
:102BC0001800806980B2B84205D9D4E90501814274
:102BD00001D20028D0D10120BDE8F087002901688A
:102BE00002D041F0010101E021F0010101607047D4
:102BF0002DE9F04190B00546684600F009F9012141
:102C0000880501F04DFCDFF88880404600F044F86C
:102C1000204F4FF00066CDE90067686800246946E0
:102C2000006802904020CDE90304C002CDE90940CC
:102C3000C011CDE90540089407940D9440460E94C8
:102C400000F0BCF801214046FFF7C8FFDFF84080E4
:102C5000A8F17808404600F01FF8CDE90067286821
:102C600069460068CDE90204802004904000099084
:102C7000404600F0A3F801214046FFF7AFFF0122D4
:102C8000C021381F02F06EFC10B0BDE8F0810000DA
:102C9000B8640240041001402DE9F043016821F0BE
:102CA000010101600021016041608160C16001613A
:102CB000212141613C493C4A3D251039904202D1D5
:102CC0008D60BDE8F083384A4FF474661832904244
:102CD00001D18E60F5E7344A4FF4741730329042D8
:102CE00001D18F60EDE7304A4FF0746C483290426A
:102CF00002D1C1F808C0E4E72B4B2C4A603398425C
:102D000001D1CA60DDE7284C294B7834A04201D1BB
:102D1000CB60D6E7DFF89080264C08F1900840455C
:102D200001D1CC60CDE7DFF880804FF03D5908F14C
:102D3000A808404502D1C1F80C90C2E71E49DFF84F
:102D400078800839404501D10D60BAE71A4D183531
:102D5000A84201D10E60B4E7174D3035A84201D129
:102D60000F60AEE7144D4835A84202D1C1F800C04B
:102D7000A7E7114D10496035091FA84201D10A602B
:102D80009FE70D4A7832904201D10B6099E70A4AD9
:102D90009032904201D10C6093E7074AA8329042EA
:102DA0008FD1C1F800908CE7106002403D000020F8
:102DB000400F002000003D201064024030B5036841
:102DC000124ACC6813400A682243D1E905452C43D6
:102DD0002243CC6922430C6A22434C6A22438C6A08
:102DE00022434C6B22438C6B22431A43026042699C
:102DF00022F00703D1E90B2422431A4342610A69F6
:102E000042604A6882608968C16030BD3F801CF0C2
:102E10000021016041608160C160016141618161A7
:102E2000C161016241628162C16201634163816388
:102E30007047000030B589B004000ED094F900004E
:102E4000442878D012DC312806D00ADC2B2873D035
:102E50002D2872D0302871D1C4E065A00BF0A0FEFF
:102E6000AFE040286BD04228F5D111E057282DD093
:102E700004DC4C284AD05328EDD169E0762802D0F2
:102E80007828E8D19FE04FF4807001F0D9FA98E0FB
:102E9000601C2C22694610F001F800284ED0012851
:102EA0000CDD102200210198FDF74EFE0446102291
:102EB00000210098FDF748FE047082E010220021F6
:102EC0000098FDF741FE01784AA01CE0601C2C220E
:102ED00069460FF0E3FF002830D001280CDD1022F6
:102EE00000210198FDF730FE0446102200210098D1
:102EF000FDF72AFE048064E0102200210098FDF70F
:102F000023FE01883DA00BF04BFE5AE0601C2C22F2
:102F100069460FF0C3FF88B1012811DD102200219E
:102F20000198FDF711FE0446102200210098FDF7DC
:102F30000BFE046045E010E050E04BE056E035E069
:102F4000102200210098FDF7FFFD01682DA0DAE7AF
:102F500020460FF0D3FE09B030BD601C2C2269461C
:102F60000FF09CFF022841DB4FF0FF34032803D110
:102F70000298007869280CD0214601980FF08CFB4C
:102F80000546214600980FF087FB29460FF080FE8A
:102F900017E0214601980FF07FFB05462146009877
:102FA0000FF07AFB29460FF089FC0AE014F8010FB4
:102FB0002028FBD015A12046FDF717FB20460DF079
:102FC000FFF90020C7E7002112480DF0B3F90FF018
:102FD000C1FCC0E7601C00F043FABCE7601C00F0D5
:102FE000DBFBB8E7204600F017F8B4E70120B2E7B2
:102FF0000D0A3E002C253032580000002C253034BC
:10300000580000002C253038580000002E626174F2
:1030100000000000E1F800082DE9F041ADF5D36DA6
:1030200005000DF2846089AC4FF4807650C01ED04C
:10303000287800282BD020220DF24C6128460FF072
:103040002DFF0446DDF84C06FDF7E5FA8046024602
:10305000E1A0DDF84C16FDF7FCFAE04F38B342462C
:10306000DFA0DDF84C16FDF7F4FA00B334E0DDA084
:103070000BF096FDFF2189A80EF014F820B989A95C
:10308000D9480EF047FD18B1D8A00BF089FD99E1A1
:1030900089A8FDF7C0FA204489A910F8010C2F284F
:1030A00003D0D3A00BF07CFD8CE1D2A0FAE7284638
:1030B0000DF0CCFF00281ED1FF2189A80DF0F2FFF2
:1030C0000028F8D189A9C8480EF024FD0028F2D1C3
:1030D000AFF2BB00396848614246C7A0DDF84C1624
:1030E000FDF7B7FAC04DB0B9022CE4D10021284653
:1030F0000EF008FE60B1E4E00DF26C62BA49DDF852
:1031000050060FF08BF818B10EF002FF002874D1B2
:1031100028690028F0D14246B9A0DDF84C16FDF729
:1031200098FA40B9022CE6D00DF5CA6003C80EF03B
:1031300016FE0028DFD14246B3A0DDF84C16FDF79D
:1031400088FAD0B9022C18D101226846DDF8501651
:103150000EF040FC0028DAD1A2A00BF021FD05E022
:103160000DF090FF0146AAA00BF01AFDDDE9020167
:1031700088426846F4D10DF077FF4246A5A0DDF8FD
:103180004C16FDF766FA38B9022C7AD1DDF85006F4
:103190000EF0ADF80028BAD14246A0A0DDF84C16DA
:1031A000FDF757FA38B9022C6BD1DDF850060DF057
:1031B00023FF0028ABD142469AA0DDF84C16FDF75C
:1031C00048FAE8BB022C02D0032C1AD079E03A214D
:1031D000DDF85006FDF715FA411C01290ED00878DC
:1031E0002F2800D1491CC9A8FDF72AFAC9A9DDF882
:1031F0005006FDF717FA38B10AE041E0DDF8501645
:10320000F1E7DDF85416EEE788A1C9A8FDF7EDF95E
:10321000C9A8FDF700FAC9A9084410F8010C3A281A
:1032200004D1C9A8DDF85016FDF7DFF90122684680
:10323000DDF850160EF0CEFB002821D10A2200E066
:1032400026E0C9A90DF224400EF0C4FBB0BB08E093
:1032500068460EF0A9FF0DF224410FF077F9401CEB
:1032600003D0DDE902018842F2D1DDE902018842A2
:10327000684607D00DF0F8FE0DF224400DF0F4FE84
:1032800074E02AE00DF0F0FE0DF224400DF0ECFEAB
:10329000424668A0DDF84C16FDF7DBF978B14246EE
:1032A00066A0DDF84C16FDF7D4F9A0B1424665A042
:1032B000DDF84C16FDF7CDF9E8B37CE01FE0022CF9
:1032C00004D001200DF5D36DBDE8F081DDF8500686
:1032D00000F01CFBF6E7032C01DA0320F2E70122E1
:1032E0006846DDF850160EF075FB28BB12220DF271
:1032F0002440DDF854160EF06DFBC9ACB8B1684639
:10330000BCE7CDF8484609E010220DF5C961FDF78C
:103310001BFC40B20DF224410EF030FCC9A8FDF7B1
:103320007AF90119DDF84806891E8142ECD86A460F
:103330003146C9A801E00CE018E00EF051FF00286A
:10334000DFD168460DF090FE0DF224400DF08CFEAA
:1033500038E0022C0CD12448DDF850160EF0DAFBD0
:1033600020B9002120480EF0CDFC08B10520A9E7C6
:103370004FF6FF760DF275640DF26C611A480EF08F
:10338000C1FC2869B8B1288CB04202D0DDF884169F
:1033900000E021462CA00BF003FC9DF87406C0064B
:1033A00003D52BA00BF0FCFBE6E72AA0DDF86C169A
:1033B0000BF0F6FBE0E7424627A0DDF84C16FDF7E0
:1033C00048F908B100207DE73968244848610020A9
:1033D000FFF730FD76E70000303A0000780000206B
:1033E000313A00000D0A0000001400203F3A2F007F
:1033F00025732F002573000064656C6574650000FB
:1034000072656E616D650000747970650000000082
:10341000256300006D6B646972000000636469726B
:1034200000000000636F7079000000005F436F7060
:103430007900000066696C6500000000666F726DBF
:1034400061740000646972000D0A252D3136730025
:103450002F000000256400003E000000352E00080B
:10346000F0B590F9001089B001244FF0FF376D4698
:103470006C297DD00EDC4FF47A66462953D004DCEB
:1034800041294DD0442913D10EE150292FD0642970
:103490000ED123E16D296CD071296BD074291FD016
:1034A000752905D1202229460FF0F8FC022802D008
:1034B000012009B0F0BD00F0CDFD8F49C8200CF00F
:1034C0005BFF019890F9000066280AD0682802D0B6
:1034D000732805D108E08A498848086000F0BAFDE1
:1034E00008E100F087FD05E100F09CFD02E13046B7
:1034F00005F0ACFF002000F0A3F9044601462522A8
:1035000080A00BF04DFB0A2C02DD384600F098F944
:1035100083A00BF045FB4FF4967005F097FFE9E0B0
:103520000CF0B2FEE6E0202229460FF0B7FC02289C
:1035300001DA0320BDE701984FF4805590F90000AF
:10354000662818D0752801D00220B2E776A00BF0CB
:1035500027FB694905200CF00FFF79480EF024FE87
:10356000411CF6D07928BBD12A46012175A029E05B
:103570002DE084E035E074A00BF012FB304605F03E
:1035800065FF5D4905200CF0F7FE6D480EF00CFE5E
:10359000411CF6D0792817D171A00BF001FB002453
:1035A0005FF0300606EBC40000F006FA08280CD0E5
:1035B0006EA000BF0BF0F4FA641C052CF2DB2A4667
:1035C00001216BA00DF04AFF94E06AA0F2E72C22E3
:1035D0002946401C0FF062FC0146684600F0C6FB1D
:1035E00088E02C222946401C0FF058FCF0B3624CB6
:1035F0003BE0394600980FF04FF8D4F800128842AB
:1036000031D100255DA00BF0CBFA0026A919605C32
:10361000C043C1B25AA00BF0C3FA761C102EF5DBE2
:103620000026A9196056C043C1B221395E2904D2CF
:10363000C1B23AA00BF0B4FA02E04EA00BF0B0FA1F
:10364000761C102EEDDB1035B5F5007FDADB4E4829
:103650000BF0A6FA0CF048FE39480EF0A5FD411C0F
:10366000F8D01B2846D004F5017400E004E0D4F83B
:103670000002401CBDD13DE001F0FCFA3AE02C22F2
:103680002946401C0FF00AFC0646404F09E000BFE7
:1036900055F82600FDF7C9FA396804FA00F08143AD
:1036A0003960761EF4D225E02549394A401C096864
:1036B00011602C2229460FF0F1FB0646354F0AE037
:1036C000002255F826001146FDF73EFA396804FA43
:1036D00000F081433960761EF2D20BE020222946A9
:1036E0000FF0DCFB022805D10198FDF79EFA024994
:1036F0000CF042FE0020DCE6E9020108BD6900088A
:10370000300100200D0A3E5061636B696E672073C3
:103710006563746F72732E2E2E202564256300005E
:1037200020446F6E650000000D466F726D6174205D
:10373000757362202E2E2E5B792F6E5D00000000C7
:1037400078000020313A00000D466F726D617420E0
:10375000666C617368202E2E2E5B792F6E5D0000E3
:103760002065726173696E67200000003F000000F1
:10377000303A00002E000000000004080D0A00008E
:103780002530325820000000704D01083000002024
:10379000080100202C000020F0B590F9001089B03D
:1037A00001246E46442927D06D2904D0772917D0EB
:1037B000012009B0F0BD2C223146401C0FF06EFBF9
:1037C00005461B4F09E000BF56F82500FDF72DFA0E
:1037D000396804FA00F0084338606D1EF4D224E022
:1037E0002C223146401C0FF059FBF0B10098FDF738
:1037F0001CFA05F02BFE18E00E490F4A401C096820
:1038000011602C2231460FF049FB05460B4F0AE0B0
:10381000002256F825001146FDF796F9396804FA9A
:1038200000F0084338606D1EF2D20020C1E70000AE
:103830003000002078000020080100202C0000202B
:103840002DE9F04700252F4CADF5007D8046AA46B6
:1038500030274FF4003600BF04F5017081466D1C1F
:10386000D4F8001202E000BF00F50170D0F8002289
:10387000914202D0521CF7D126E0501C24D00AF10C
:10388000010A204620494C460844B04203DAD4F8E5
:103890000002401CE0D1B8F1000F02D0384600F021
:1038A0008BF8D4F8000206F50036401C07F1080733
:1038B000D2D1B8F1000F1ED0384600F07DF80020BC
:1038C0000DF5007DBDE8F0870020694654F8202002
:1038D000D24341F82020401C8028F7DB05F0AAFDE8
:1038E000B8F1000FCDD0012369460020D4F80022A2
:1038F00001F084F9C5E764210AFB01F090FBF5F0C3
:10390000DEE70000000004080402FCF770B5204C5C
:103910000646204D206848B146B33178042929D0A5
:1039200032461DA10BF02EF9002070BD4FF4097135
:103930000120FCF79DFE206028B1132231460EF0D5
:1039400049F810B106E0062070BD2068C1680DF08E
:1039500037FC20B120680EF01FFE052070BD10A1BD
:1039600020680BF00FF9AFF25B000EE00DA00BF03A
:1039700017F9D9E70EF080FA20680DF075FB206882
:103980000EF00AFE00202060074829684861CBE756
:10399000E80000207800002025730D0A00000000D8
:1039A0000D0000000D0A00001930000801490860F0
:1039B000704700000C3C024010B5044600F08EF841
:1039C000F320FFF7F3FF00BF05F034FD022120468E
:1039D00000F004F80128F7D010BD000070B50646CD
:1039E000002529B1012927D0022928D04FF440759C
:1039F00000F086F808281ED1124C206820F4407090
:103A00002060206828432060206820F0F8002060B3
:103A1000206846F0020108432060206840F48030AE
:103A2000206000F06DF8216821F00201216021681A
:103A300021F0F801216070BD4FF48075D8E74FF494
:103A40000075D5E7103C02400B4908200A68D203F4
:103A500001D5012070470A68D20601D505207047BC
:103A60000A6812F0EF0F01D0062070470968890735
:103A7000FBD50720704700000C3C024070B50C4697
:103A8000054600F02BF8F320FFF790FF05F0D2FC7D
:103A90002146284600F004F80128F7D070BD000048
:103AA00070B50D46064600F02BF8082813D10A4CD5
:103AB000206820F440702060206840F4007020608E
:103AC000206840F001002060356000F019F821689E
:103AD00021F00101216070BD103C024005480068E2
:103AE000002805DA034804490C38016003490160E5
:103AF00070470000103C024023016745AB89EFCDC1
:103B000008B508208DF80000FFF79EFF8DF8000033
:103B10009DF800000128F7D09DF8000008BDF0B521
:103B20000023012403270D6804FA03F2154095428F
:103B300042D1D0F800C05E0007FA06F52CEA050C69
:103B4000C0F800C091F804C0D0F800E00CFA06FC00
:103B50004CEA0E0CC0F800C091F804C0BCF1010F93
:103B600002D0BCF1020F1FD1D0F808C02CEA050C1E
:103B7000C0F808C091F805C0D0F808E00CFA06FCBF
:103B80004CEA0E0CC0F808C0D0F804C02CEA020CB5
:103B9000C0F804C0426891F806C00CFA03FC1FFA92
:103BA0008CFC42EA0C024260C268AA43C260CA7935
:103BB000C568B2402A43C2605B1C102BB3D3F0BD72
:103BC0004B07DB0E9A40C90810B500EB8100016A73
:103BD0000F249C40A1430162016A1143016210BDA0
:103BE000006980B270470246002012690A4200D084
:103BF0000120704741837047018370474FF6FF7182
:103C000001600021017141718171C171704740698A
:103C1000806880B27047D0F8CC000068C0F34140A3
:103C20007047084490F87F08704700EB8100D0F897
:103C30003408704710B5044600221046C4F8F42733
:103C400004EB8203C3F8F807C3F83408A31883F819
:103C50007008521CD2B20F2AF2D30820A4F896089A
:103C6000204604F0EBFB204604F002F8204603F067
:103C7000A7FE0121204604F041FC204603F078FF16
:103C8000204604F0D4F9002010BDD0F8F4077047A6
:103C900010B504F0BEFB002010BD0022431883F8CD
:103CA0007F2800EB4113C3F8A42804F0DDBA00001C
:103CB000F0B416490A78012A09D0CA680025802A7A
:103CC00000D1CD60D1E902329A4202D10D70F0BC30
:103CD000704702D9C2F1800301E0A3EB02031C4646
:103CE0000B61402B96B205D940234032403CC1E9DC
:103CF000032403E02244C1E90325A3B201220A7090
:103D000003498A19F0BC8121FEF740BD480200201A
:103D1000E814002002494CF6CC40086070470000CF
:103D200000300040034A01460020D2680A4200D019
:103D3000012070470030004002494AF6AA2008607E
:103D400070470000003000400149486070470000A3
:103D5000003000400149886070470000003000409A
:103D60000149086070470000003000402DE9FC4721
:103D700006460F466846FFF741FF4FF001098DF8F0
:103D800004908DF8069017B10024274D38E00023E9
:103D900026A2194628480CF09FF9BDE8FC8700BF11
:103DA00056F8240090F900006138092839D2DFE87C
:103DB00000F005072A2C2E30323436001F4800E070
:103DC0001F4845F8240056F82400401C46F82400FB
:103DD000FCF72BFFDFF8508009FA00F008F1280803
:103DE00001B228F81410009155F824006946FFF735
:103DF00096FE38F8141055F82400FFF7FDFE641CF9
:103E0000BC42CDDBC9E70F48DBE70F48D9E70F48D5
:103E1000D7E70F48D5E70F48D3E70F48D1E70F485A
:103E2000CFE70020CDE70000340900205F6C696710
:103E3000687473686F770000E1F8000800000240C2
:103E40000004024000080240000C02400010024042
:103E50000014024000180240001C024000200240F2
:103E600038B54FF4C06000F06FFA01208DF8010002
:103E700003248DF802408DF8030019208DF800000E
:103E8000684600F02FFA02208DF801003C208DF8E2
:103E90000000684600F026FA1F208DF800006846F2
:103EA00000F020FA20208DF80000684600F01AFA91
:103EB0008DF8014014208DF80000684600F012FAD9
:103EC00040208DF80000684600F00CFA13208DF8B1
:103ED0000000684600F006FA3F208DF800006846B2
:103EE00000F000FA28208DF80000684600F0FAF98A
:103EF00017208DF80000684600F0F4F912208DF8C4
:103F00000000684600F0EEF91D208DF800006846BC
:103F100000F0E8F91E208DF80000684600F0E2F994
:103F200025208DF80000684600F0DCF938BD00005F
:103F3000F0B589B0074607A8FFF760FE02208DF8AC
:103F400020000602274D00248DF8224007A92846AC
:103F50000796FFF7E4FD01208DF82300800207900B
:103F600007A92846FFF7DBFD072209212846FFF7AE
:103F700027FE07220A212846FFF722FE8021084655
:103F80000BF044FC05461848E860184828610121F8
:103F9000102000F0B5FAADF81860154EADF81440D9
:103FA000ADF81640ADF81A4005A9304601F0C2FA46
:103FB000ADF80C400C20ADF80840ADF80E000197AC
:103FC000ADF80A40ADF8104001A9304601F0F2FA10
:103FD0002846FEF70DFE0121304601F0B9FA09B07E
:103FE0002846F0BD0000024069260108512A010858
:103FF0000010014008B5002105480CF09BF9054868
:104000000090054B054A0121054801F0C1FC08BD9F
:104010000579000880000020C4010020140200205F
:104020007009002008B5002105480CF083F9054807
:104030000090054B054A0121054801F0A9FC08BD87
:10404000057900089C000020B4020020E002002056
:104050007009002008B5002306A2194608480CF094
:104060003BF808480090084B084A0121084802F034
:10407000A7FC08BD55534220686F73740000000010
:104080000579000834010020640300202414002076
:104090007009002070B50E4905460E4C087B38B9F2
:1040A000886828B1607818B901212846FEF752FBCC
:1040B00081212846FEF74EFB6078022807D128466A
:1040C000BDE870401F23024A0121FEF719BB70BDF5
:1040D000A8270020280300202DE9F041284C07469E
:1040E00004F1200660687060A068B0600121384665
:1040F00001F023FC234D1F280AD123492068884260
:1041000006D1617B012903D8A07B08B1102807D90B
:10411000607B2022052100F0BBFC0220687006E0D5
:10412000174A38460F3200F081FA002804DA384680
:10413000BDE8F041FFF7AEBF287802281ED0012865
:104140001CD003281AD0698891B1A3680F4A384659
:104150008B4200D219468BB2B168C91AB1600021F6
:10416000317304212970BDE8F0418121FEF70EBBB7
:104170003846BDE8F041002100F096B8BDE8F08176
:10418000A82700202803002055534243A8170020E9
:1041900010B5094C6278022A08D009060BD5012A0D
:1041A00009D0BDE81040012100F07EB88121FEF762
:1041B000D1FA0020607010BD2803002010B504461D
:1041C0000C480078022805D0032801D0042810D11B
:1041D000002109E0084800F10F02417B204600F071
:1041E00025FA002805DA01212046BDE8104000F03C
:1041F0005BB810BD28030020A827002010B5044696
:104200000C48007880B1012813D10B4800F10F024F
:10421000417B204600F00AFA00280ADA2046BDE871
:104220001040012100F040B82046BDE81040FFF7E3
:1042300053BF10BD28030020A827002001490020FB
:10424000087070472803002010B504460C48002170
:10425000017041700B480068016800208847012107
:104260002046FEF723FA81212046FEF71FFA20465A
:104270001F23BDE81040044A0121FEF741BA0000A7
:10428000280300202C010020A82700200449002238
:104290001F230A7001224A70024A0121FEF730BA38
:1042A00028030020A827002010B50C4A04460A481D
:1042B000106011730A4900200D23087081212046E7
:1042C000FEF764FA054A20461F23203ABDE8104055
:1042D0000121FEF715BA000055534253C8270020AC
:1042E0002803002030B50F22C47801780123FCB1E7
:1042F000144C246801F1E02104F4E064C4F5E064A6
:10430000C4F30724C4F10405E2404478AC40857846
:10431000154025432A0181F80024007800F01F0190
:104320008B404009800000F1E020C0F8003130BD32
:1043300001F01F0083404809800000F1E020C0F830
:10434000803130BD0CED00E00249084302490860AD
:10435000704700000000FA050CED00E00907090EA7
:10436000002806DA00F00F0000F1E02080F8141DAC
:10437000704700F1E02080F80014704710B506483F
:1043800004F00EF818B1044802F0EDFF02E0024814
:1043900001F046FC10BD0000700900202DE9F0413D
:1043A00005003CD0686908B91E48686128460BF0D2
:1043B00089FE80464FF0FF371B480DF0F5FE394669
:1043C0000646884228D0192E07D01A2E04D00CF0A9
:1043D00015F804000ED11DE0FEE7BFF34F8F134820
:1043E0000168134A01F4E06111430160BFF34F8F8C
:1043F000FEE7641C20782028FBD0696920468847A6
:104400000146207818B111B10AA00AF0C9FB696908
:1044100000208847761CCFD140460BF053FE28463B
:10442000BDE8F081352E0008780000200CED00E09A
:104430000400FA052E2E2E20575446282564290004
:1044400038B504460121080300F02AF8FEF7A0F869
:1044500009480A49081A81080748FEF78BF86421C1
:1044600094FBF1F201FB124294FBF1F1009004A3E2
:1044700006A00AF095FB38BD000000080000040803
:104480004465632031302032303135002025642EE0
:10449000253032642025732C203C253038583E00CE
:1044A000044A0029116801D0014300E081431160F2
:1044B0007047000030380240044A0029116801D0DA
:1044C000014300E08143116070470000343802402E
:1044D000044A0029116801D0014300E081431160C2
:1044E0007047000040380240044A0029116801D09A
:1044F000014300E081431160704700002038024012
:10450000044A0029116801D0014300E08143116091
:104510007047000044380240044A0029116801D065
:10452000014300E0814311607047000024380240DD
:104530000248016841F080710160704774380240A0
:1045400070B5204A1168204C11F00C0104D01F4EA8
:10455000042903D0082903D004601BE0066019E099
:104560001849091F0B68C3F380550B6803F03F031C
:1045700015B1B6FBF3F301E0B4FBF3F30C68096883
:10458000C4F388146343C1F30141491C4900B3FBE0
:10459000F1F1016011680F2303EA11110C4B5C5C0F
:1045A0000168E14041601468072505EA94241C5D18
:1045B00021FA04F48460126805EA52329A5CD14010
:1045C000C16070BD083802400024F40040787D01CD
:1045D000D800002002460020510901290BD00229F1
:1045E0000CD00849096802F01F02012393400B42D6
:1045F00000D00120704703497439F3E70149091FCE
:10460000F0E70000743802401144074A00B5926890
:10461000914206D92122052100F03AFA4FF0FF30ED
:1046200000BD002000BD0000780300202DE9F0410E
:104630000B4601464F480024661E416117784E4DD7
:104640004E49232F6AD00FDC1A2F50D007DC4C487C
:104650000068BFB1032F27D0122F11D12AE01B2FE2
:1046600043D01E2F0CD140E02A2F69D004DC252F27
:104670005AD0282F04D15DE02F2F67D05A2F41D078
:10468000202267E03F491F468A681AB1487B2022F2
:10469000052106E081681846884790B33A22022136
:1046A000384600F0F5F960E0BDE8F04111461846E3
:1046B00000F0BAB95678F60703D00720324B2880AD
:1046C0000CE0C06903EBC30300EB83031279187994
:1046D000401D824200D81046288003E0401E80B270
:1046E0001A5C0A540028F9D115E02C8013E0082048
:1046F000264A2880401E0004000C135C0B54F9D19C
:1047000009E034E00820224A2880401E0004000C02
:10471000135C0B54F9D12046BDE8F081BDE8F041AF
:104720001146184600F048B9BDE8F0411146184658
:1047300000F00EB9BDE8F0411146184600F0B6B8D9
:10474000BDE8F0411146184600F0B8B95178890724
:1047500003D5242205211846A3E7018A8AB2C1683D
:104760001846FFF751FF002801DA3046D4E72C80C5
:104770000020D1E7780300202A030020A81700209A
:104780002C010020A82700203E43010845430108D2
:104790004D4301082DE9F0411B4D06464FF4805072
:1047A0002C69844200D304466868B4FBF0F18BB2F4
:1047B000E968B1FBF0F21548154900680769304611
:1047C000B847002808DA11220421304600F060F9C9
:1047D0004FF0FF30BDE8F08123460D4A8121686922
:1047E000FDF7D4FFE8680B492044E8602869001B06
:1047F00028618A68A2EB04028A6002D1064903207C
:1048000008700020E6E70000780300202C0100205B
:10481000A8170020C8270020280300202DE9F04118
:104820001E4C4FF4805706462569BD4200D33D46D5
:104830006068B5FBF0F18BB2E168B1FBF0F21848AB
:1048400018490068D0F814C03046E047002808DA5C
:1048500003220421304600F01BF94FF0FF30BDE881
:10486000F081E0682844E0602069461B0E4826611C
:104870008168A1EB050181600AD0BE4200D33E46AB
:10488000B3B2084A01216069FDF73AFF0020E6E76C
:1048900000216069FFF708FDF8E7000078030020B9
:1048A0002C010020A8170020C82700202DE9F04780
:1048B000224E81460F463078B0BB214D4FF0FF3875
:1048C000287B00062CD51F48006881684846884729
:1048D00028B13A220221484600F0DAF811E0D7F870
:1048E0000200194C00BA20F0FF0178790143E16021
:1048F000B7F8070042BA48462261FFF785FE002854
:1049000002DA4046BDE8F087022030706168E06856
:104910004843E060206948432061A968814204D08F
:104920002022687B0521D7E7FFE708494FF4805034
:1049300008804846BDE8F047FFF72CBF2803002059
:10494000A82700202C010020780300202A03002043
:1049500010B504461448154A0068111D43682046E6
:10496000984738B13A220221204600F091F84FF0E2
:10497000FF3010BD0D4A0E48121F9168491E0B0EE4
:1049800003700B0C43700B0A8370C17051680A0EE0
:1049900002710A0C42710A0A8271C171054908202C
:1049A0000880002010BD00002C0100207C030020A6
:1049B000A81700202A0300207CB505460021174CCB
:1049C00008466054491C89B20C29FAD314486A4637
:1049D00001A9006843682846984738B13A22022165
:1049E000284600F055F84FF0FF307CBD0820E070FD
:1049F0000198401E010E2171010C6171010AA17123
:104A0000E071022020720098010C6172010AA1720B
:104A10000449E0720C20088000207CBDA81700200B
:104A20002C0100202A03002070B50020144A0446FF
:104A30001454401CC0B21228FAD3702010700C20FD
:104A4000D071104803784578AB420FD00E4D15F861
:104A5000336005EBC30596706E7916732D79557327
:104A60005B1CDAB20270042A00D1047007481222DB
:104A700002800979122900D80180002070BD000051
:104A8000A817002078030020742A00202A030020A1
:104A900010B50948074C437804EBC3045B1C217034
:104AA00011026160D9B24170042901D10021417025
:104AB00010BD0000742A0020780300202DE9F04783
:104AC0002A4E81460F46307820B14846BDE8F0476F
:104AD000FFF7A4BE264D4FF0FF38287B000632D4E6
:104AE000244C206881684846884720B13A2208E073
:104AF000FFF7CEFF1AE02068C1684846884718B122
:104B0000272202214846F3E7D7F802001A4C00BAE0
:104B100020F0FF0178790143E160B7F8070042BA5D
:104B200048462261FFF770FD002802DA4046BDE8E2
:104B3000F0876168E0684843E0602069484320618D
:104B4000A968814203D02022687B0521D0E701219A
:104B500031700903884200D3084683B2074A012115
:104B60006069FDF7CDFD0020E1E70000280300208B
:104B7000A82700202C01002078030020A81700207F
:104B80004FF40070106040F2F6400860002070475B
:104B90000120704710B5FEF7A1FFF320FEF706FFD6
:104BA000002010BD0020704700207047F0B50025A0
:104BB000104C114F04E0964200D1254604F50174D3
:104BC000D4F80062B6F1FF3F01D0BC42F3DB05B17F
:104BD0002C46002540CC6D1CF64340C1802DF9DBEE
:104BE0005B1E1B041B0C02D0521CFFF7DFFF0020D2
:104BF000F0BD00000000040800EC0D082DE9F047AE
:104C0000164698468146194D194A01E005F5017589
:104C1000D5F80002401C01D09542F7DB0C4600207D
:104C200004CCF2B180280FDA0C4600272068C1437B
:104C30002846FEF723FF241D2D1D7F1C802FF5DB4A
:104C400031462846FEF71AFFA8F1010003041B0CA9
:104C500004D0721C21464846FFF7D0FF0020BDE873
:104C6000F087401C8028DBDBEEE700000000040832
:104C700000EC0D082DE9F0411F4D0024FF2740F204
:104C8000F64600BF94FBF7F007FB1040000702D187
:104C90001AA009F085FF94FBF7F007FB104010B94C
:104CA00016A009F07DFFD5F80012481C03D005F5C9
:104CB0000170234606E012A009F072FF14E000BF65
:104CC00000F501705B1CB34203DAD0F80022914278
:104CD000F6D1B34203D10CA009F062FF04E00A460A
:104CE0002A210BA009F05CFF641C05F50175B44294
:104CF000C8DBBDE8F0810000000004080D0A0000D8
:104D0000202D2D2D0000000020252D3364000000F3
:104D10002563252D336400000CB500212148019145
:104D20000091026842F4803202604FF4A06302688E
:104D300002F400320092019A521C0192009A12B9B8
:104D4000019A9A42F3D10268920329D50121009178
:104D5000144908310A680A600A6842F400420A608D
:104D60000A6842F4A0520A600B1F0F4A1A600268D8
:104D700042F08072026002689201FCD50B4A40F258
:104D800003701060086820F003000860086840F0B5
:104D9000020008600868C0F381000228FAD10CBD47
:104DA00000910CBD00380240193C4005003C024017
:104DB0004FF0E0210428086903D020F004000861C6
:104DC000704740F00400FAE710B505480068401C41
:104DD000034908604FF0FF3108460AF049FD10BD55
:104DE000280000207FB56846FFF7AAFB0420FFF7E4
:104DF000DFFF01984FF47A71B0FBF1F14FF0FF350E
:104E0000B1F1807F0DD221F07F404FF0E024401EB1
:104E100060610F212846FFF7A1FA0020A06107205A
:104E2000206103212846FFF799FA7FBD70B51A4C1F
:104E300020681A4A10F00C01194804D0194D0429B1
:104E400003D0082903D002601BE0056019E0124975
:104E5000091F0B68C3F380560B6803F03F0316B1BC
:104E6000B5FBF3F201E0B2FBF3F20B680968C3F3A0
:104E700088135A43C1F30141491C4900B2FBF1F1C7
:104E800001602168064AC1F30311121D515C0268DA
:104E9000CA40026070BD0000083802400024F400DF
:104EA000C400002040787D010C48016841F00101F8
:104EB00001600A4A0021083211600268084B1A405A
:104EC0000260031D074A1A60026822F48022026011
:104ED00002480C300160FFF71FBF0000003802409D
:104EE000FFFFF6FE1030002470B5048C24F001049E
:104EF0000484058B048C4FF6FF7606EA03131343F4
:104F000025F0F3052B4324F00A020A4342F0010185
:104F10000383018470BDF0B5048C24F01004048474
:104F2000078B068C4FF6FF7404EA011527F47347CC
:104F300004EA0331394304EA02220A4326F0A001BD
:104F4000294341F0100102830184F0BD10B5012115
:104F5000880700F0DBF840B10121880700F012F863
:104F600000210248006808F037FA10BD0000002058
:104F70000029018802D041F0800101E021F0800188
:104F800001807047C943018270470029018802D01F
:104F900041F0010101E021F0010101807047002989
:104FA00030F8441F02D041F4004101E0C1F30E018A
:104FB00001807047464910B5884206D10121084654
:104FC000FFF7AAFA002101205BE0B0F1804F09D081
:104FD000404988420DD101210220FFF785FA0021C6
:104FE000022070E001210846FFF77EFA002101202F
:104FF00069E03949884206D101210420FFF774FA9B
:10500000002104205FE03549884206D101210820B3
:10501000FFF76AFA0021082055E03149884206D19D
:1050200001211020FFF760FA002110204BE02D49EC
:10503000884206D101212020FFF756FA00212020C6
:1050400041E02949884206D101210220FFF764FA94
:105050000021022015E02549884202D101210C04DB
:105060000AE02349884202D101214C0404E021498D
:1050700088420AD101218C042046FFF74DFA002115
:105080002046BDE81040FFF747BA1B49884206D1C9
:1050900001214020FFF728FA0021402013E01749A2
:1050A000884206D101218020FFF71EFA00218020CE
:1050B00009E0134988420AD1841501212046FFF7EF
:1050C00013FA00212046BDE81040FFF70DBA10BDCD
:1050D000000001400004004000080040000C0040B7
:1050E0000010004000140040000401400040014056
:1050F000004401400048014000180040001C0040EE
:1051000000200040406B7047806B704702460020D3
:10511000138A92890B4202EA010202D0002A00D0CF
:10512000012070472DE9F0410D460E884988AA8874
:105130002B89044616B3042E28D0082E268C4FF651
:10514000FF702BD026F480562684A78B268C00EA8D
:10515000022200EA013127F473473A4300EA0330A0
:10516000104326F420420A4342F48051A083218454
:10517000E9882046BDE8F04100F046B9FFF7B4FEEB
:10518000E9882046BDE8F04100F022B9FFF7C3FEF0
:10519000E9882046BDE8F04100F022B926F4807687
:1051A0002684A78B268C00EA012100EA0310104315
:1051B00027F0F307384326F420620A4342F4807153
:1051C000A0832184E9882046BDE8F04100F014B9AD
:1051D00000210180418001228280C18001817047CD
:1051E000002A828901D00A4300E08A438281704705
:1051F00030B5028C22F001020284028C8388048B79
:1052000022F0020224F073050C882C438D8915438B
:105210004A882A430C4DA84202D00C4DA8420DD119
:1052200022F00805CA8923F440732A4322F00405BA
:105230008A882A430D8A1D434B8A2B43838004832B
:1052400089684163028430BD0000014000040140D0
:1052500070B5028C22F010020284028C8488038BC9
:105260000D8823F4E6464FF6FF7303EA0525354320
:105270008E8922F0200203EA061616434A8803EAC2
:1052800002123243104EB04202D0104EB04215D13D
:1052900022F08006CA8924F4406403EA02123243F1
:1052A00022F040068A8803EA021232430E8A03EA99
:1052B000860626434C8A03EA8404344384800583AB
:1052C00089688163028470BD0000014000040140D0
:1052D00070B5028C22F480720284028C8488838BE5
:1052E0000D8823F073031D4322F400738E894FF65B
:1052F000FF7202EA06261E434B8802EA0323334369
:10530000104EB04202D0104EB04215D123F40066C8
:10531000CB8924F4405402EA0323334323F4806608
:105320008B8802EA032333430E8A02EA06162643D9
:105330004C8A02EA04143443848085838968C163FB
:10534000038470BD000001400004014070B5028C70
:1053500022F480520284048C8288838B0D8823F48B
:10536000E6464FF6FF7303EA0525354324F400565D
:105370008C8903EA043434434E8803EA0636264314
:10538000084CA04202D0084CA04205D122F480442F
:105390000A8A03EA82122243828085838968016433
:1053A000068470BD0000014000040140002101801E
:1053B0004180818081608181C18101824182704709
:1053C000828822F07002828082880A43828070473D
:1053D000028B22F00C020283028B0A430283704785
:1053E000028B22F440620283028B4FF6FF7303EAC2
:1053F00001210A4302837047828B22F00C028283D0
:10540000828B0A4382837047828B22F440628283BC
:10541000828B4FF6FF7303EA01210A4382837047B0
:1054200030B50288164B174C98420DD0A0420BD0D5
:10543000B0F1804F08D0144DA84205D0134DA842BA
:1054400002D0134DA84203D122F070054A882A43A6
:10545000104DA84206D0104DA84203D022F440754A
:105460000A892A4302804A68C2620A8802859842F1
:1054700001D0A04201D1897A01860121818230BD0B
:10548000000001400004014000040040000800400A
:10549000000C004000100040001400404FF0FF31AD
:1054A00041600021018001814180817270470000CC
:1054B000F8B500201A4C00902021204600F05AF840
:1054C000184D70B140F22551204600F02DF82046CD
:1054D00000F0C6F8009068680122694600680AF08A
:1054E000B4F88021204600F045F8002811D040F2A1
:1054F00027763146204600F017F868680122694691
:1055000040680AF08CF828B1009881B2204600F07B
:10551000ABF8F8BD00223146204600F032F8F8BD65
:1055200000100140F00000200A0A01219140C94307
:105530000180704710B5028A4C8822F470630A8893
:1055400022438C88C9880C4322431A43028210BD2F
:105550000029818902D041F4005101E021F4005179
:1055600081817047002A828A01D00A4300E08A4381
:10557000828270470246002012880A4200D0012031
:10558000704710B5C1F3421301F01F040121A1407F
:10559000012B07D0022B07D01430002A026805D057
:1055A0000A4304E00C30F8E71030F6E78A43026063
:1055B00010BD00007FB50446008A0D4620F440511E
:1055C000E88808432082A08941F20C618843A988B9
:1055D0002A8911436A8902431143A181A08A20F4D8
:1055E0004071A8890843A0826846FEF7A9FF1A48BF
:1055F000844202D01948844201D1039800E0029805
:10560000A189090400EBC00101EB0010296801D554
:10561000490000E08900B0FBF1F26420B2FBF0F138
:1056200009010B096FF018056B4302EB8302A38994
:105630001D044FF0320306D503EBC202B2FBF0F0BB
:1056400000F0070005E003EB0212B2FBF0F000F0FF
:105650000F00084320817FBD00100140001401406D
:105660008088C0F308007047C1F30801818070474B
:1056700010B5D0F8E42552689047002010BD10B551
:10568000134600240A462146FDF73AF8204610BD8D
:1056900010B5134600240A462146FDF777F8204648
:1056A00010BD10B504468021FDF754F800212046B6
:1056B000FDF750F82046BDE8104002F077BB10B56A
:1056C000C0F894230323C0F8902380F811311346C7
:1056D00000240A462146FDF713F8204610BD70B598
:1056E00005460024052085F811012346224621465F
:1056F0002846FDF705F8284602F058FB204670BD05
:1057000010B5C0F83C210223C0F8382180F81131CF
:10571000134600240A462146FDF738F8204610BDFE
:1057200070B505460024042085F811012346224661
:1057300021462846FDF72AF8284602F037FB204686
:1057400070BD000070B5054641B1D5F8E405426969
:105750008AB395F81201032846D047E095F8110165
:10576000002605F58E74022833D1E169A0688142D4
:105770000FD9081AE061E878012803D1D4E90210B2
:105780000844E060A08BE16882B22846FFF780FF02
:105790001FE0216AB1FBF0F200FB121262B98142F4
:1057A0000AD3606A814207D2002211462846FFF7D9
:1057B0006FFF66620DE016E0D5F8E405C16829B117
:1057C00095F81201032801D1284688472846FFF79B
:1057D00086FF95F81601012808D105480068296957
:1057E000486085F8166101E028469047002070BDAA
:1057F000AC01002070B5054641B1D5F8E4058269D9
:105800000AB395F8120103282CD02DE095F8110168
:1058100005F55D74032827D1E169A068814213D999
:10582000081AE061E878012803D1D4E9021008449D
:10583000E060E169A068814200D2084682B2284651
:10584000E168FFF71CFF0FE0D5F8E405016929B115
:1058500095F81201032801D1284688472846FFF70A
:105860005FFF01E028469047002070BD38B5044630
:1058700048880D46010A04295AD2DFE801F059028E
:105880001420D4F8EC15A0780A68694690470146C0
:10589000E888402803D094F81201012837D1082065
:1058A000ADF8000037E0D4F8E415A0788A6A6946BC
:1058B0009047014602204870C4F8F01527E0C0B2B6
:1058C000062835D2DFE800F003080D12171CD4F8C3
:1058D000EC15A0784A6817E0D4F8EC15A0788A682F
:1058E00012E0D4F8EC15A078CA680DE0D4F8EC15F5
:1058F000A0780A6908E0D4F8EC15A0784A6903E0BA
:10590000D4F8EC15A0788A69694690470146BDF83D
:10591000000000280BD0EA88002A08D080B282421A
:1059200000D90246ADF800202046FFF7E9FE38BD59
:1059300029462046FFF7B5FE38BD01EB810100EB9B
:10594000C100B0F88C0380B2704770B50023002806
:105950001DD00446002502E06D1CEDB2641C2678C3
:10596000002EF9D1022404EB45041480CC545B1CB6
:105970000322CA5400245B1C06E0CA545B1CDAB242
:105980008C54521CD3B2401C0278002AF5D170BD51
:105990002DE9F0411D46174688460446069E01F053
:1059A000CFFF04F2E452414682E8E0002046FDF7D2
:1059B00081F8D4F8E805006880472046BDE8F0414A
:1059C00001F0AABF10B5D0F8E415096A8847002095
:1059D00010BD10B5D0F8E415496A8847002010BD05
:1059E00010B50A46024903A0FFF7AFFF004810BDFB
:1059F000681500204D534320436F6E6669670000B1
:105A000010B5FEF7DBFB002010BD10B5FEF7F6FB6E
:105A1000002010BD10B504468121FCF715FE0121C0
:105A20002046FCF711FE2046FEF708FC002010BDC2
:105A300070477047122008800048704734020020E9
:105A400070477047704770477047000020200880FB
:105A500000487047F201002010B50446FFF7DAFF56
:105A60000223402281212046FCF72CFE0223402203
:105A700001212046FCF726FE2046FEF7E5FB00202C
:105A800010BD000010B50A46024903A0FFF75DFFF4
:105A9000004810BD681500204D534320496E7465C1
:105AA000726661636500000004200880004870474A
:105AB0003002002010B50A46024903A0FFF745FF57
:105AC000004810BD6815002053544D6963726F651E
:105AD0006C656374726F6E69637300000A4610B57B
