:020000040800F2
:10800000D02201209981000881DF000879CB000887
:108010003DDF00087595000885520108000000004A
:1080200000000000000000000000000055FA0008F9
:10803000EDA400080000000085E90008F50501082E
:10804000B3810008B3810008B3810008B381000840
:10805000B3810008B3810008B3810008B381000830
:10806000B3810008B3810008B3810008B381000820
:10807000B3810008B3810008B3810008B381000810
:10808000B3810008B381000855910008F1950008FC
:10809000B9950008B3810008E195000835C40008CF
:1080A000B3810008E9060108B3810008B381000824
:1080B000B38100087D0A0108B3810008DDCB000808
:1080C000BDCB0008B3810008B3810008B38100086C
:1080D000B38100086D120108B3810008B381000864
:1080E000FDC20008B3810008B3810008B381000815
:1080F000B3810008B3810008B3810008B381000890
:10810000B381000875F90008B3810008B381000845
:10811000B3810008B3810008B3810008B38100086F
:10812000B3810008B3810008B3810008B38100085F
:10813000D9A10008B3810008B38100085D9600084A
:1081400025960008B38100084D96000859E0000804
:10815000B3810008B3810008B3810008B38100082F
:10816000B3810008B3810008B3810008B38100081F
:10817000B3810008B3810008B3810008B38100080F
:10818000B3810008DFF80CD000F020FD0048004764
:10819000E9860108D02201200648804706480047AA
:1081A000FEE7FEE7FEE7FEE7FEE7FEE7FEE7FEE7A7
:1081B000FEE7FEE745060108858100082DE9F0414C
:1081C00000242546002905DA01240027D0EB07000A
:1081D00067EB0101002B05DA0027D2EB070201252E
:1081E00067EB030300F048FB86460E4617469C46A5
:1081F000AC4204D00025D0EB050E65EB010624B19E
:108200000020D2EB000760EB030C704631463A4683
:108210006346BDE8F0810000004870477CA2010879
:1082200010B50446FFF7F8FF0068005D00F001009C
:1082300010BDA0F16101192900D82038704740EA2B
:1082400001039B0703D009E008C9121F08C0042AD4
:10825000FAD203E011F8013B00F8013B521EF9D2BB
:108260007047D2B201E000F8012B491EFBD27047E3
:108270000022F6E710B513460A4604461946FFF7F2
:10828000F0FF204610BDCAB2401E10F8011F8A42FE
:1082900002D00029F9D100207047421C10F8011BC0
:1082A0000029FBD1801A704710B54843044610F0EE
:1082B00023FA002805D00021002C02D0641E0155AD
:1082C000FAE710BD2DE9F04791460F468046044677
:1082D000002614F8015B2DB1FFF79EFF0068405D9A
:1082E000C007F6D12B2D02D02D2D18D0641E4A4682
:1082F0003946204600F022FB27B13968A14201D15E
:10830000C7F8008071054FF002040BD540420028E9
:1083100003DD0DF0FBF80460A007BDE8F08746F42C
:108320008066E4E70028F8DA0DF0F0F804606FF0FA
:108330000040F2E770B506460DF0E8F8046805461F
:108340000A2200213046FFF7BDFF2C6070BD30B41B
:1083500080EA010202F0004530F0004221F00040C6
:1083600013D090B1C30DD40DC2F31601C0F31600A3
:10837000E41A41F4000140F400027D34914201D33B
:10838000641C00E04900002C02DA30BC0020704779
:108390004FF400000023914201D3891A034340089F
:1083A0004FEA4101F7D151B1914202D14FF0004162
:1083B00005E002D24FF0010101E06FF0010103EB93
:1083C000C450284430BC00F057BB2DE9FE4F804616
:1083D00081EA0300C00F0C46009021F0004123F019
:1083E0000045B8EB0200A94105D24046214690461F
:1083F0001C460B46024623F00040104347D0270D91
:10840000C7F30A00C3F30A510290401A01904028B2
:108410006BDAC3F3130040F4801B0098924620B13E
:108420000023D2EB030A63EB0B0B01985946C0F112
:108430004002504600F051FA06460D465046594655
:10844000019A00F069FA10EB08006141002487EA04
:10845000115284EAE7731A4340D0009A62B3019A3A
:10846000012A4FEA075215DC001B61EB02014FF0B5
:10847000004202EA0752CDE90042001C41F580119A
:1084800032462B4600F03CFB03B0BDE8F08F40467F
:108490002146F9E7001B61EB0201001C41F5801346
:1084A00000185B412018A2F5001747EB030140EAD2
:1084B000D570B6196D4111E06D084FEA360645EAF0
:1084C000C0754FEA0752001B61EB0201001C41F529
:1084D000801149084FEA30000019514132462B46BD
:1084E00003B0BDE8F04F00F0FEBA00980122400052
:1084F0000023D0EB020263EBE073009821464FEAC1
:10850000E074B8EB000061EB0401E9E783F000439D
:108510005BE781F0004158E72DE9FE4F81EA030453
:1085200004F0004421F0004100944FF0000B23F0D0
:10853000004350EA01045ED052EA03045BD0C3F367
:108540000A54C1F30A552C44A4F2F3340194A0FB5D
:108550000254C1F3130141F48011C3F3130343F434
:10856000801301FB024400FB034E840A970A44EA8D
:10857000815447EA8357A4FB076802958D0A05FBDF
:1085800007854FEA932C04FB0C542705029D4FEA04
:10859000065847EA1637B5EB08056EEB070C870E51
:1085A000920E47EA811742EA8312A7FB0201B6EB5B
:1085B0000B0164EB00042B0D43EA0C335E1844EB13
:1085C0001C50DA465146E7FB0201C5F313044FEA9B
:1085D0000B3343EA14534FEA0432019C43EA060387
:1085E000A4F10C040294009CCDE900B400F088FAD8
:1085F00003B0BDE8F08F00200146F9E72DE9F04D0A
:1086000081EA030404F0004B21F0004514464FF0CA
:10861000000A23F0004150EA050220D054EA01028A
:108620001DD0C5F30A570246C5F31303C1F3130067
:10863000C1F30A5640F4801543F48013A7EB0608F3
:10864000101BD64608F2FD3873EB050002D308F183
:10865000010801E092185B41B8F1000F03DA002035
:108660000146BDE8F08D00204FF480110646844697
:108670000EE0171B73EB050705D3121B63EB050315
:1086800006434CEA010C49084FEA300092185B415E
:1086900050EA0107EDD152EA030012D082EA040049
:1086A00083EA0501084305D0101BAB4106D2012225
:1086B000002306E000224FF0004302E06FF00102C9
:1086C00053101AEB06004CEB085110EB0A0041EB7B
:1086D0000B01BDE8F04D00F006BA70B521F0004383
:1086E00003430CD0C1F30A550024D5EB040564EB19
:1086F0000403D617AD1AB34102DB0020014670BD5A
:10870000201841EB025170BDC10F80EAE0700844AF
:10871000CA079623002100F0B8B90EB5C10F80EA50
:10872000E0700844CA07002140F233438DE80E0090
:108730000A460B4600F0E4F903B000BD0EB540F266
:10874000334102910021CDE900110A460B4600F0A9
:10875000D7F903B000BD70B5C1F30A5201F000456E
:108760000024C1F3130140F2FF3341F480119A4217
:1087700001DA002070BD40F233439A42A2F2334244
:1087800003DC524200F0B8F800E090402C43F1D0F6
:10879000404270BDC1F30A5210B5C1F3130140F25B
:1087A000FF3341F480119A4201DA002010BD40F2FB
:1087B00033439A42A2F2334203DC524200F09CF867
:1087C00010BD904010BD00F0004230F000400AD0D3
:1087D000C10D01F56071C0F3160042EA0151C208F3
:1087E00040071143704700200146704730B500290B
:1087F00004DB4FF00044404264EB0101002B04DB3A
:108800004FF00044524264EB0303994208BF904288
:1088100030BD000001F0004330B421F0004150EAC7
:10882000010206D00A0DA2F56072C1F31301002AFD
:1088300002DC30BC00207047440F44EAC104C10090
:10884000E01830BC00EBC25000F016B930B50B4652
:10885000014600202022012409E021FA02F59D4270
:1088600005D303FA02F5491B04FA02F52844151E44
:10887000A2F10102F1DC30BD2DE9F05F05460020D8
:1088800092469B4688460646814640241BE0284681
:1088900041464746224600F02FF853465A46C01A32
:1088A000914110D311461846224600F016F82D1AB1
:1088B00067EB01084F4622460120002100F00DF829
:1088C00017EB00094E41201EA4F10104DFDC4846ED
:1088D00031462A464346BDE8F09F202A04DB203A71
:1088E00000FA02F1002070479140C2F1200320FA03
:1088F00003F3194390407047202A04DB203A21FA01
:1089000002F00021704721FA02F3D040C2F12002A8
:108910009140084319467047202A06DBCB17203ABE
:1089200041FA02F043EAE07306E041FA02F3D04074
:10893000C2F1200291400843194670472DE9F05FCB
:1089400082460078002715468B460AF10104B94695
:10895000302801D09DB113E014F8010B01277828CD
:1089600003D0582801D045B10AE00DB1102D07D130
:108970000027102514F8010B02E0082500E00A2565
:108980000026B0460EE005FB080005FB06F10127B6
:1089900001EB10461FFA80F8B6F5803F00D3B946C8
:1089A00014F8010B294600F023F90028EBDABBF19B
:1089B000000F05D00FB1641E00E05446CBF8004014
:1089C000B9F1000F06D00CF0A1FD02210160C81E14
:1089D000BDE8F09F48EA0640FAE700000FB4002324
:1089E00000B589B00CA900910B996FF00042CB60E3
:1089F0001E4B06931E4B07930423CDE901321D4AFB
:108A0000089202466B46002000F080F909B05DF83C
:108A100014FB70B586B006464FF0FF300091CDE9EB
:108A20000101002015460C4604903246694604A810
:108A3000FFF7D4FF03460498211825B108B10A4670
:108A400000E022462A6000280DD0002B02DD0098AD
:108A5000884208D0081B0094CDE9010432466946DB
:108A600004A8FFF7BBFF06B070BD0000458F0008EB
:108A7000638F0008218200080029A8BF7047401CAE
:108A8000490008BF20F00100704710B4B0FA80FC24
:108A900000FA0CF050EA010404BF10BC704749B161
:108AA000CCF1200421FA04F411FA0CF118BF0121D1
:108AB00021430843A3EB0C01CB1D4FEA00614FEAB1
:108AC000102042BF002010BC704700EBC350104480
:108AD0000029A4BF10BC7047401C490008BF20F00B
:108AE000010010BC704710B5002B08DA401C41F1A2
:108AF000000192185B411A4301D120F0010010BD22
:108B00002DE9F04D92469B4611B1B1FA81F202E097
:108B1000B0FA80F220329046FFF7DFFE04460F469F
:108B200040EA0A0041EA0B0153465A46084313D073
:108B3000114653EA010019D0C8F140025046FFF730
:108B4000DBFE05460E46504659464246FFF7C5FE37
:108B5000084305D0012004E020463946BDE8F08DE9
:108B60000020054346EAE0762C4337430A98630524
:108B7000E40AA0EB08000022FD0A44EA47540A3048
:108B800002D500200146E9E7010510196941DDE938
:108B9000084500196941BDE8F04DA4E7C1F30A5248
:108BA000C1F3130140F2FF3341F480119A4202DA1B
:108BB00000200146704740F233439A42A2F233420A
:108BC00002DC5242FFF798BEFFF787BE064C074D06
:108BD00006E0E06840F0010394E80700984710348D
:108BE000AC42F6D3FFF7D2FAE0A2010800A30108D5
:108BF0003A2800D2303820F02002412A01D3A2F1D5
:108C00003700884201D34FF0FF3070472DE9FF4F06
:108C1000087881B09946FF2805D0491C2D2804D03A
:108C20000024002308E000230BE00124F9E703EB14
:108C3000830300EB4303491C0878FF28F7D104B1F4
:108C40005B4200200090147801462D2C01D02B2C83
:108C500004D1521C2D2C12D000240094002516782B
:108C6000FF2E0ED00A24A0FB04C801FB04810027BC
:108C700000FB0711521C16EB0C006941EFE70124C1
:108C8000EBE7994450EA01020ED00024AA4D264693
:108C9000DFF8A88200F0C7F982468B46B9F10000E0
:108CA00009DAC9F100071BE001980021C0E90011B1
:108CB00005B0BDE8F08F074612E0F80707D022465E
:108CC0002B4630464146FFF727FC0646884622469B
:108CD0002B4610461946FFF71FFC04460D467F1031
:108CE000002FEAD1B9F1000F3246434650465946AB
:108CF00002DAFFF783FC01E0FFF70EFC009A0AB1ED
:108D000081F00041019AC2E90001D1E72DE9FF4F4E
:108D10001F468DB0D7E901464FF0FF382E2045465B
:108D20004FF000090B90B9696D1C0E988847396A9D
:108D3000824688470028F6D1BAF1FF3F0AD024F4D2
:108D4000D064002E11DDBAF12B0F08D0BAF12D0F2F
:108D50000BD102E0404611B0ABE744F48064B9693E
:108D60006D1C0E9888478246761E6946600501D5BF
:108D70002D2000E02B208DF8000001F1010B0DF1FA
:108D8000200809E0B9696D1C0E98884782460F9843
:108D900044F40074761E0560002E02DDBAF1300F37
:108DA000F0D00B998A453ED144F0800406E00F993B
:108DB000681CA9F1010944F400740860B9696D1CCC
:108DC000761E0E98884782463028F0D02BE00B990B
:108DD0008A4505D1200603D444F08004761E18E0AD
:108DE00050460CF09BFD08B30DF11301761E44F4C0
:108DF00000748B4508D2AAF130000BF8010B200655
:108E000007D5A9F1010003E0200602D409F1010011
:108E10008146A00502D50F99681C0860B9696D1CD0
:108E20000E9888478246002ED1DC53E0002E51DD9B
:108E3000BAF1650F02D0BAF1450F4BD1A00549D563
:108E4000B9696D1C24F44074761E0E9888478246DA
:108E5000002E0CDD2B2804D0BAF12D0F07D144F4DD
:108E60008074B9696D1C0E9888478246761EE005AD
:108E700001D52D2100E02B2108F8011BCDF82C8015
:108E800021E00DF12901761E44F4007488450CD2CE
:108E9000AAF1300010F0FF0088F8000002D10B9911
:108EA000884509D908F1010806E0E00501D5244804
:108EB00001E042F20F708146B9696D1C0E98884737
:108EC00082460F980560002E04DD50460CF026FD0A
:108ED0000028D6D1F9690E988847FF208BF800004A
:108EE00088F800000020069007904B466A4608A9C3
:108EF00006A8FFF78BFEA00502D46FF001002AE759
:108F000014F0240F0AD0E00714D1DDE90612386806
:108F1000031D3B600068C0E900120BE0DDE90601BB
:108F2000FFF778FC0146E00704D13868021D3A607B
:108F30000068016028460EE7000024400000F03F72
:108F4000F1D8FFFF426842B1016811F8013B23B13B
:108F5000521EC0E90012184670470121C160881EE8
:108F6000704742685AB1C368016843B983688B424D
:108F700005D0491E521CC0E90012002070474FF076
:108F8000FF3070472DE9F04D00231A461B1A8A4125
:108F900003DB00200146BDE8F08DC1F30A52C1F3A6
:108FA000130141F480154FF0000BD10702D10018D6
:108FB0006D41521E0027044640F2FF11384601EB76
:108FC000620A3E468046024600204FF48011FFF7B9
:108FD00093FCC2197141BB1846EB0100B4EB030CC2
:108FE00075EB000C04D3E41A65EB000517460E463A
:108FF000241908F101006D4180463428E3DDF91998
:1090000046EB0600091BA84103D24FF0FF3213467E
:1090100001E0002213461BEB070046EB0A51BDE8B6
:10902000F04DFFF760BD0EB540F2334202920022D0
:10903000CDE900221346FFF763FD03B000BD70B514
:109040008C1810F8015B15F0070301D110F8013BF3
:109050002A1106D110F8012B03E010F8016B01F87A
:10906000016B5B1EF9D12B0705D40023521E0DD4D2
:1090700001F8013BFAE710F8013BCB1A921C03E020
:1090800013F8015B01F8015B521EF9D5A142D8D358
:10909000002070BD4268024B1A400A43426070478C
:1090A000FFFD3FFF426822F01F020A434260704703
:1090B0004162826270476FEA1121016070470029A6
:1090C000816802D041F0010101E021F001018160DD
:1090D00070470000084B10B5D3F8042307490A4035
:1090E000D0E900142143D0E9024004432143114355
:1090F000C3F8041310BD000000200140E030FCFF65
:109100000021016041608160C16070470029816871
:1091100002D041F4807101E021F4807181607047D8
:109120000029816802D041F4007101E021F400714E
:109130008160704730B50246002053680C0A012553
:109140008D4011682B40214202D0002B00D001201D
:1091500030BD00002DE9F05FDFF860914FF48378B7
:1091600041464846FFF7E6FF554D564EDFF858B1E9
:10917000564C42F210774FF4805A70B3414648463D
:10918000FFF799FF206890F84010490714D5008D2B
:10919000C00411D428680CF0F5FF814630685346AE
:1091A00090FBF7F107FB11012068826A48A00CF0E0
:1091B0006DF948460CF0E6FF2068816A41F4805161
:1091C0008162818D21F0030181850021584607F0DD
:1091D0007AFC0021464807F076FCDFF818914146FA
:1091E0004846FFF7A7FF70B341464846FFF763FFC5
:1091F000206890F84010490714D5008DC00411D4A0
:1092000028680CF0BFFF81463068534690FBF7F1A9
:1092100007FB11012068826A2DA00CF037F948463F
:109220000CF0B0FF2068816A41F480518162818D29
:1092300021F0030181850021584607F044FC0021FC
:109240002B4807F040FCDFF8B09041464846FFF756
:1092500071FF002830D041464846FFF72CFF2068B8
:1092600090F84010490714D5008DC00411D4286827
:109270000CF088FF05463068534690FBF7F107FB7A
:1092800011012068826A12A00CF000F928460CF047
:1092900079FF2068816A41F480518162818D21F0DB
:1092A000030181850021584607F00DFCBDE8F05F01
:1092B00000210F4807F007BCBDE8F09F00200140E7
:1092C0000C01002058010020000001405400002043
:1092D0003A25303464206572726F7220253034581C
:1092E0002C253034582C207365740D0A3E00000084
:1092F00000040140002101400022014001238B4075
:1093000041680AB1194300E0994341607047000089
:1093100030B542680F4B0C791A400B6842EA0422C0
:109320001343436082680C4B4D791A40D1E90343E3
:1093300023438C6844EA4504234313438360C26A91
:10934000097D22F47002491EC9B242EA0151C1628C
:1093500030BD0000FFFEFFFCFDF7FFC070B5072425
:1093600009290AD9C568A1F10A0606EB4606B440E8
:10937000A543B3401D43C56007E0056901EB410605
:10938000B440A543B3401D4305611F23072A09D2FA
:10939000446B521E02EB820293409C4391400C436B
:1093A000446370BD0D2A09D2046BD21F02EB820206
:1093B00093409C4391400C43046370BDC46A0D3AD2
:1093C00002EB820293409C4391400C43C46270BD07
:1093D000816841F080418160704700210160017126
:1093E00041718160C1600161012101757047000018
:1093F00070B501217F2005F0DDFE44210120FEF73C
:1094000053FF3F4D002164226865C1800181C18303
:109410004281C2820446012060804FF47A72A280A9
:1094200022806183A1832183022060822082A86838
:10943000FFF773F9334A344BFFF76EF8FFF78BF9F8
:10944000A082E0813C20208704F026F94FF46120BF
:1094500004F0B4FB2D4C2060002003F06DFF2C497C
:10946000086003F0C1FD04F073F94CF2503158204C
:1094700004F036F82749086007F0C4F8686DC16B3E
:1094800041F00401C163E96806F060FF686D06F011
:10949000BDFB4FF496700BF0D1FF03F0E7FF20689F
:1094A0000CF070FE7C2005F01FFF01281DD07D20F0
:1094B00005F01AFF01281AD07E2005F015FF0128BB
:1094C00017D07B2005F010FF012814D07A2005F07A
:1094D0000BFF00BF05F0B6FE00200CF053FEBDE808
:1094E00070400DA1002000F00FBB0DA004E011A002
:1094F00002E015A000E019A00BF0C8FFEAE70000A9
:10950000000000207B14AE47E17A943F0401002064
:10951000D0000020E00000206366672E696E6900BD
:109520000D202E2E2E205357522072657365740D18
:109530000A3E00000D202E2E2E204957444720724F
:10954000657365740D0A3E000D202E2E2E20575790
:1095500044472072657365740D0A3E000D202E2E5F
:109560002E20706F776572206F6E20726573657440
:109570000D0A3E00074800680CF004FE064800682B
:1095800042F2107190FBF1F201FB120103A00BF00B
:109590007DFFFEE708010020580100203A25303405
:1095A00064204275734661756C745F48616E646CCB
:1095B00065720D0A3E00000000B585B06A460021C4
:1095C000054800F05DF90548142269460068006806
:1095D0000CF0BEF805B000BD00640040D0000020D3
:1095E0000248016841F004010160704704640040D2
:1095F0000A4800B5006885B01422406869460CF03E
:1096000091F80100064804D0694600F091F905B0D0
:1096100000BD0022012100F0B7F8F8E7D0000020DB
:109620000064004000B585B06A460021054800F09E
:1096300027F9054814226946006800680CF088F88C
:1096400005B000BD00680040D0000020024801685D
:1096500041F0040101607047046800400A4800B509
:10966000006885B01422406869460CF05BF8010080
:10967000064804D0694600F05BF905B000BD002241
:10968000012100F081F8F8E7D000002000680040D8
:10969000094910B588424FF0010101D14C0601E0A3
:1096A0004FF08064204605F0A9FD2046BDE810403B
:1096B000002105F0A3BD000000640040F0B5827AEF
:1096C000012191402E4A136843F0010313602C4B93
:1096D0001C331C688C431C60294D067B294C0C35BF
:1096E000A6B92E688E432E604688C78846EA07468C
:1096F000877A04EBC707C7F840660688878846EA7A
:109700000746877A04EBC707C7F84466067B012E35
:1097100012D12E680E432E60867A056804EBC606C9
:109720004FEA3545C6F84056867A456804EBC604CC
:109730004FEA3545C4F84456114CC57A241D002D16
:10974000256806D00D4325600D4C0589143415B1EC
:1097500004E08D43F7E725688D4325600589012DD9
:1097600002D125680D432560407B012802D118688D
:1097700008431860106820F001001060F0BD000080
:109780000066004000600040002A426901D00A43A0
:1097900000E08A434261704710B50368002223F05D
:1097A00002030360036843F0010303604FF6FF7395
:1097B00000E0521C4468E40701D19A42F9D14268A2
:1097C000D2073ED08A79012A02683CD022F080027A
:1097D0000260CA79012A026838D022F04002026091
:1097E0000A7A012A026834D022F0200202604A7A02
:1097F000012A026830D022F0100202608A7A012A1F
:1098000002682CD022F008020260CA7A012A02689B
:1098100028D022F0040202608A78CC78920742EACB
:1098200004620C7942EA04424C79098842EA045203
:10983000491E0A43C261016821F001010160002153
:1098400014E0002010BD42F08002C1E742F0400267
:10985000C5E742F02002C9E742F01002CDE742F02E
:109860000802D1E742F00402D5E7491C4268D2075A
:1098700001D09942F9D14068C007E2D1012010BD62
:1098800010B500EB0113D3F8B04114F004041472C6
:10989000D3F8B04134D0E408C2F80440D3F8B04162
:1098A00004F002045472D3F8B44104F00F0494722B
:1098B000D3F8B441240AD474D3F8B841D472D3F89D
:1098C000B841240A1473D3F8B841240C5473D3F864
:1098D000B841240E9473D3F8BC41D473D3F8BC417F
:1098E000240A1474D3F8BC41240C5474D3F8BC314A
:1098F0001B0E937439B1016941F02001016110BD63
:10990000640D1460CAE7C16841F02001C16010BD58
:1099100000218171C171017241728172C1728170C5
:10992000C170032101710221417101210180704741
:1099300030B50246002093685B0108D490680001AE
:1099400001D5012003E09068C00037D5022002EB6A
:109950000012D2F8803103F00103C2F880310B7A93
:1099600073B3D2F880414D681C434B7A43EAC50378
:109970001C43C2F880418B7A03F00F038B72D2F83C
:10998000843123F00F03C2F88431D2F884318C7A09
:109990002343C2F88431CB7ACC6843EA0423C2F86B
:1099A0008831CB7B096943EA0121C2F88C11D2F8D6
:1099B000801141F00101C2F8801130BD042030BD9A
:1099C000D2F880314C7A23430C8843EA4453C2F8DE
:1099D0008031D0E710B50022044B03E050F822405C
:1099E0001C60521C8A42F9D3186810BD0030024036
:1099F0000149012088607047003002400FB470B503
:109A000088B0142236496846FEF719FC354C0C988C
:109A100008B10DAD3AE0344800686064002008B039
:109A200070BC5DF814FB01CD059011F8012B05A861
:109A30000C91632A17D006DC2E2A09D0452A0FD0B4
:109A4000502A23D10AE0692A11D0772A1ED10CE0CE
:109A5000142268460599FEF7F2FB17E0402000E06B
:109A60004320009012E0002202E0012200E00322E5
:109A70000DF10B019DF80A6010F8013B73549DF83D
:109A80000A305B1C8DF80A30521EF3D20C9908780C
:109A90000028C8D1606CD8B10CF074FB606413A0CE
:109AA00000990BF0F3FC00256E4606E070192E219C
:109AB000C27A11A00BF0EAFC6D1C9DF80A00A842C6
:109AC000F4DC0FA00BF0E2FC606C0CF05BFB60645C
:109AD0000C4814226946006840680BF039FE9EE786
:109AE0006C9B0108000000205001002025303258F6
:109AF0002E3C3C2E0000000025632530325800002B
:109B00000D0A3E00D0000020F0B5ADF2644D0C46C9
:109B100006460DF0D7FA002833D189A930460DF05A
:109B2000A5FF00282DD10122214668460DF0B2FF85
:109B3000002826D1144C154DDDE90201884219D0C8
:109B400020680CF01FFB07460DF25C430122191F31
:109B500068460EF070F838B9DDF85C04012803D1CE
:109B6000DDF858040FF056FE38460CF00BFB286861
:109B70008047E1E768460DF0AFFA002130460DF06E
:109B800075FF0DF2644DF0BD04010020200000209F
:109B9000044A01238340106809B1184300E0984348
:109BA000106070470074004010B501214C0720463A
:109BB00005F024FB2046BDE81040002105F01EBB47
:109BC00005490028086802D040F0030001E020F0B9
:109BD000030008607047000004740040044908B5A1
:109BE00001EB90002C300090006880B208BD0000AE
:109BF0000074004030B5084C236840F6FE72824085
:109C00009343D1E900252A43D1E902510D432A4368
:109C100082401A43226030BD00740040082805D0FD
:109C200042EA0141034A10440162704742EA0121BD
:109C3000F8E700000074004000210160416081608D
:109C4000C160704710B50A460C0601F07F0303EBB4
:109C5000830100EBC10102D501F58E7101E001F530
:109C60005D71D2090B704A700AF0A6F8002010BD91
:109C70000A4610B5090602F07F0306D503EB8301FF
:109C800000EBC10101F58E7105E002EB820100EBF2
:109C9000C10101F55D7100248C700B70D2094A700E
:109CA0000AF071F8002010BD10B50A0604D501F0C5
:109CB0007F010AF0AFF901E00AF090F9002010BD31
:109CC00070B50C460E0601F07F0505EB850100EB33
:109CD000C10102D501F58E7101E001F55D71E40964
:109CE0000D704C708A60CB7000D0CD80022B01D1FA
:109CF00000220A710AF01EF8002070BD10B501F0B4
:109D00007F0404EB840100EBC101C1F88833C1F882
:109D100080230023C1F88C3381F8753381F87443B4
:109D2000C37801F55D71012B00D10A6114F0FF0FBA
:109D300003D00AF073F8002010BD09F08DFFFAE798
:109D40000069002261F30A12016811430160704743
:109D50000A4610B5090602F07F0306D503EB83011E
:109D600000EBC10101F58E7105E002EB820100EB11
:109D7000C10101F55D7101248C700B70D2094A702C
:109D80000AF034F8002010BD70B511F07F0404EB28
:109D9000840100EBC1014FF0010581F81D5181F8EC
:109DA0001C41C1F82821C1F82C2101F58E714FF01A
:109DB0000002C1E9053203D00AF030F8002070BD7E
:109DC00009F04AFFFAE700002DE9F04106460025B8
:109DD0000AF0A4FA074655E0F80751D03069EAB214
:109DE0000369416BD14006EB820201F001019269E7
:109DF00043EAC11194680C40E1071AD00124426B78
:109E000004FA05F18A43426306EB850080698460A9
:109E10001F48E9B20068426830469047F078012850
:109E200007D135B996F81101042802D1304609F05E
:109E30006FFF200704D506EB850008248069846045
:109E4000E00604D506EB8500102480698460600676
:109E500004D506EB8500402480698460A00704D502
:109E600006EB8500022480698460200608D5294617
:109E7000304600F067F906EB85018020896988602B
:109E80007F086D1C002FA7D10120BDE8F0810000E4
:109E9000440200202DE9F041064600240AF044FA6D
:109EA0000746DFF8988043E0F8073FD0E1B230463C
:109EB0000AF040FA0546C00725D006EB84000125CC
:109EC000416D8D60F17801290CD1406D016904EB81
:109ED000840006EBC000C1F31201D0F87C23511AB4
:109EE000C0F88C13D8F80000E1B202683046904701
:109EF000F078012807D134B996F81101052802D16C
:109F0000304609F005FFA80704D506EB84000225BA
:109F1000406D8560280709D5D8F800008168304673
:109F2000884706EB84010820496D88607F08641C1F
:109F3000002FB9D10120BDE8F081000044020020CB
:109F400070B50646C068816921F010018161F06832
:109F5000056A05F00F0000EB800006EBC004C5F3B6
:109F6000434004F55D74072821D2DFE800F020208B
:109F700004202020150047F6F070054217D0C5F3E5
:109F80000A152A463046E1680AF0E5F9E0682844F7
:109F9000E060A069284409E0082206F2CC5130466E
:109FA0000AF0D9F9A069C5F30A110844A061F06864
:109FB000816941F010018161012070BD38B504460E
:109FC00000208DF8000094F812018DF8000015486B
:109FD000006841692046884720698068E2684FF43C
:109FE00000615161A17AD1B1C00718D094F8150170
:109FF000012814D19DF80000032810D1D4F80C01D9
:10A00000016841F001010160D4F80C01016841F0E0
:10A01000030101600448016841F00601016001206C
:10A0200038BD00004402002010ED00E070B5044689
:10A03000006900250126416821F00101416029469F
:10A04000204609F0E7FF0020FF2106E004EB800234
:10A0500093699960526D9160401C62788242F5D894
:10A0600021694FF0FF3088612846216966F30F00AF
:10A0700066F31F40C861216945F00B004861216902
:10A0800045F00B0008612069016821F4FE61016060
:10A09000204609F03DFEE1684FF4805048610348D6
:10A0A0000068016920468847012070BD44020020F5
:10A0B00070B504460AF074F90122002384F81221D5
:10A0C00084F814311946402511E000BF01EB8100EE
:10A0D00004EBC00080F81D2180F81C11A0F82211AB
:10A0E00080F81F31C0E94953491CC0F8303160780D
:10A0F0008842EBD8002110E001EB810004EBC002A4
:10A1000082F8753382F87413A2F87A1382F87733E1
:10A11000C2E9DF53491CC2F8883360788842EBD823
:10A12000204609F057FD204609F0FCFB002120469F
:10A130000AF096F9204609F035FC2046BDE870404B
:10A1400009F027BF2DE9F0470E46054601EB8600D2
:10A1500005EBC004D4E94C01421AD4F8240104F5FB
:10A160008E74904200D20246D21C970805EB8609F5
:10A1700023E000BFA0EB0108A168414500D288465A
:10A1800008F1030087081FFA88F3F2B22846E16855
:10A190000BF064F8E16801EB0800E060A16901EBF5
:10A1A0000800A0616169884207D3217801208840B6
:10A1B00029694A6B82434A630BE0D9F81800806929
:10A1C00080B2B84205D9D4E90501814201D2002804
:10A1D000D0D10120BDE8F08710B5002006F08EFF39
:10A1E0000348006810F83A1F41F00801017010BDE3
:10A1F00054000020074A904201D2074801E0054878
:10A200001038064A8B0001EA020101D5C16070478F
:10A210008160704710640240006002407D0F7D0F36
:10A22000074A904201D2074801E005481038064A23
:10A230008B0001EA020101D5C1607047816070475F
:10A2400010640240006002407D0F7D0F002901680C
:10A2500002D041F0010101E021F0010101607047ED
:10A260002DE9F04190B00546684600F02EF9012135
:10A27000880504F09FFFDFF88880404600F044F82E
:10A28000204F4FF00066CDE90067686800246946FA
:10A29000006802904020CDE90304C002CDE90940E6
:10A2A000C011CDE90540089407940D9440460E94E2
:10A2B00000F0DAF801214046FFF7C8FFDFF84080E0
:10A2C000A8F17808404600F01FF8CDE9006728683B
:10A2D00069460068CDE9020480200490400009909E
:10A2E000404600F0C1F801214046FFF7AFFF0122D0
:10A2F000C021381F07F014F810B0BDE8F08100004D
:10A30000B8640240041001402DE9F043016821F0D7
:10A31000010101600021016041608160C160016153
:10A32000212141613C493C4A3D251039904202D1EE
:10A330008D60BDE8F083384A4FF47466183290425D
:10A3400001D18E60F5E7344A4FF4741730329042F1
:10A3500001D18F60EDE7304A4FF0746C4832904283
:10A3600002D1C1F808C0E4E72B4B2C4A6033984275
:10A3700001D1CA60DDE7284C294B7834A04201D1D5
:10A38000CB60D6E7DFF89080264C08F19008404576
:10A3900001D1CC60CDE7DFF880804FF03D5908F166
:10A3A000A808404502D1C1F80C90C2E71E49DFF869
:10A3B00078800839404501D10D60BAE71A4D18354B
:10A3C000A84201D10E60B4E7174D3035A84201D143
:10A3D0000F60AEE7144D4835A84202D1C1F800C065
:10A3E000A7E7114D10496035091FA84201D10A6045
:10A3F0009FE70D4A7832904201D10B6099E70A4AF3
:10A400009032904201D10C6093E7074AA832904203
:10A410008FD1C1F800908CE7106002403D00002011
:10A42000400F002000003D20106402400146002043
:10A430000968C90700D0012070470B0607D543699A
:10A4400012B143F0800301E023F0800343618029CF
:10A4500008D0002A026801F01E0101D00A4300E082
:10A460008A4302607047000030B50368124ACC6826
:10A4700013400A682243D1E905452C432243CC69A5
:10A4800022430C6A22434C6A22438C6A22434C6B5F
:10A4900022438C6B22431A430260426922F0070375
:10A4A000D1E90B2422431A4342610A6942604A6897
:10A4B00082608968C16030BD3F801CF00AB10161D3
:10A4C0007047C16070474160704700210160416082
:10A4D0008160C160016141618161C161016241626C
:10A4E0008162C1620163416381637047704700000C
:10A4F0002DE9F04F95B007007BD038784FF0000879
:10A500004FF0FF3BFE4C612874D026DCFD4CFE4D25
:10A51000442870D012DC2E286ED007DC23286CD0A3
:10A520002B2801F0FC812D2868D1EFE33A2801F0B7
:10A53000FA813F287ED04228F6D143E056282ED01B
:10A5400006DC4C2877D0532876D05528ECD1F2E39E
:10A5500057285CD05F28E7D1FFE0DFF8B093EC4DDF
:10A56000EC4E62384FF0010A172847D2DFE810F0AE
:10A57000F7024600C1028C06BA0746004600E10514
:10A5800046004600460046004600460030022603CC
:10A590002B01C1034C06FA0717005F0125060121B4
:10A5A000080304F007FEFFF723FADB48DB49081A2B
:10A5B0008108D948FFF70EFA00220090D8A30121A4
:10A5C000DAA0DBE3781C2C2207A90FF09FF8049097
:10A5D000002813D0012812DD102200210898FDF771
:10A5E00071FE0446102200210798FDF76BFE0470EF
:10A5F000C3E3C4E3C4E354E07DE055E1D8E01022B6
:10A6000000210798FDF75EFE0178CDA021E0781CBF
:10A610002C2207A90FF07AF804900028D9D001283D
:10A6200010DD102200210898FDF74CFE1022044690
:10A63000002102E0A6E30FE02DE00798FDF742FEBF
:10A640000480D5E7102200210798FDF73BFE018822
:10A65000BDA00AF01BFFCBE7781C2C2207A90FF046
:10A6600055F804900028B4D001280CDD10220021F8
:10A670000898FDF727FE0446102200210798FDF7F1
:10A6800021FE0460B4E7102200210798FDF71AFEAE
:10A690000168AFA0DDE738460EF0A8FF15B0BDE8B1
:10A6A000F08F781C2C2207A90FF030F804900228B4
:10A6B0007EDB032803D10998007869280DD05C4619
:10A6C000594608980DF0D0FE0490214607980DF0E9
:10A6D000CBFE04990EF054FF8AE75C465946089871
:10A6E0000DF0C2FE0490214607980DF0BDFE0499BE
:10A6F0000DF0AEFF7CE7142297490FA8FDF79FFDF0
:10A7000000260DF13C087F1C09E0B81902210DF06C
:10A71000ABFE06EBD67208EB6201B61CC872384677
:10A72000FDF7BBFDB042F0D806EBD67040088DF8BF
:10A730004600002202212046FFF726F8286814224E
:10A740000FA900680BF004F8012202212046FFF750
:10A750001BF80020FFF752F94AE714210FA8FDF774
:10A7600087FD7F1C022138460DF07EFE00260DF18C
:10A770003C08BF1C0F9009E0B81902210DF074FECF
:10A7800006EBD67208EB6201B61CC8723846FDF7BC
:10A7900084FDB042F0D806EBD67040088DF8460034
:10A7A000002202212046FEF7EFFF2868006800E043
:10A7B00086E014220FA90AF0CBFF012202212046D5
:10A7C000FEF7E2FF14E7781C2C2207A90EF09EFF8B
:10A7D0000490002874D0012804DD0898FDF7AAFD34
:10A7E000059001E0CDF814A0594607980DF03CFE05
:10A7F0000490FF2807DD4FF6FF7101EA0021C0F346
:10A80000072001430491554804A9059A00680EF0F9
:10A8100005FEE0B352A00AF039FE0598C1000AFA1D
:10A8200001F20499521E0A4041004EA041E1781CF9
:10A830002C2207A90EF06AFF0490022840D15C4642
:10A84000594607980DF010FE0490FF280FDD4FF6D3
:10A85000FF7101EA0021C0F3072001430491214662
:10A8600008980DF001FE049941EA004006E02146F7
:10A8700008980DF0F9FD049941EA0020049007982A
:10A88000FDF70BFD44080898FDF707FD00E008E020
:10A8900004EB5002314804A900680FF0EDF80028DD
:10A8A00090D1042131A0D4E6781C2C2207A90EF007
:10A8B0002DFF334C4FF40061049010B1022807D0F3
:10A8C0005FE224F81080401C04908842F9D38FE6A0
:10A8D00034F810201AB1801C04908842F8D30798ED
:10A8E0000BF070FC05460E460898FDF723FDFDF7BA
:10A8F00014FF0022234B0DF07BFF2A46334643E032
:10A900005400002000680040D00000200C0000200F
:10A9100008000020D875002000800008000004080E
:10A920004D61792020372032303134002025642ECB
:10A93000253032642025732C203C253038583E00C9
:10A940002C253032580000002C25303458000000EF
:10A950002C25303858000000A09B0108E0000020A2
:10A960002C00000025302A5800000000202E2E2E3A
:10A97000493243206572726F72282530325829009F
:10A98000E807002000000840FDF7C6FD0022FE4B4E
:10A99000FDF734FE0022FD4BFDF717FD05460E4680
:10A9A0002068FDF7BAFE2A463346FDF70EFDFDF797
:10A9B000D2FE20600798FDF7BDFC049924F8110031
:10A9C0000898FDF7B7FC049904EB410148800FE6B5
:10A9D000781C2C2207A90EF099FE0490002843D081
:10A9E0007EDD0798FDF7A6FC2168488104980128C0
:10A9F0007BDD08980BF0E6FB0022E54BFDF7F6FE49
:10AA00005AD82068B0F91E00FDF787FE4FF0663275
:10AA1000E04BFDF781FD6FF00B02FDF75EFE6FF07E
:10AA20000102FDF75AFEDC4ADC4BFDF7E7FD002290
:10AA3000D64BFDF7CAFCFDF78EFEFDF765FEFDF770
:10AA4000C2FE80460F462868FDF767FE05460E46A3
:10AA500008980BF0B7FB2A463346FDF75DFD4246EA
:10AA60003B46FDF7CBFD33E02468B4F91E00FDF74B
:10AA700054FE4FF06632C74BFDF74EFD6FF00B02F0
:10AA8000FDF72BFE6FF00102FDF727FEC24AC34B14
:10AA9000FDF7B4FD0022BD4BFDF797FCFDF75BFE13
:10AAA000B4F90E104843296890FBF1F2B4F90A108A
:10AAB000BBA00AF0EBFC9BE508980BF083FB064675
:10AAC0000F462868FDF729FE32463B46FDF724FD78
:10AAD000FDF741FE2168C8810498022805DD00E0E9
:10AAE00003E00998FDF726FC00E0032021680873C5
:10AAF00060E0781C2C2207A90EF008FE04900028C4
:10AB000019D057DD0798FDF715FC2168C882049815
:10AB100001284FDD08980BF055FB06460F462868C4
:10AB2000FDF7FBFD32463B46FDF7F6FCFDF713FE55
:10AB3000216888823EE02868FDF7E6FD2468054626
:10AB4000B4F91400FDF7E0FD2946FDF700FCFDF720
:10AB50003AFE0B460246B4F916109BA091E3781C0E
:10AB60002C2207A90EF0D2FD0490002816D01EDD7D
:10AB70000798FDF7DFFB216848800498012816DD5F
:10AB80000898FDF7D7FB21688880049802280EDD1D
:10AB90000998FDF7CFFB216808800BE02068B0F929
:10ABA0000030B0F90420B0F9021091A069E32068E8
:10ABB000A0F80080206805F029F819E5781C2C22FF
:10ABC00007A90EF0A3FD954E049010B1052844D0BE
:10ABD000D7E093A00AF05AFC0027B04633E000BF4C
:10ABE0002068D5F800B0B0F91E00FDF796FD4FF0D3
:10ABF0006632684BFDF790FC6FF00B02FDF76DFDC0
:10AC00006FF00102FDF769FD634A644BFDF7F6FC46
:10AC100000225E4BFDF7D9FBFDF79DFDB6F9021052
:10AC200048430BEBDB7100EB610090FBFBF2B6F9E4
:10AC30000610CDE9001AB6F9043038F9191080A0D1
:10AC40000AF024FC7F1C07EB870908EB4906B6F9DC
:10AC500008005FEA000AC3D1CAE40027B14600E059
:10AC60007F1C07EB870809EB4806308930B10B9849
:10AC7000FDF760FBB6F908108842F1D10798FDF79F
:10AC800059FB07EB870229F812000898FDF752FBE1
:10AC9000296800FB01F72068B0F91E00FDF73DFDB3
:10ACA0004FF066323B4BFDF737FC6FF00B02FDF7C0
:10ACB00014FD6FF00102FDF710FD374A374BFDF729
:10ACC0009DFC0022314BFDF780FBFDF744FD97FB17
:10ACD000F0F009EB480148800998FDF72BFBB080A4
:10ACE0000A98FDF727FBF0800B98FDF723FB3081D6
:10ACF0007EE4781C2C2207A90EF008FD38B101284B
:10AD00001AD0022821D003283BD1B9E0FCE3D9F8BE
:10AD100000003C2190FBF1F320684FF47A74B0F905
:10AD20001220B0F91000624392FBF1F2604390FBF5
:10AD3000F1F148A0A5E2E8E30798FDF7FBFA00F07F
:10AD40000301206803F09AF952E40798FDF7F2FA3C
:10AD5000C0EB001080004FF47A7590FBF5F021688D
:10AD600008820898FDF7E6FAC0EB0010800090FB1F
:10AD7000F5F12068418205F079FA1DE2A3E1ADE327
:10AD8000A7E018E1FDE30000006A18410000E03F81
:10AD90000000F03F66660A40DEA3EA60F09A6E3F6C
:10ADA0000D3E7028756C7365292020542C50572057
:10ADB0002020202020202020202E2E2E20256475CB
:10ADC000732C2564000000000D3E6428656C6179D9
:10ADD000292020542C5057202020202020202020C3
:10ADE000202E2E2E20256475732C252E3266000011
:10ADF0000D3E6228757273742920204E2C6C656E8E
:10AE00002C70657220202020202E2E2E2025642CD0
:10AE1000256475732C25646D7300000040040020C8
:10AE20000D3E712873686170652920772C552C744C
:10AE3000642C746F2C74726566202E2E2E00000018
:10AE40000D0A25642C25642C25642C25642C25648E
:10AE5000000000000D3E7328696D6D657229206E3B
:10AE6000202F2F2074312C74322C7470202E2E2E13
:10AE70002025646E732C25646E732C256475730015
:10AE80000798FDF757FAC0EB001080004FF47A7571
:10AE900090FBF5F0216808820898FDF74BFAC0EBAB
:10AEA0000010800090FBF5F0216848820998FDF7BA
:10AEB00041FA0A287EDB0998FDF73CFA642879DC20
:10AEC0000998FDF737FAC0EB00108100C9F80010AF
:10AED0008FE1781C2C2207A90EF018FCFE4D10B152
:10AEE000022868D1F2E0FD4F38888000FDF726FC8B
:10AEF0004FF06632FA4BFDF70FFB6FF00B02FDF7D8
:10AF0000ECFB6FF00102FDF7E8FBDFF8D8B3DFF8E8
:10AF1000D8A35A465346FDF771FBDFF8D0930022C1
:10AF20004B46FDF752FAFDF716FCDFF8C4830646E0
:10AF3000B8F800008000FDF701FC4FF06632E84BE6
:10AF4000FDF7EAFA6FF00B02FDF7C7FB6FF00102A5
:10AF5000FDF7C3FB5A465346FDF750FB00224B4614
:10AF6000FDF733FAFDF7F7FB0146788840F24C42D3
:10AF70005043000B0090B8F8020033465043020BD8
:10AF8000DCA00AF083FAE74800688000FDF7C5FB03
:10AF90004FF06632D24BFDF7BFFA6FF00B02FDF7B0
:10AFA0009CFB6FF00102FDF798FB5A465346FDF7F4
:10AFB00025FB01E060E343E100224B46FDF705FA83
:10AFC000FDF7C9FB0646D84800688000FDF7A5FBE1
:10AFD0004FF06632C24BFDF79FFA6FF00B02FDF7A0
:10AFE0007CFB6FF00102FDF778FB5A465346FDF7F4
:10AFF00005FB00224B46FDF7E8F9FDF7ACFB0146E7
:10B00000CA4840F24C4240F24C4300685043C84AA0
:10B0100012685A43D31702EB135212130092C2174D
:10B0200000EB125002133346C2A00AF02FFA2E464C
:10B03000D5F82802FDF782FB4FF06632A84BFDF7EA
:10B040006BFA6FF00B02FDF748FB6FF00102FDF7A2
:10B0500044FB5A465346FDF7D1FA00224B46FDF712
:10B06000B4F9FDF778FB8500D6F82402FDF766FBFE
:10B070004FF066329A4BFDF74FFA6FF00B02FDF777
:10B080002CFB6FF00102FDF728FB5A465346FDF7F3
:10B09000B5FA00224B46FDF798F9FDF75CFB2168F5
:10B0A000830040F24C42B1F91A00B1F91810504334
:10B0B0005143CA1701EB12510A13C11700EB11508B
:10B0C0000113A8A000950AF0E1F975E00798FDF7D3
:10B0D00031F9000340F24C4690FBF6F021684883BA
:10B0E0000898FDF727F9000390FBF6F1206800228D
:10B0F0000183418B2846FDF7DBFF2068A54E002227
:10B10000418B3046FDF7D4FF4FF483742146284627
:10B11000FDF7D1FF21463046FDF7CDFF0122214644
:10B120002846FEF7EBF8012221463046FEF7E6F806
:10B13000EFE3781C2C2207A90EF0E8FA10B10228E0
:10B140007ED11FE01020FEF749FD00EBC00101EBAE
:10B15000001040F2FF7606EB800040F6FF74B0FB73
:10B16000F4F50020FEF73AFD00EBC00101EB001002
:10B1700006EB8000B0FBF4F12520024600902B4640
:10B1800085A0A0E70798FDF7D5F8C0EB0030642450
:10B19000323090FBF4F085B20898FDF7CBF8C0EBA5
:10B1A0000030323090FBF4F081B22A460020FEF7E6
:10B1B00035FD0120FEF704FDABE3781CFDF7BAF87E
:10B1C000012804D0022809D0042839D115E02168CB
:10B1D000C86B20F0020040F0010005E02168C86B58
:10B1E00020F0010040F0020020F00400C863D9F80C
:10B1F0000010206805F0AAF88BE32168C86B20F0E6
:10B20000030040F00400F1E7CDF814804046CDF88B
:10B21000108023E006EB40000599C388428868A0AF
:10B220000AF034F90498059900EB800036F8100014
:10B23000401C00EB8000400001EB5001059100E054
:10B240005EE1049800EB800006EB4000C388428872
:10B250005BA00AF01BF90498401C049000EB8000EE
:10B2600036F810100029D5D10498059900EB80001C
:10B27000491D06EB4000059130F8043C30F8082CDD
:10B2800052A00AF003F944E32068A0F80E80206879
:10B2900004F0BCFC002504950595F9E0401CFDF781
:10B2A0004DFA06EB470A80468946BAF80200FDF7D8
:10B2B00045FA0022494BFDF72FF90022484BFDF7D4
:10B2C0009DF90022474B0DF093FA0022464BFDF703
:10B2D00095F90022454B8BE000200140CC00002076
:10B2E00066660A40DEA3EA60F09A6E3F0000E03F27
:10B2F000C800002020200D3E612864632920202002
:10B300002055312C49312C55322C49322020202E09
:10B310002E2E202564562C2564412C2564562C2580
:10B32000644100001C0000201800002010000020D4
:10B33000140000200A0D3E6128646329202020208B
:10B3400069646C65202020202020202020202E2EC3
:10B350002E202564562C2564412C2564562C25640A
:10B36000410000000A0D3E6128646329202020204E
:10B370004973696D6D2C492C55682C556C202E2E07
:10B380002E202564412C2564412C2564562C2564EF
:10B3900056000000002101400D3E69284441432928
:10B3A00020202069312C69322020202020202020DC
:10B3B000202E2E2E20256425632C25642563000075
:10B3C0000D0A25642C25642C256400000D0A2564D3
:10B3D0002C25642C25640D0A3E00000000001C4052
:10B3E00000001840000008400000794000002440A0
:10B3F000FDF792F842464B46FDF78EF85A46FDF7A8
:10B400006CF90022FE4BFCF7E0FF80468946059868
:10B41000FDF783F942464B46FCF7D7FFFDF79BF952
:10B42000059036F81700401CFDF788F90746884656
:10B43000BAF80600FDF782F90022F24BFDF76CF82E
:10B440000022F14BFDF7DAF80022F04B0DF0D0F9B5
:10B450000022EF4BFDF7D2F80022EE4BFDF75CF82F
:10B460003A464346FDF758F85A46FDF736F90022AA
:10B47000E34BFCF7AAFF074688460498FDF74DF911
:10B480003A464346FCF7A1FFFDF765F96D1C0490B1
:10B4900005EB850736F8170000287FF4FFAE09F0AA
:10B4A000C1FF04994FF47A7091FBF0F3059991FB79
:10B4B000F0F220680621B0F90E00C0EBC00090FB4E
:10B4C000F1F1AFF2041009F0E1FF2168C889401CD6
:10B4D00000B2C881B0F5167FFFF6D9AECEA009F054
:10B4E000D5FF16E2781C2C2207A90EF00FF9CB4DE0
:10B4F000CB4EDFF83083CC4F049038B104281BD0FA
:10B50000012015B0BDE8F08F05E267E129686420ED
:10B5100091FBF0F2316891FBF0F12068D8F800401F
:10B52000B0F932302520CDE90004CDE90203BFA0F7
:10B530003B6809F0ABFFECE10798FCF7FBFE6421E8
:10B54000484330600898FCF7F5FE642148432860C2
:10B550000998FCF7EFFE38600A98FCF7EBFEC8F894
:10B560000000D6E100263546781C2C2207A90EF0F3
:10B57000CDF838B101287DD002287CD003287BD1BA
:10B5800089E0C3E12668B6F93600C11700EB5170B7
:10B59000B24901EBE000FDF7C0F84FF06632B04B66
:10B5A000FCF7BAFF6FF00B02FDF797F84FF055323A
:10B5B000AC4BFDF723F84FF06632A94BFCF705FFC3
:10B5C000FDF728F9FDF7FFF80746B6F9340088467D
:10B5D000C11700EB5170C010FDF79FF84FF06632B5
:10B5E0009F4BFCF799FF6FF00B02FDF776F84FF0D9
:10B5F00033329D4BFDF702F8FDF70CF9FDF7E3F848
:10B6000004460D46B6F93000FDF787F84FF0663274
:10B61000934BFCF781FF6FF00B02FDF75EF86FF0C4
:10B620000102FDF75AF8DFF848B2904A5B46FCF792
:10B63000E5FFDFF8CCA100225346FCF7C6FEFDF77C
:10B640008AF88146B6F92E00FDF767F84FF06632AA
:10B65000834BFCF761FF6FF00B02FDF73EF86FF0D4
:10B660000102FDF73AF8814A5B46FCF7C7FF00226A
:10B67000534602E017E012E031E0FCF7A6FEFDF7CA
:10B680006AF801468DE8B00109EBD970421079A043
:10B6900009F0FCFE3DE10998FCF74CFE06460898CF
:10B6A000FCF748FE05460798FCF744FE07461EB91E
:10B6B0000A2097FBF0F0C61925B9F81707EB907030
:10B6C000A7EBA00540F2EF20874208D2BD4206DA80
:10B6D000002D04DBB6F5487F01DCBE4201DC022010
:10B6E0000FE73846FDF719F80C22FCF7F6FF0222A7
:10B6F000FCF7F3FFDFF878B15C4A5B46FCF70CFF20
:10B70000DFF85C914FF0663A52464B46FCF776FF05
:10B71000DFF8EC8000224346FCF757FEFDF71BF8EC
:10B7200021680022C8834FF483715F48FDF7E6FD6E
:10B730002846FCF7F2FF0C22FCF7CFFF0222FCF7B1
:10B74000CCFF4A4A5B46FCF7E7FE52464B46FCF705
:10B7500055FF00224346FCF738FEFCF7FCFF044689
:10B760003046FCF7DAFF0C22FCF7B7FF0222FCF7A9
:10B77000B4FF3E4A5B46FCF7CFFE52464B46FCF711
:10B780003DFF00224346FCF720FEFCF7E4FFE117F3
:10B7900004EB9171C1F38F02C11700EB9170C0F3FC
:10B7A0008F014148FDF784FC404C20200590012288
:10B7B00005A920680DF032FE00B30598032240F37E
:10B7C0000200C0F10800874027F0FF0021300590FB
:10B7D00005A920680EF050F988B995E0334C88200F
:10B7E0000590022205A920680DF018FE30B10598D9
:10B7F00000B209F024FFFCF7E6FF59E084E088E09E
:10B800000000E03F00001C4000001840000008401D
:10B8100000007940000024400D0A3E00880000200E
:10B8200084000020800000207C0000200D3E66285F
:10B83000616E2920202020546C2C54682C6D696E78
:10B840002C6D61782C542E2E2025642C25642C25FB
:10B850006425632C256425632C25640000F0FFFF1C
:10B8600066660A405555D53F3333C33FDEA3EA60D1
:10B87000F09A6E3F0D3E752862616E6B292020554F
:10B88000632C55632F322C32302C2D35202E2E2E4A
:10B89000202564562C2564562C252E3166562C25E1
:10B8A0002E3166560000000000220140E00000201A
:10B8B00002460B461EA009F0E9FD8B2005900222EE
:10B8C00005A920680DF0AAFDF0B1059800B209F0B5
:10B8D000B6FEFCF778FF02460B4619A009F0D6FD2C
:10B8E00097200590022205A920680DF097FD58B118
:10B8F000059800B209F0A3FEFCF765FF02460B466F
:10B9000012A009F0C3FD04E00420FAE512A00DF036
:10B9100091FF0020F5E5781C00F034F9F1E5781C82
:10B9200000F0A8FBEDE5781C00F01EF8E9E500004A
:10B930000D3E56696E3D252E31662C20000000001C
:10B94000566F75743D252E31662C2000506F75742E
:10B950003D252E3166000000750D690D730D640DD7
:10B96000700D620D660D000070B5ADF55A7D0400D6
:10B9700089A8D7904FF48070D8900ED02078652891
:10B9800079D025DC744D3E2876D01CDC20282CD0C4
:10B9900030282CD0312870D129E070A009F076FD34
:10B9A000FF2189A80BF0A2FB20B989A96C480CF0F3
:10B9B00010F918B16BA009F069FDCBE089A96AA064
:10B9C00009F064FDC6E0632875D0642855D10CE009
:10B9D0006D2862D004DC662878D069284DD18DE0CE
:10B9E000722827D0742848D133E0601C18E0303822
:10B9F000C0B20BF067FBC0B9207859493038C0B2EB
:10BA000024310CF033F880B9FF2189A80BF06EFBCC
:10BA100058B989A952480CF0DCF86178601C21B152
:10BA2000FFF7A2FF0DF55A7D70BDAFF2C300296884
:10BA300048618FE020212046FCF725FC2C22C9A973
:10BA40000DF064FE022853D1DDE9C9010CF0C6F9FE
:10BA50002DE02022C9A920460DF058FE022847D12A
:10BA600001226846CA990CF015F8002872D13BA053
:10BA700009F00CFD06E034E065E039E021463BA02A
:10BA800009F004FD6A46042120460BF0BBFB0028A8
:10BA9000F4D168460BF020FB5CE02022C9A92046C7
:10BAA0000DF034FE022823D1CA980BF064FCF8B9DB
:10BAB00050E000E00AE02022C9A920460DF026FE51
:10BAC000022815D1CA980BF0D3FAF0E72022C9A9B1
:10BAD00020460DF01BFE02280AD1CA9800F044FE51
:10BAE000A0E72022C9A920460DF010FE022801D0AF
:10BAF000012097E7CA980CF044FAD8E700211848CB
:10BB00000CF040F9164D4FF6FF760DF24D34D1A9E9
:10BB100013480CF037F92869E0B1288CB04201D005
:10BB2000D79900E0214612A009F0B0FC9DF84C0323
:10BB3000C00603D510A009F0A9FCE8E70FA0D19931
:10BB400009F0A4FCE3E729680D4848610020FEF7EE
:10BB5000CFFC67E7002065E7500100200D0A0000D8
:10BB6000900400203F3A3E0025733E0025730000FC
:10BB70000D0A252D313673002F00000025640000CA
:10BB8000F1A400082DE9F0430178ADF28C4DF74F98
:10BB90000126F74C4FF0FF386D4664297ED011DC4A
:10BBA0004FF47A6946297AD007DC3F2978D0F14FE3
:10BBB000442976D0452975D191E150295CD063297B
:10BBC000F9D14BE071296ED006DC692929D06C29A6
:10BBD0006AD06D29EFD16DE1732966D07529EAD15C
:10BBE000202229460DF092FD0228E4D10AF0A8FE99
:10BBF000C820396809F008FC0198007866280AD046
:10BC0000682802D0732805D108E0DC49DA480860CA
:10BC100002F05AF82BE202F033F828E202F042F880
:10BC200025E22C222946401C0DF070FDD44C68B151
:10BC300001280DD00198FCF77DFB054602210098F4
:10BC40000CF012FC4FEA050101F04AFC20600EE204
:10BC5000022100980CF008FC0021F5E7202229467B
:10BC60000DF054FD0228D5D1019800786E3801F00E
:10BC700063FBC4490860FAE1002000F0D7FA0446EB
:10BC800001462522C0A009F001FC0A2C05DD48462A
:10BC900009F0D4FB404600F0C9FA07E0DBE10DE013
:10BCA000E5E058E1F5E06EE063E0BDE0BDA009F03D
:10BCB000EDFB4FF4967009F0C1FBD8E12022294634
:10BCC0000DF024FD02287DDB01984FF480550078AB
:10BCD00066281BD0752876D1B4A009F0D7FB0520C3
:10BCE000396809F091FBB7480CF09CFA411CF6D07A
:10BCF00079288FD108A901200BF0B8FE01212A462E
:10BD000008460BF0F1FB002101202DE0AEA009F068
:10BD1000BDFB484609F092FB0520396809F074FB29
:10BD2000A8480CF07FFA411CF6D079288FD1ACA03E
:10BD300009F0ACFB0024302606EBC40000F06AFDDD
:10BD4000082814D0A9A000BF09F0A0FB641C062C91
:10BD5000F2DB95A900200BF089FE2A460121002084
:10BD60000BF0C2FB002108460BF080FE7FE1A0A093
:10BD7000EAE72C222946401C0DF0C8FC0146684623
:10BD800001F01EFC73E12C222946401C0DF0BEFC84
:10BD9000F0B3984C40E0414600980CF065FBD4F8B5
:10BDA0000012884236D1002593A009F06FFB0026CF
:10BDB000A919605CC043C1B290A009F067FB761C72
:10BDC000102E01E045E03FE0F2DB0026A819205CE0
:10BDD000C143C8B221385E2804D2C9B270A009F0AC
:10BDE00055FB02E082A009F051FB761C102EEDDB22
:10BDF0001035B5F5007FD7DB824809F047FB38687E
:10BE0000804770480CF00EFA411CF8D01B2800E067
:10BE100007E005D004F50174D4F80002401CBAD143
:10BE200025E103F0A5FE22E12C222946401C0DF05D
:10BE30006DFC70B10298FCF77DFA0A2804DB0298C9
:10BE4000FCF778FA642806DD02200DF28C4DBDE87F
:10BE5000F0830320F9E70298FCF76CFAC0EB0010BE
:10BE6000810069480160206804F070FAFFE02C222C
:10BE70002946401C0DF04AFC012802D0022810D0AF
:10BE800007E0009840F6B8310078312803D0322816
:10BE900003D00120D9E75D4800E05D4803F0F4FDE0
:10BEA000E5E00198FCF746FA04460098FCF742FAF0
:10BEB0002146F3E72C222946401C0DF027FC0746BB
:10BEC0000AE000BF55F82700FCF734FA06FA00F143
:10BED0002068C26B8A43C2637F1EF3D2C7E02C2264
:10BEE0002946401C0DF012FC064631E0206890F80F
:10BEF0004000400722D555F8260041460CF0B4FA20
:10BF00002168896A084219D038680AF03BF98146ED
:10BF100055F8260041460CF0A7FA03463D48006854
:10BF200042F2107190FBF1F201FB12012068826A6B
:10BF300039A009F0ABFA48460AF024F955F8260072
:10BF400041460CF091FA02462068816A9143816271
:10BF5000761ECBD28BE01B492C22401C096839602D
:10BF600029460DF0D3FB074672E0000020000020B8
:10BF7000540000200C01002079270108BC0100209A
:10BF8000E0000020D00000200D0A3E5061636B6984
:10BF90006E6720736563746F72732E2E2E20256476
:10BFA0002563000020446F6E650000000D466F722F
:10BFB0006D617420757362202E2E2E5B792F6E5D5D
:10BFC00000000000500100200D466F726D6174206A
:10BFD000666C617368202E2E2E5B792F6E5D0000DB
:10BFE0002065726173696E67200000003F000000E9
:10BFF0002E000000000004080D0A00002530325811
:10C00000200000009CA201080C000020181800204D
:10C01000F8460020580100203A253034642065722B
:10C02000726F7220253034582C253034582C206300
:10C030006C6561720D0A3E00002255F8270011461A
:10C04000FCF740F906FA00F22068016C91430164A4
:10C050007F1EF1D20BE0202229460DF057FB02286B
:10C0600005D10198FCF766F9396809F0CDF900208F
:10C07000EBE600002DE9F043017889B001265D4D23
:10C080006C46652923D006DCDFF86C8144297DD01D
:10C09000452904D13FE06D2905D077292CD0012016
:10C0A00009B0BDE8F0832C222146401C0DF02EFB88
:10C0B000074609E054F82700FCF73CF92A6806FA1D
:10C0C00000F0D16B0843D0637F1EF3D290E02C22A6
:10C0D0002146401C0DF01AFB07460AE054F82700E1
:10C0E000FCF728F906FA00F1286810F83A2F1143F6
:10C0F00001707F1EF2D27BE02C222146401C0DF005
:10C1000005FB18B10098FCF715F901E04FF49670A3
:10C1100009F094F96CE02C222146401C0DF0F6FA4F
:10C1200006464FF0FF3749E0286890F84000400786
:10C1300023D554F8260039460CF096F92968896A07
:10C1400008421AD1D8F800000AF01CF8814654F8C9
:10C15000260039460CF088F903462848006842F268
:10C16000107190FBF1F201FB12012868826A24A091
:10C1700009F08CF948460AF005F854F826003946CB
:10C180000CF072F929688A6A104300E019E08862AD
:10C1900054F8260039460CF067F945F2A811084218
:10C1A0000CD02868818D21F00301818500211C4875
:10C1B00004F089FC00211B4804F085FC761EB3D2F4
:10C1C00016E01949401C0A68C8F800202C222146B4
:10C1D0000DF09CFA074609E054F82700FCF7AAF88E
:10C1E000296806FA00F00A6C104308647F1EF3D237
:10C1F000002055E7540000200C01002058010020C9
:10C200003A25303464206572726F722025303458BC
:10C210002C253034582C207365740D0A3E00000024
:10C220000000014000040140500100202DE9F04FC2
:10C230000025304CADF5017D8146AB464FF030080E
:10C240004FF4003604F50177BA466D1C09F0EAF8A0
:10C25000D4F8000202E000BF07F50177D7F800121A
:10C26000884202D0491CF7D126E0481C24D00BF1AB
:10C27000010B2046204954460844B04203DAD4F862
:10C280000002401CDED1B9F1000F02D0404600F0A0
:10C29000C1FAD4F8000208F10808401C06F500367F
:10C2A000D0D1B9F1000F1ED0404600F0B3FA002003
:10C2B0000DF5017DBDE8F08F00206A4654F820108E
:10C2C000C94342F82010401C8028F7DB09F0AAF887
:10C2D000B9F1000FCDD0012369460020D4F8002227
:10C2E00003F082FBC5E764210BFB01F090FBF5F046
:10C2F000DEE70000000004080402FCF72DE9F04727
:10C300004FF48044204600F003F92146334800F002
:10C3100095FB374C002832492068324EDFF8C89030
:10C32000DFF8C8A0828D42F210772FD022F0800271
:10C33000828590F84020520715D590F82800000615
:10C3400011D4086809F01EFF05463068802390FB71
:10C35000F7F107FB11012068826A26A009F096F820
:10C36000284609F00FFF2068816A41F08001816250
:10C37000818D21F0030181850021484604F0A3FB53
:10C3800000215046BDE8F04704F09DBB42F080021A
:10C39000828590F8402045F2A815520714D5806A8E
:10C3A000284211D0086809F0EDFE804630682B461F
:10C3B00090FBF7F107FB11012068826A15A009F0D4
:10C3C00065F8404609F0DEFE2068816AA943816273
:10C3D0000121484604F077FB0121D2E7000C02401E
:10C3E0000C01002058010020000001400004014021
:10C3F000540000203A25303464206572726F722038
:10C40000253034582C253034582C207365740D0A8F
:10C410003E0000003A25303464206572726F72204D
:10C42000253034582C253034582C20636C656172CB
:10C430000D0A3E0070B54FF4807000F069F8264C8C
:10C440004FF48051204600F000FB00283CD04FF410
:10C450000051204600F0F9FAB0B34FF48041204675
:10C4600000F0ECFA80BB1D4C206890F840104907A2
:10C4700019D590F82800800615D41948006809F0ED
:10C4800081FE05461748006842F2107190FBF1F2F8
:10C4900001FB120120682023826A13A008F0F6FF36
:10C4A000284609F06FFE2068816A41F02001816210
:10C4B000818D21F0030181850021134804F003FBE5
:10C4C0000021124804F0FFFABDE870404FF4967165
:10C4D000072009F02BBA0000000C02405400002095
:10C4E0000C010020580100203A2530346420657288
:10C4F000726F7220253034582C253034582C20731C
:10C5000065740D0A3E000000000001400004014077
:10C510000149086070470000143C014030B51A49D9
:10C520008379026853B30B6893430B600A1D136849
:10C530000468A343136002790A4413680468234320
:10C540001360114A083213680468A3431360131D73
:10C550001C680568AC431C604479102C05D021444C
:10C560000A68006802430A6030BD1168046821430C
:10C570001160196800680143196030BD00790844F2
:10C5800001689143016030BD003C01402DE9F05F3E
:10C590006649002874D0D1E91842D1E9049A8B4643
:10C5A000D1E916314A26DFF888E100250EEB850C2B
:10C5B000BCF802C0B4450ADD3EF92570ACEB090CAD
:10C5C0000FFA8CFC07FB0CF7FB1841EBE771594F96
:10C5D00007EB850CBCF802C0B4450ADD37F92570BD
:10C5E000ACEB0A0C0FFA8CFC07FB0CF73C1942EB86
:10C5F000E77240F6B83705F10105BD42D6DB5D466E
:10C60000C5E91631C5E91842DBF84860771CCBF85C
:10C610004870B0F92070BE427DD190F82C6064273C
:10C6200006F0030844F2B33C4FF47A76B8F1010FF8
:10C6300006D0B8F1020F24D0B8F1030F42D14AE07E
:10C64000B0F93820A2FB0308D41704FB038302FBD4
:10C65000013162460023FBF7B1FD3C220023FBF7CA
:10C66000ADFD044602460023072133A0FDF7C6F9BD
:10C6700094FBF6F106FB114090FBF7F230A01FE0AF
:10C680004CE0B0F93810A1FB0408CB1703FB04837E
:10C6900001FB023162460023FBF790FD3C220023A0
:10C6A000FBF78CFD044602460023072122A0FDF77C
:10C6B000A5F994FBF6F106FB114090FBF7F223A0DD
:10C6C0000AF00AF90020A864C5E91800C5E91600B7
:10C6D000401EBDE8F09F1B195141B0F93820A3FB63
:10C6E000020801FB0281D41703FB041162460023F8
:10C6F000FBF764FD3C220023FBF760FD0446014686
:10C7000000220DA0FDF77AF994FBF6F106FB11402B
:10C7100090FBF7F200E007E00FA0D1E7002088646B
:10C72000C1E91800C1E916000020D2E7000000208E
:10C7300018180020F84600206369635000000000CC
:10C7400045313D25642E25644A00000045323D25D3
:10C75000642E25644A00000045312B45323D256496
:10C760002E25644A0000000070B5204C0646204D7E
:10C77000206848B146B33178042929D032461DA13A
:10C7800008F076FE002070BD4FF409710120FBF720
:10C790008BFD206028B1132231460BF07BF910B1DC
:10C7A00006E0062070BD2068C1680AF04DFD20B18A
:10C7B00020680BF0E3FD052070BD10A1206808F093
:10C7C00057FEAFF25B000EE00DA008F05FFED9E768
:10C7D0000BF08BFB20680AF07FFC20680BF0CEFD8D
:10C7E00000202060074829684861CBE7A0000020AE
:10C7F0005001002025730D0A000000000D0000000C
:10C800000D0A000069B9000801490860704700007E
:10C810000C3C024010B5044600F08EF8F320FFF700
:10C82000F3FF00BF08F0FEFD0221204600F004F8EF
:10C830000128F7D010BD000070B50646002529B1CB
:10C84000012927D0022928D04FF4407500F086F83E
:10C8500008281ED1124C206820F440702060206807
:10C8600028432060206820F0F8002060206846F00F
:10C87000020108432060206840F48030206000F00E
:10C880006DF8216821F002012160216821F0F80192
:10C89000216070BD4FF48075D8E74FF40075D5E77F
:10C8A000103C02400B4908200A68D20301D5012040
:10C8B00070470A68D20601D5052070470A6812F051
:10C8C000EF0F01D00620704709688907FBD50720C4
:10C8D000704700000C3C024070B50C46054600F065
:10C8E0002BF8F320FFF790FF08F09CFD2146284627
:10C8F00000F004F80128F7D070BD000070B50D46B7
:10C90000064600F02BF8082813D10A4C206820F4C2
:10C9100040702060206840F400702060206840F083
:10C9200001002060356000F019F8216821F0010154
:10C93000216070BD103C024005480068002805DAFF
:10C94000034804490C380160034901607047000046
:10C95000103C024023016745AB89EFCD08B50820A4
:10C960008DF80000FFF79EFF8DF800009DF8000095
:10C970000128F7D09DF8000008BDF0B50023012480
:10C9800003270D6804FA03F21540954242D1D0F80E
:10C9900000C05E0007FA06F52CEA050CC0F800C0DE
:10C9A00091F804C0D0F800E00CFA06FC4CEA0E0C3A
:10C9B000C0F800C091F804C0BCF1010F02D0BCF176
:10C9C000020F1FD1D0F808C02CEA050CC0F808C02F
:10C9D00091F805C0D0F808E00CFA06FC4CEA0E0C01
:10C9E000C0F808C0D0F804C02CEA020CC0F804C09B
:10C9F000426891F806C00CFA03FC1FFA8CFC42EA6C
:10CA00000C024260C268AA43C260CA79C568B240DB
:10CA10002A43C2605B1C102BB3D3F0BD4B07DB0E67
:10CA20009A40C90810B500EB8100016A0F249C40B0
:10CA3000A1430162016A1143016210BD0246002058
:10CA400012690A4200D00120704702460020526954
:10CA50000A4200D00120704741837047018370472C
:10CA60004FF6FF7101600021017141718171C17147
:10CA700070474069806880B27047D0F8CC00006889
:10CA8000C0F341407047084490F87F08704700EBBE
:10CA90008100D0F83408704710B5044600221046D3
:10CAA000C4F8F42704EB8203C3F8F807C3F834088A
:10CAB000A31883F87008521CD2B20F2AF2D30820B0
:10CAC000A4F89608204607F06BFC204607F082F891
:10CAD000204606F027FF0121204607F0C1FC204632
:10CAE00006F0F8FF204607F054FA002010BDD0F8F9
:10CAF000F407704710B507F03EFC002010BD00227F
:10CB0000431883F87F2800EB4113C3F8A42807F0EB
:10CB10005DBB0000F0B416490A78012A09D0CA6842
:10CB20000025802A00D1CD60D1E902329A4202D19B
:10CB30000D70F0BC704702D9C2F1800301E0A3EB95
:10CB400002031C460B61402B96B205D940234032AC
:10CB5000403CC1E9032403E02244C1E90325A3B218
:10CB600001220A7003498A19F0BC8121FDF70CB932
:10CB700004030020B09F00200748006809F002FB72
:10CB80000648006842F2107190FBF1F201FB1201BD
:10CB900003A008F07BFCFEE70801002058010020FC
:10CBA0003A2530346420486172644661756C745F64
:10CBB00048616E646C65720D0A3E000010B5142168
:10CBC000054800F057F9000A04D0034814300188E2
:10CBD000C9B2018010BD0000005400402DE9F041B1
:10CBE000414D284600F0DAF8404A0026811A404CB0
:10CBF0004FF4C067904234D02FDC6FF440314018BE
:10CC00003FD0012862D03F2825D1284600F037F9CF
:10CC10000246D4E902010B18401C1A73A060C988AF
:10CC2000491E814207D10021284600F06DF80121FC
:10CC3000284600F0A9F8E068A168C08888420AD1B7
:10CC400000223946284600F0B0F80121284600F0BD
:10CC50005BF8E068C680BDE8F081022922D0042993
:10CC6000F9D1E168A0688A8882421DD18E80C88887
:10CC70004FF00101002828461FD0BDE8F04100F028
:10CC800079B8E0688188007800294FEA40604FEA6F
:10CC9000106101D0002200E00122284600F0F2F8E5
:10CCA000A660D8E7D4E902010144401C097AA060DB
:10CCB0002846BDE8F04100F0EDB800F065F83946CF
:10CCC0002846BDE8F041002200F06FB8E068C08857
:10CCD0000128C0D10021284600F016F82846BDE8FA
:10CCE000F041012100F050B80054004080000700DE
:10CCF000D40000200029018802D041F0100101E099
:10CD000021F01001018070470029018802D041F410
:10CD1000806101E021F48061018070470029018871
:10CD200002D041F0010101E021F0010101807047D2
:10CD30000D4910B5884202D101214C050AE00B498A
:10CD4000884202D101218C0504E0094988420AD1B8
:10CD50000121CC05204602F051FA2046BDE81040E2
:10CD6000002102F04BBA10BD0054004000580040B2
:10CD7000005C00400029018802D041F4807101E08C
:10CD800021F48071018070470029018802D041F4AC
:10CD9000007101E021F4007101807047818A008BED
:10CDA00041EA004121F07F407047002A828801D08B
:10CDB0000A4300E08A438280704700007FB5044642
:10CDC00080880D4620F03F06684602F043FA274966
:10CDD0000298B0FBF1F189B20E43A680228822F0BE
:10CDE00001022280224B2A689A421BD85200B0FBD3
:10CDF000F2F080B2042800D20420491C2184A083D0
:10CE0000208840F00100208021884FF6F530014055
:10CE1000A8886A89104308432080A8892989084383
:10CE200020817FBDEB88A3F53F46FF3E0BD002EB90
:10CE3000C20303EB0212B0FBF2F080B240F4804078
:10CE4000020506D007E002EB4202B0FBF2F080B22E
:10CE5000F6E740F001004FF4967251434FF47A72B6
:10CE6000B1FBF2F140F40040C7E7000040420F0080
:10CE7000A086010008B508440090008808BD008A1B
:10CE8000C0B2704712B141F0010101E001F0FE01B2
:10CE900001827047018270470029018802D041F465
:10CEA000004101E0C1F30E010180704700290188B3
:10CEB00003D021F080010180704741F08001FAE742
:10CEC00041F288310160002181804BF6FF72C280FF
:10CED000018141814FF480418181704702494CF6C4
:10CEE000CC4008607047000000300040034A014613
:10CEF0000020D2680A4200D0012070470030004074
:10CF000002494AF6AA20086070470000003000403D
:10CF100001494860704700000030004001498860C6
:10CF20007047000000300040014908607047000071
:10CF30000030004070B5284C284A208802F11001CA
:10CF400008F0E8FA254A0546608802F1100108F069
:10CF5000E1FA854201DD208800E060881F4A02F185
:10CF6000100108F0D7FA1E490546C8228868854294
:10CF700001DA08680CE0CB689D4201DD486807E0F3
:10CF800042C92C1A761A7443181A94FBF0F008441C
:10CF900040F6B831484390FBF2F4052C05DBB4F5BC
:10CFA000BB6F03DB40F2D75400E005240D4E304642
:10CFB00003F048FEA042304603D203F043FE401C7B
:10CFC00002E003F03FFE401E0146304603F0EAFF58
:10CFD000642095FBF0F070BDE8170020809B0108ED
:10CFE0007C000020000400401FB501214FF4E060E8
:10CFF00002F010F96846FCF783F8002000900190D9
:10D00000029003906846FCF765F800F005F800F020
:10D010007BF800F0F3F81FBDF0B5012197B088054B
:10D0200002F0C8F833480024CDE90040324802A994
:10D03000022681E851007002CDE9054040000790CA
:10D04000800008904011099040020A9001250420B8
:10D05000CDE90C54294F0B90694638460E94FDF7E4
:10D0600003FA01213846FDF7F1F815A8FFF7F8FC9F
:10D0700003208DF8580015908DF85B4015A92048C5
:10D08000FFF77BFC0FA8FCF7A8F9280711904FF0D9
:10D090006060CDE912040F94164C8DF840504C3C62
:10D0A0008DF841508DF850600FA92046FCF730F9FB
:10D0B0000023012209212046FCF750F90023022217
:10D0C00008212046FCF74AF908212046FBF7EAFF31
:10D0D0000C492046FBF7DEFF01212046FCF720F833
:10D0E00001212046FBF7EBFF01212046FCF70EF85B
:10D0F00017B0F0BD4C200140C80000207064024011
:10D100000004024000028000F0B5012197B08805BC
:10D1100002F050F84FF0007000903348019033480F
:10D1200002A90226002481E851007002CDE90540E1
:10D1300040000790800008904011099040020A903A
:10D1400001250420CDE90C54294F0B90694638463F
:10D150000E94FDF789F901213846FDF777F815A8F7
:10D16000FFF77EFC3020159003208DF858008DF8D5
:10D170005B4015A91F48FFF700FC0FA8FCF72DF92D
:10D180000F9428071190184C4FF060608DF84050B4
:10D1900012904C3C8DF841508DF850600FA92046FC
:10D1A000FCF7B6F8002301220F212046FCF7D6F841
:10D1B000002302220E212046FCF7D0F80E21204643
:10D1C000FBF770FF0C492046FBF764FF0121204666
:10D1D000FBF7A6FF01212046FBF771FF0121204646
:10D1E000FBF794FF17B0F0BD4C210140CC000020AC
:10D1F00058640240000802400002800070B598B0F8
:10D200000121464801F0D6FF01218D02284602F097
:10D2100001F8280400904248019042480024CDE9DA
:10D22000020404A9182081E83100680007908000FA
:10D2300008904011099040020A9001250420CDE990
:10D240000C54394E0B90694630460E94FDF70CF99C
:10D2500001213046FCF7FAFF15A8FFF701FC032077
:10D260008DF85800072015908DF85B4015A92F48C0
:10D27000FFF783FB0E20159015A92D48FFF77DFBC6
:10D280000F9411941394264C06208DF840508DF87D
:10D2900050004C3C8DF841500FA92046FCF738F85F
:10D2A0000023012219462046FCF758F800230222E9
:10D2B00001212046FCF752F80023032202212046D8
:10D2C000FCF74CF8002304220B212046FCF746F81B
:10D2D000002305220C212046FCF740F800230622FB
:10D2E0000D212046FCF73AF80B212046FBF7DAFE29
:10D2F00010492046FBF7CEFE01212046FBF710FF28
:10D3000001212046FBF702FF01212046FBF7D7FE53
:10D310002046FCF75DF818B070BD00000400400026
:10D320004C220140E8170020106402400000024037
:10D330000008024000028000F0B589B0074607A847
:10D34000FFF78EFB02208DF820002020454D0124A0
:10D3500007908DF8234007A92846FFF70EFB6003CE
:10D3600007908DF8224007A92846FFF706FB0922FF
:10D3700005212846FFF752FB09220D212846FFF719
:10D380004DFB0121480601F02DFF0121880601F027
:10D3900029FF04A8FCF7BCFA334E3046FCF778F9B5
:10D3A00000258DF818508DF819408DF816508DF81D
:10D3B0001A508DF817408DF81B4017B18DF81240A8
:10D3C00001E08DF81250092103208DF814108DF81A
:10D3D00013008DF815000420ADF8100004A93046A4
:10D3E000FCF7DAF9ADF802504FF48060ADF80000B8
:10D3F000ADF806504FF48C608DF80B40ADF804008A
:10D40000ADF808500E208DF80C408DF80A008DF80C
:10D410000D406846FCF752F94FF4B050ADF80000EB
:10D420004FF4B150ADF804000F208DF80A006846A3
:10D43000FCF744F94FF45070ADF8000010208DF85F
:10D440000A00ADF804506846FCF738F901220221C1
:10D450003046FCF799F94FF4FA60014608F044FAB7
:10D4600009B0F0BD000402400068004000B587B07C
:10D4700004A8FFF7F5FA6846FCF7DEFB03208DF8F9
:10D4800014003020049001208DF8170004A91348DF
:10D49000FFF773FA0121480701F0A4FEFCF784FBB3
:10D4A0000020019069460390FCF7A4FB6946102018
:10D4B000FCF7A0FB40F699510A460020FCF7AEFBB2
:10D4C0000120FCF77DFB01210020FCF761FB01211D
:10D4D0001020FCF75DFB07B000BD0000000002401B
:10D4E00070B50C46054686B010210120FAF7DCFE27
:10D4F000064605B1358004B1748004A8FFF7B0FA80
:10D5000002208DF815008DF8140001208DF816000A
:10D510008DF81700C020284D049004A92846FFF775
:10D520002CFA042206212846FFF778FA0422072164
:10D530002846FFF773FA01214D05284601F052FEF7
:10D540000121284601F05AFE0021284601F056FE2E
:10D550001A4D2846FFF7ECFB6846FFF7B1FC0A209E
:10D56000ADF804004BF6FF70ADF806000020ADF8F2
:10D5700008002815ADF80A000001ADF80C00694656
:10D5800028460094FFF71AFC01212846FFF78EFC7D
:10D5900001212846FFF7AEFB01212846FFF7B4FB27
:10D5A00001212846FFF7BAFB012211022846FFF7A6
:10D5B000FCFB06B0304670BD000402400054004041
:10D5C0002DE9FC4706460F466846FFF749FA4FF03B
:10D5D00001098DF804908DF8069017B10024244DB0
:10D5E00033E008F0DBF9BDE8FC8700BF56F8240003
:10D5F00000786138092839D2DFE800F005072A2CC5
:10D600002E30323436001B4800E01B4845F8240019
:10D6100056F82400401C46F82400FAF78BFEDFF889
:10D62000508009FA00F008F1280801B228F8141017
:10D63000009155F824006946FFF79FF938F8141057
:10D6400055F82400FFF70AFA641CBC42CEDBCAE797
:10D650000A48DBE70A48D9E70A48D7E70A48D5E786
:10D660000A48D3E70A48D1E70A48CFE70020CDE7C8
:10D6700090810020000002400004024000080240A7
:10D68000000C02400010024000140240001802404A
:10D69000001C02400020024038B54FF4C06000F08A
:10D6A000C1FC01208DF8010003248DF802408DF8A3
:10D6B000030019208DF80000684600F081FC02206C
:10D6C0008DF801003C208DF80000684600F078FCE1
:10D6D0001F208DF80000684600F072FC20208DF8B5
:10D6E0000000684600F06CFC8DF8014014208DF8B5
:10D6F0000000684600F064FC40208DF80000684699
:10D7000000F05EFC28208DF80000684600F058FC10
:10D7100017208DF80000684600F052FC12208DF8AA
:10D720000000684600F04CFC1D208DF800006846A3
:10D7300000F046FC1E208DF80000684600F040FC1A
:10D7400025208DF80000684600F03AFC38BD000046
:10D750002DE9F04F9FB014A8FFF782F902268DF84B
:10D7600054604FF003098DF8559032460621FE4F64
:10D770003846FFF753F9022207213846FFF74EF9E2
:10D780000125C0208DF85750002414908DF8564084
:10D7900014A93846FFF7F1F84FF44050F34F8DF8D5
:10D7A000545014908DF8564014A93846FFF7E5F808
:10D7B0004FF4805841463846FFF747F910B9ECA0BE
:10D7C00009F032F841463846FFF748F94FF4005A5D
:10D7D00051463846FFF739F910B9EAA009F024F8A4
:10D7E0005146B8463846FFF739F901218F033846CC
:10D7F00001F010FD8DF854408DF8574014A94046B3
:10D800001497FFF7BAF80E21032002F025F93846E5
:10D81000FEF77EFE8DF8684010208DF8690019979C
:10D820008DF86A5019A8FEF779FEDB4F8DF8544049
:10D830004FF480788DF8575014A93846CDF85080B1
:10D84000FFF79BF80821042002F006F94046FEF796
:10D850005FFE8DF8684008208DF86900CDF864807F
:10D860008DF86A5019A8FEF759FE14A8FFF7F8F8CA
:10D870008DF857608DF854608DF856408DF85590AE
:10D88000012209213846FFF7C9F801220B21384649
:10D89000FFF7C4F801220D213846FFF7BFF8012237
:10D8A0000E213846FFF7BAF84FF4D440149014A96B
:10D8B0003846FFF762F8B94F032206213846FFF7D2
:10D8C000ADF8032207213846FFF7A8F80322082104
:10D8D0003846FFF7A3F8032209213846FFF79EF8E0
:10D8E0004FF47070149014A93846FFF746F8684654
:10D8F000FCF7EBFD0121880501F05CFCDFF8A0B22C
:10D900005846FCF701FDA7480290A74F402003901E
:10D91000A64938684FF4806991FBF0F000EB800075
:10D9200004904FF40030CDE909408011CDE9070A99
:10D930004FF0040ACDF82CA0CDE905494FF0406026
:10D940000090CDE90C549A4801900E9469465846CF
:10D95000FCF78AFD4FF06060009096480190904877
:10D9600069466038FCF780FD16A803F085FB0FA818
:10D9700003F0EEFAADF858402020ADF85A008DF8CB
:10D980006250386817908A484C3803F0B3F8012188
:10D99000084601F03FFC864816A94C3803F02EFBE0
:10D9A00084484C3803F0A6F80121022001F032FC33
:10D9B000804816A94C3803F021FB7D4800214C38E3
:10D9C00003F0F2FA386800EBD070411079484C3817
:10D9D00003F0EAFA40F2DC50DFF8DCB11790584669
:10D9E00003F088F80121022001F0FCFB16A958463B
:10D9F00003F004FBADF83E506020ADF83C006C48ED
:10DA00001194ADF848400FA94C3803F08FF96948DC
:10DA10000FA94C3803F08AF965480FA94C3803F078
:10DA20000FFA64480FA94C3803F00AFA38681190CD
:10DA30005F48ADF848600FA94C3803F0ADF95D4878
:10DA40000FA94C3803F0A8F959480FA94C3803F036
:10DA50003BFA58480FA94C3803F036FA1195ADF847
:10DA600048400FA9584603F061F91BA803F04EF98E
:10DA7000ADF86E60ADF87050ADF87240ADF874401E
:10DA8000ADF86CA01BA9584603F0EAF80122042166
:10DA9000584603F043F946484A460C214C3803F0F7
:10DAA00025F844484A460C214C3803F01FF84048FA
:10DAB00000214C3803F06AF93D4800214C3803F04E
:10DAC000B5F93B4800214C3803F0F8F938480021FB
:10DAD0004C3803F033FA374800214C3803F056F93C
